{
  "contractName": "FastPoolManagement",
  "abi": [
    {
      "inputs": [
        {
          "internalType": "address",
          "name": "proposalManagerAddr",
          "type": "address"
        },
        {
          "internalType": "bytes",
          "name": "_code",
          "type": "bytes"
        },
        {
          "internalType": "bytes[]",
          "name": "_executionBytes",
          "type": "bytes[]"
        },
        {
          "internalType": "address",
          "name": "poolAddress",
          "type": "address"
        },
        {
          "internalType": "enum IProposalManager.Quorum",
          "name": "quorum",
          "type": "uint8"
        },
        {
          "internalType": "enum IProposalManager.VoteType",
          "name": "voteType",
          "type": "uint8"
        },
        {
          "internalType": "uint256",
          "name": "expiresAt",
          "type": "uint256"
        },
        {
          "internalType": "bool",
          "name": "isExecuteVote",
          "type": "bool"
        }
      ],
      "name": "deployProposeVoteExecute",
      "outputs": [],
      "stateMutability": "nonpayable",
      "type": "function"
    }
  ],
  "bytecode": "0x608060405234801561001057600080fd5b506105a7806100206000396000f3fe608060405234801561001057600080fd5b506004361061002b5760003560e01c8063f09cd83b14610030575b600080fd5b61004361003e3660046102ea565b610045565b005b600060608a8a8080601f0160208091040260200160405190810160405280939291908181526020018383808284376000920191909152505082519293505060208301905034f091506001600160a01b0382166100bc5760405162461bcd60e51b81526004016100b390610520565b60405180910390fd5b6040516313bcedb760e31b81526001600160a01b03831690639de76db8906100ea908c908c9060040161047e565b600060405180830381600087803b15801561010457600080fd5b505af1158015610118573d6000803e3d6000fd5b505050506000808d6001600160a01b03166364332f7d858b8b8b8b6040518663ffffffff1660e01b815260040161015395949392919061043b565b6040805180830381600087803b15801561016c57600080fd5b505af1158015610180573d6000803e3d6000fd5b505050506040513d601f19601f820116820180604052506101a491908101906103e2565b91509150841561026157604051637ace48e760e01b81526001600160a01b03821690637ace48e7906101db90600190600401610515565b600060405180830381600087803b1580156101f557600080fd5b505af1158015610209573d6000803e3d6000fd5b50505050806001600160a01b03166343d726d66040518163ffffffff1660e01b8152600401600060405180830381600087803b15801561024857600080fd5b505af115801561025c573d6000803e3d6000fd5b505050505b5050505050505050505050505050565b803561027c8161055c565b92915050565b60008083601f840112610293578182fd5b50813567ffffffffffffffff8111156102aa578182fd5b60208301915083602080830285010111156102c457600080fd5b9250929050565b8035801515811461027c57600080fd5b80356003811061027c57600080fd5b6000806000806000806000806000806101008b8d031215610309578586fd5b8a356103148161055c565b995060208b013567ffffffffffffffff80821115610330578788fd5b818d018e601f820112610341578889fd5b8035925081831115610351578889fd5b8e6020848301011115610362578889fd5b6020019a5090985060408c0135908082111561037c578788fd5b506103898d828e01610282565b909850965061039d90508c60608d01610271565b94506103ac8c60808d016102db565b93506103bb8c60a08d016102db565b925060c08b013591506103d18c60e08d016102cb565b90509295989b9194979a5092959850565b600080604083850312156103f4578182fd5b8251915060208301516104068161055c565b809150509250929050565b60008284528282602086013780602084860101526020601f19601f85011685010190509392505050565b6001600160a01b0386811682528516602082015260a0810161045c8561054f565b84604083015261046b8461054f565b6060820193909352608001529392505050565b602080825281810183905260009060408482028401810190840186845b8781101561050857868403603f190183528135368a9003601e190181126104c0578687fd5b890180359067ffffffffffffffff8211156104d9578788fd5b8136038b13156104e7578788fd5b6104f48683898401610411565b95505050918401919084019060010161049b565b5091979650505050505050565b901515815260200190565b6020808252601590820152741c1c9bdc1bdcd85cdb0819985a5b1959081a5b9a5d605a1b604082015260600190565b6003811061055957fe5b50565b6001600160a01b038116811461055957600080fdfea2646970667358221220df2ffc832ce4e882984079be5d80da125608fe69466087a4cd9662dc6b4cc41364736f6c63430006000033"
}