{
  "contractName": "Incentivized",
  "abi": [
    {
      "anonymous": false,
      "inputs": [
        {
          "indexed": true,
          "internalType": "address",
          "name": "from",
          "type": "address"
        },
        {
          "indexed": false,
          "internalType": "uint256",
          "name": "value",
          "type": "uint256"
        }
      ],
      "name": "IncentiveReward",
      "type": "event"
    },
    {
      "inputs": [],
      "name": "getImplementation",
      "outputs": [
        {
          "internalType": "address",
          "name": "",
          "type": "address"
        }
      ],
      "stateMutability": "view",
      "type": "function",
      "constant": true
    },
    {
      "inputs": [],
      "name": "getOwner",
      "outputs": [
        {
          "internalType": "address",
          "name": "",
          "type": "address"
        }
      ],
      "stateMutability": "view",
      "type": "function",
      "constant": true
    },
    {
      "inputs": [
        {
          "internalType": "contract Deployer",
          "name": "deployer",
          "type": "address"
        }
      ],
      "name": "initializeAndLock",
      "outputs": [],
      "stateMutability": "nonpayable",
      "type": "function"
    },
    {
      "inputs": [
        {
          "internalType": "address",
          "name": "dexAggAddr",
          "type": "address"
        }
      ],
      "name": "incrementRoundDexAgg",
      "outputs": [],
      "stateMutability": "nonpayable",
      "type": "function"
    },
    {
      "inputs": [
        {
          "internalType": "address",
          "name": "udlFeed",
          "type": "address"
        }
      ],
      "name": "prefetchSample",
      "outputs": [],
      "stateMutability": "nonpayable",
      "type": "function"
    },
    {
      "inputs": [
        {
          "internalType": "address",
          "name": "udlFeed",
          "type": "address"
        },
        {
          "internalType": "uint256",
          "name": "roundId",
          "type": "uint256"
        }
      ],
      "name": "prefetchDailyPrice",
      "outputs": [],
      "stateMutability": "nonpayable",
      "type": "function"
    },
    {
      "inputs": [
        {
          "internalType": "address",
          "name": "udlFeed",
          "type": "address"
        },
        {
          "internalType": "uint256",
          "name": "timespan",
          "type": "uint256"
        }
      ],
      "name": "prefetchDailyVolatility",
      "outputs": [],
      "stateMutability": "nonpayable",
      "type": "function"
    },
    {
      "inputs": [
        {
          "internalType": "address",
          "name": "_tk",
          "type": "address"
        },
        {
          "internalType": "address[]",
          "name": "owners",
          "type": "address[]"
        }
      ],
      "name": "liquidateExpired",
      "outputs": [],
      "stateMutability": "nonpayable",
      "type": "function"
    },
    {
      "inputs": [
        {
          "internalType": "address",
          "name": "_tk",
          "type": "address"
        },
        {
          "internalType": "address",
          "name": "owner",
          "type": "address"
        }
      ],
      "name": "liquidateOptions",
      "outputs": [
        {
          "internalType": "uint256",
          "name": "value",
          "type": "uint256"
        }
      ],
      "stateMutability": "nonpayable",
      "type": "function"
    }
  ],
  "bytecode": "0x608060405234801561001057600080fd5b506112a4806100206000396000f3fe608060405234801561001057600080fd5b50600436106100935760003560e01c8063aaf10f4211610066578063aaf10f42146100fe578063b1380cba14610106578063d4db1d1214610119578063df71eff01461012c578063f58a4c251461013f57610093565b80635c1bfb32146100985780636871d873146100ad57806373738fca146100d6578063893d20e8146100e9575b600080fd5b6100ab6100a6366004610df7565b610152565b005b6100c06100bb366004610e2f565b61018c565b6040516100cd9190611229565b60405180910390f35b6100ab6100e4366004610e67565b610311565b6100f1610475565b6040516100cd919061107b565b6100f1610484565b6100ab610114366004610ee7565b610493565b6100ab610127366004610df7565b61074f565b6100ab61013a366004610df7565b6109ff565b6100ab61014d366004610ee7565b610ad6565b6003541561017b5760405162461bcd60e51b8152600401610172906111cf565b60405180910390fd5b600160035561018981610b9e565b50565b6004805460075460405163f041b17d60e01b81526000936001600160a01b03938416936309f52cb993169163f041b17d916101c99189910161107b565b60806040518083038186803b1580156101e157600080fd5b505afa1580156101f5573d6000803e3d6000fd5b505050506040513d601f19601f820116820180604052506102199190810190610fdd565b516040516001600160e01b031960e084901b16815261023b919060040161107b565b60206040518083038186803b15801561025357600080fd5b505afa158015610267573d6000803e3d6000fd5b505050506040513d601f19601f8201168201806040525061028b9190810190610e13565b6001600160a01b0316636871d87384846040518363ffffffff1660e01b81526004016102b89291906110a8565b602060405180830381600087803b1580156102d257600080fd5b505af11580156102e6573d6000803e3d6000fd5b505050506040513d601f19601f8201168201806040525061030a9190810190611063565b9392505050565b6004805460075460405163f041b17d60e01b81526001600160a01b03928316936309f52cb9939092169163f041b17d9161034d9189910161107b565b60806040518083038186803b15801561036557600080fd5b505afa158015610379573d6000803e3d6000fd5b505050506040513d601f19601f8201168201806040525061039d9190810190610fdd565b516040516001600160e01b031960e084901b1681526103bf919060040161107b565b60206040518083038186803b1580156103d757600080fd5b505afa1580156103eb573d6000803e3d6000fd5b505050506040513d601f19601f8201168201806040525061040f9190810190610e13565b6001600160a01b03166373738fca8484846040518463ffffffff1660e01b815260040161043e939291906110c2565b600060405180830381600087803b15801561045857600080fd5b505af115801561046c573d6000803e3d6000fd5b50505050505050565b6000546001600160a01b031690565b6002546001600160a01b031690565b600480546040516314b08a0760e31b81526001600160a01b039091169163a5845038916104c29186910161107b565b60206040518083038186803b1580156104da57600080fd5b505afa1580156104ee573d6000803e3d6000fd5b505050506040513d601f19601f820116820180604052506105129190810190610fbd565b1561052f5760405162461bcd60e51b81526004016101729061116f565b604051632d9e104760e01b81526001600160a01b03831690632d9e10479061055b908490600401611229565b600060405180830381600087803b15801561057557600080fd5b505af1158015610589573d6000803e3d6000fd5b505050506060600460009054906101000a90046001600160a01b03166001600160a01b031663024ece896040518163ffffffff1660e01b815260040160006040518083038186803b1580156105dd57600080fd5b505afa1580156105f1573d6000803e3d6000fd5b505050506040513d6000823e601f3d908101601f191682016040526106199190810190610f12565b90506000600460009054906101000a90046001600160a01b03166001600160a01b03166353b2b0bd6040518163ffffffff1660e01b815260040160206040518083038186803b15801561066b57600080fd5b505afa15801561067f573d6000803e3d6000fd5b505050506040513d601f19601f820116820180604052506106a39190810190611063565b600554604051637b88c23b60e01b81529192506001600160a01b031690637b88c23b906106d6903390859060040161108f565b600060405180830381600087803b1580156106f057600080fd5b505af1158015610704573d6000803e3d6000fd5b50505050336001600160a01b03167fbab6f33f37f14a598dc3c0730b23dd0070ea8ee15a70b5b6856457cdb7dbfaa3826040516107419190611229565b60405180910390a250505050565b600480546040516314b08a0760e31b81526001600160a01b039091169163a58450389161077e9185910161107b565b60206040518083038186803b15801561079657600080fd5b505afa1580156107aa573d6000803e3d6000fd5b505050506040513d601f19601f820116820180604052506107ce9190810190610fbd565b156107eb5760405162461bcd60e51b81526004016101729061116f565b806001600160a01b03166392e436aa6040518163ffffffff1660e01b8152600401600060405180830381600087803b15801561082657600080fd5b505af115801561083a573d6000803e3d6000fd5b505050506060600460009054906101000a90046001600160a01b03166001600160a01b031663024ece896040518163ffffffff1660e01b815260040160006040518083038186803b15801561088e57600080fd5b505afa1580156108a2573d6000803e3d6000fd5b505050506040513d6000823e601f3d908101601f191682016040526108ca9190810190610f12565b90506000600460009054906101000a90046001600160a01b03166001600160a01b03166353b2b0bd6040518163ffffffff1660e01b815260040160206040518083038186803b15801561091c57600080fd5b505afa158015610930573d6000803e3d6000fd5b505050506040513d601f19601f820116820180604052506109549190810190611063565b600554604051637b88c23b60e01b81529192506001600160a01b031690637b88c23b90610987903390859060040161108f565b600060405180830381600087803b1580156109a157600080fd5b505af11580156109b5573d6000803e3d6000fd5b50505050336001600160a01b03167fbab6f33f37f14a598dc3c0730b23dd0070ea8ee15a70b5b6856457cdb7dbfaa3826040516109f29190611229565b60405180910390a2505050565b60048054604051633437137f60e01b81526001600160a01b0390911691633437137f91610a2e9185910161107b565b60206040518083038186803b158015610a4657600080fd5b505afa158015610a5a573d6000803e3d6000fd5b505050506040513d601f19601f82011682018060405250610a7e9190810190610fbd565b15610a9b5760405162461bcd60e51b81526004016101729061116f565b806001600160a01b031663e1d5a2c86040518163ffffffff1660e01b8152600401600060405180830381600087803b15801561082657600080fd5b600480546040516314b08a0760e31b81526001600160a01b039091169163a584503891610b059186910161107b565b60206040518083038186803b158015610b1d57600080fd5b505afa158015610b31573d6000803e3d6000fd5b505050506040513d601f19601f82011682018060405250610b559190810190610fbd565b15610b725760405162461bcd60e51b81526004016101729061116f565b60405163744eec2760e11b81526001600160a01b0383169063e89dd84e9061055b908490600401611229565b604051630110ceef60e21b81526001600160a01b038216906304433bbc90610bc890600401611147565b60206040518083038186803b158015610be057600080fd5b505afa158015610bf4573d6000803e3d6000fd5b505050506040513d601f19601f82011682018060405250610c189190810190610e13565b600580546001600160a01b0319166001600160a01b03928316179055604051630110ceef60e21b8152908216906304433bbc90610c579060040161111d565b60206040518083038186803b158015610c6f57600080fd5b505afa158015610c83573d6000803e3d6000fd5b505050506040513d601f19601f82011682018060405250610ca79190810190610e13565b600480546001600160a01b0319166001600160a01b03928316178155604051630110ceef60e21b8152918316916304433bbc91610ce491016111fe565b60206040518083038186803b158015610cfc57600080fd5b505afa158015610d10573d6000803e3d6000fd5b505050506040513d601f19601f82011682018060405250610d349190810190610e13565b600680546001600160a01b0319166001600160a01b03928316179055604051630110ceef60e21b8152908216906304433bbc90610d73906004016111a6565b60206040518083038186803b158015610d8b57600080fd5b505afa158015610d9f573d6000803e3d6000fd5b505050506040513d601f19601f82011682018060405250610dc39190810190610e13565b600780546001600160a01b0319166001600160a01b039290921691909117905550565b8051610df181611259565b92915050565b600060208284031215610e08578081fd5b813561030a81611259565b600060208284031215610e24578081fd5b815161030a81611259565b60008060408385031215610e41578081fd5b8235610e4c81611259565b91506020830135610e5c81611259565b809150509250929050565b600080600060408486031215610e7b578081fd5b8335610e8681611259565b9250602084013567ffffffffffffffff80821115610ea2578283fd5b81860187601f820112610eb3578384fd5b8035925081831115610ec3578384fd5b8760208085028301011115610ed6578384fd5b949760209095019650909450505050565b60008060408385031215610ef9578182fd5b8235610f0481611259565b946020939093013593505050565b60006020808385031215610f24578182fd5b825167ffffffffffffffff80821115610f3b578384fd5b81850186601f820112610f4c578485fd5b8051925081831115610f5c578485fd5b8383029150610f6c848301611232565b8381528481019082860184840187018a1015610f86578788fd5b8794505b85851015610fb057610f9c8a82610de6565b835260019490940193918601918601610f8a565b5098975050505050505050565b600060208284031215610fce578081fd5b8151801515811461030a578182fd5b600060808284031215610fee578081fd5b610ff86080611232565b825161100381611259565b8152602083015160028110611016578283fd5b602082015260408301516effffffffffffffffffffffffffffff8116811461103c578283fd5b6040820152606083015163ffffffff81168114611057578283fd5b60608201529392505050565b600060208284031215611074578081fd5b5051919050565b6001600160a01b0391909116815260200190565b6001600160a01b03929092168252602082015260400190565b6001600160a01b0392831681529116602082015260400190565b6001600160a01b0384811682526040602083018190528201839052600090849060608401835b868110156111115783356110fb81611259565b83168252602093840193909101906001016110e8565b50979650505050505050565b60208082526010908201526f50726f746f636f6c53657474696e677360801b604082015260600190565b6020808252600e908201526d21b932b234ba283937bb34b232b960911b604082015260600190565b6020808252601a908201527f626c61636b6c697374656420666f7220696e63656e7469766573000000000000604082015260600190565b6020808252600f908201526e4f7074696f6e7345786368616e676560881b604082015260600190565b6020808252601590820152741a5b9a5d1a585b1a5e985d1a5bdb881b1bd8dad959605a1b604082015260600190565b60208082526011908201527021b7b63630ba32b930b626b0b730b3b2b960791b604082015260600190565b90815260200190565b60405181810167ffffffffffffffff8111828210171561125157600080fd5b604052919050565b6001600160a01b038116811461018957600080fdfea2646970667358221220f71207dcab61a602924685a65acf629431d3d6d9f871ab1695e5aeb736c9a42f64736f6c63430006000033"
}