{
  "contractName": "MetavaultHedgingManagerFactory",
  "abi": [
    {
      "inputs": [
        {
          "internalType": "address",
          "name": "_positionManager",
          "type": "address"
        },
        {
          "internalType": "address",
          "name": "_reader",
          "type": "address"
        },
        {
          "internalType": "bytes32",
          "name": "referralCode",
          "type": "bytes32"
        }
      ],
      "stateMutability": "nonpayable",
      "type": "constructor"
    },
    {
      "anonymous": false,
      "inputs": [
        {
          "indexed": true,
          "internalType": "address",
          "name": "hedgingManager",
          "type": "address"
        },
        {
          "indexed": true,
          "internalType": "address",
          "name": "pool",
          "type": "address"
        }
      ],
      "name": "NewHedgingManager",
      "type": "event"
    },
    {
      "inputs": [],
      "name": "_positionManagerAddr",
      "outputs": [
        {
          "internalType": "address",
          "name": "",
          "type": "address"
        }
      ],
      "stateMutability": "view",
      "type": "function",
      "constant": true
    },
    {
      "inputs": [],
      "name": "_readerAddr",
      "outputs": [
        {
          "internalType": "address",
          "name": "",
          "type": "address"
        }
      ],
      "stateMutability": "view",
      "type": "function",
      "constant": true
    },
    {
      "inputs": [],
      "name": "_referralCode",
      "outputs": [
        {
          "internalType": "bytes32",
          "name": "",
          "type": "bytes32"
        }
      ],
      "stateMutability": "view",
      "type": "function",
      "constant": true
    },
    {
      "inputs": [],
      "name": "getImplementation",
      "outputs": [
        {
          "internalType": "address",
          "name": "",
          "type": "address"
        }
      ],
      "stateMutability": "view",
      "type": "function",
      "constant": true
    },
    {
      "inputs": [],
      "name": "getOwner",
      "outputs": [
        {
          "internalType": "address",
          "name": "",
          "type": "address"
        }
      ],
      "stateMutability": "view",
      "type": "function",
      "constant": true
    },
    {
      "inputs": [
        {
          "internalType": "contract Deployer",
          "name": "deployer",
          "type": "address"
        }
      ],
      "name": "initializeAndLock",
      "outputs": [],
      "stateMutability": "nonpayable",
      "type": "function"
    },
    {
      "inputs": [
        {
          "internalType": "address",
          "name": "_poolAddr",
          "type": "address"
        }
      ],
      "name": "create",
      "outputs": [
        {
          "internalType": "address",
          "name": "",
          "type": "address"
        }
      ],
      "stateMutability": "nonpayable",
      "type": "function"
    }
  ],
  "bytecode": "0x608060405234801561001057600080fd5b5060405161457d38038061457d83398101604081905261002f91610067565b600580546001600160a01b039485166001600160a01b03199182161790915560048054939094169216919091179091556006556100c1565b60008060006060848603121561007b578283fd5b8351610086816100a9565b6020850151909350610097816100a9565b80925050604084015190509250925092565b6001600160a01b03811681146100be57600080fd5b50565b6144ad806100d06000396000f3fe60806040523480156200001157600080fd5b5060043610620000885760003560e01c8063893d20e81162000063578063893d20e814620000e15780639ed9331814620000eb578063aaf10f421462000102578063cd2fe994146200010c5762000088565b806321fd03f3146200008d5780635c1bfb3214620000af57806387a528e514620000c8575b600080fd5b6200009762000116565b604051620000a6919062000284565b60405180910390f35b620000c6620000c03660046200025e565b62000125565b005b620000d262000164565b604051620000a69190620002b2565b620000976200016a565b62000097620000fc3660046200025e565b62000179565b6200009762000210565b620000976200021f565b6005546001600160a01b031681565b60035415620001515760405162461bcd60e51b81526004016200014890620002bb565b60405180910390fd5b600160035562000161816200022e565b50565b60065481565b6000546001600160a01b031690565b60075460405160009182916001600160a01b039091169084906200019d9062000250565b620001aa92919062000298565b604051809103906000f080158015620001c7573d6000803e3d6000fd5b509050826001600160a01b0316816001600160a01b03167f14e183a3bd375b59faa9d1bbd888e7305afa8b6b52aba47ba14376b56880ef3e60405160405180910390a392915050565b6002546001600160a01b031690565b6004546001600160a01b031681565b600780546001600160a01b0319166001600160a01b0392909216919091179055565b614177806200030183390190565b60006020828403121562000270578081fd5b81356200027d81620002ea565b9392505050565b6001600160a01b0391909116815260200190565b6001600160a01b0392831681529116602082015260400190565b90815260200190565b6020808252601590820152741a5b9a5d1a585b1a5e985d1a5bdb881b1bd8dad959605a1b604082015260600190565b6001600160a01b03811681146200016157600080fdfe6080604052601e600b556001600c55600f600d553480156200002057600080fd5b5060405162004177380380620041778339810160408190526200004391620004c8565b60008290506200005e81620002cd60201b620028821760201c565b604051630110ceef60e21b81526001600160a01b038216906304433bbc906200008a906004016200059a565b60206040518083038186803b158015620000a357600080fd5b505afa158015620000b8573d6000803e3d6000fd5b505050506040513d601f19601f82011682018060405250620000de919081019062000498565b600a80546001600160a01b0319166001600160a01b039283161790819055604080516321fd03f360e01b8152905191909216916321fd03f39160048083019260209291908290030181600087803b1580156200013957600080fd5b505af11580156200014e573d6000803e3d6000fd5b505050506040513d601f19601f8201168201806040525062000174919081019062000498565b600880546001600160a01b0319166001600160a01b03928316179055600a546040805163334bfa6560e21b81529051919092169163cd2fe9949160048083019260209291908290030181600087803b158015620001d057600080fd5b505af1158015620001e5573d6000803e3d6000fd5b505050506040513d601f19601f820116820180604052506200020b919081019062000498565b600980546001600160a01b0319166001600160a01b03928316179055600a54604080516387a528e560e01b8152905191909216916387a528e59160048083019260209291908290030181600087803b1580156200026757600080fd5b505af11580156200027c573d6000803e3d6000fd5b505050506040513d601f19601f82011682018060405250620002a2919081019062000506565b600e5550600780546001600160a01b0319166001600160a01b039290921691909117905550620005ea565b604051630110ceef60e21b81526001600160a01b038216906304433bbc90620002f99060040162000549565b60206040518083038186803b1580156200031257600080fd5b505afa15801562000327573d6000803e3d6000fd5b505050506040513d601f19601f820116820180604052506200034d919081019062000498565b600580546001600160a01b0319166001600160a01b03928316179055604051630110ceef60e21b8152908216906304433bbc906200038e906004016200051f565b60206040518083038186803b158015620003a757600080fd5b505afa158015620003bc573d6000803e3d6000fd5b505050506040513d601f19601f82011682018060405250620003e2919081019062000498565b600480546001600160a01b0319166001600160a01b03928316178155604051630110ceef60e21b8152918316916304433bbc9162000421910162000571565b60206040518083038186803b1580156200043a57600080fd5b505afa1580156200044f573d6000803e3d6000fd5b505050506040513d601f19601f8201168201806040525062000475919081019062000498565b600680546001600160a01b0319166001600160a01b039290921691909117905550565b600060208284031215620004aa578081fd5b81516001600160a01b0381168114620004c1578182fd5b9392505050565b60008060408385031215620004db578081fd5b8251620004e881620005d1565b6020840151909250620004fb81620005d1565b809150509250929050565b60006020828403121562000518578081fd5b5051919050565b60208082526010908201526f50726f746f636f6c53657474696e677360801b604082015260600190565b6020808252600e908201526d21b932b234ba283937bb34b232b960911b604082015260600190565b6020808252600f908201526e4f7074696f6e7345786368616e676560881b604082015260600190565b6020808252601e908201527f4d6574617661756c7448656467696e674d616e61676572466163746f72790000604082015260600190565b6001600160a01b0381168114620005e757600080fd5b50565b613b7d80620005fa6000396000f3fe608060405234801561001057600080fd5b506004361061009e5760003560e01c8063893d20e811610066578063893d20e81461010f578063aaf10f4214610124578063b79e92161461012c578063c76eecf31461013f578063f88a198f1461015f5761009e565b806312e49611146100a3578063142433c5146100cc5780632cead185146100e15780635a84585e146100f45780635c1bfb32146100fc575b600080fd5b6100b66100b13660046130d9565b61017f565b6040516100c39190613683565b60405180910390f35b6100df6100da3660046130d9565b6105a9565b005b6100b66100ef3660046130d9565b6106b9565b6100b6610aed565b6100df61010a3660046130d9565b610cf3565b610117610d2d565b6040516100c39190613428565b610117610d3c565b6100b661013a3660046130d9565b610d4b565b61015261014d366004613111565b610e51565b6040516100c39190613665565b61017261016d3660046130d9565b611199565b6040516100c39190613678565b600480546040805163024ece8960e01b815290516000936060936001600160a01b03169263024ece8992818301928792829003018186803b1580156101c357600080fd5b505afa1580156101d7573d6000803e3d6000fd5b505050506040513d6000823e601f3d908101601f191682016040526101ff9190810190613149565b905060608151600202604051908082528060200260200182016040528015610231578160200160208202803883390190505b50905060608251600202604051908082528060200260200182016040528015610264578160200160208202803883390190505b50905060608351600202604051908082528060200260200182016040528015610297578160200160208202803883390190505b50905060005b84518110156103c6578481815181106102b257fe5b60200260200101518482815181106102c657fe5b60200260200101906001600160a01b031690816001600160a01b0316815250508481815181106102f257fe5b602002602001015184828151811061030657fe5b60200260200101906001600160a01b031690816001600160a01b0316815250508683828151811061033357fe5b60200260200101906001600160a01b031690816001600160a01b0316815250508683828151811061036057fe5b60200260200101906001600160a01b031690816001600160a01b031681525050600182828151811061038e57fe5b60200260200101901515908115158152505060008282815181106103ae57fe5b9115156020928302919091019091015260010161029d565b506009546008546040805163fbfa77cf60e01b815290516060936001600160a01b039081169363dc383cab9391169163fbfa77cf91600480820192602092909190829003018186803b15801561041b57600080fd5b505afa15801561042f573d6000803e3d6000fd5b505050506040513d601f19601f8201168201806040525061045391908101906130f5565b6007546040516001600160e01b031960e085901b16815261048792916001600160a01b031690899089908990600401613456565b60006040518083038186803b15801561049f57600080fd5b505afa1580156104b3573d6000803e3d6000fd5b505050506040513d6000823e601f3d908101601f191682016040526104db919081019061317c565b90506000805b865160020281101561058f578281600902815181106104fc57fe5b60200260200101516000146105875783818151811061051757fe5b6020026020010151151560011515141561055b5761055483826009028151811061053d57fe5b6020026020010151836125d490919063ffffffff16565b9150610587565b61058483826009028151811061056d57fe5b60200260200101518361262190919063ffffffff16565b91505b6001016104e1565b5061059d816012601e612667565b98975050505050505050565b6040516370a0823160e01b81526000906001600160a01b038316906370a08231906105d8903090600401613428565b60206040518083038186803b1580156105f057600080fd5b505afa158015610604573d6000803e3d6000fd5b505050506040513d601f19601f8201168201806040525061062891908101906131cb565b60055490915061064b906001600160a01b0384811691168363ffffffff6126d616565b6005546007546040516332abaa5360e01b81526001600160a01b03928316926332abaa539261068392911690869086906004016134dd565b600060405180830381600087803b15801561069d57600080fd5b505af11580156106b1573d6000803e3d6000fd5b505050505050565b60065460075460405163ef38eaf160e01b81526000926060928392839283926001600160a01b039182169263ef38eaf1926106f8921690600401613428565b60006040518083038186803b15801561071057600080fd5b505afa158015610724573d6000803e3d6000fd5b505050506040513d6000823e601f3d908101601f1916820160405261074c91908101906131e3565b949950929750955091935060009250829150505b8551811015610ae257600086828151811061077757fe5b60200260200101519050610789612ebf565b60065460405163f041b17d60e01b81526001600160a01b039091169063f041b17d906107b9908590600401613428565b60806040518083038186803b1580156107d157600080fd5b505afa1580156107e5573d6000803e3d6000fd5b505050506040513d601f19601f8201168201806040525061080991908101906132f6565b9050896001600160a01b031685848151811061082157fe5b60200260200101516001600160a01b03161415610ad85760008061087489868151811061084a57fe5b602002602001015189878151811061085e57fe5b602002602001015161273490919063ffffffff16565b11156109b1576004805483516040516309f52cb960e01b81526109aa93600019936001600160a01b0316926309f52cb9926108af9201613428565b60206040518083038186803b1580156108c757600080fd5b505afa1580156108db573d6000803e3d6000fd5b505050506040513d601f19601f820116820180604052506108ff91908101906130f5565b6001600160a01b031663d6849ab9856109318d8a8151811061091d57fe5b60200260200101518d8b8151811061085e57fe5b6040518363ffffffff1660e01b815260040161094e929190613a5e565b60206040518083038186803b15801561096657600080fd5b505afa15801561097a573d6000803e3d6000fd5b505050506040513d601f19601f8201168201806040525061099e91908101906131cb565b9063ffffffff61277616565b9050610ac4565b6004805483516040516309f52cb960e01b81526001600160a01b03909216926309f52cb9926109e1929101613428565b60206040518083038186803b1580156109f957600080fd5b505afa158015610a0d573d6000803e3d6000fd5b505050506040513d601f19601f82011682018060405250610a3191908101906130f5565b6001600160a01b031663d6849ab9838a8781518110610a4c57fe5b60200260200101516040518363ffffffff1660e01b8152600401610a71929190613a5e565b60206040518083038186803b158015610a8957600080fd5b505afa158015610a9d573d6000803e3d6000fd5b505050506040513d601f19601f82011682018060405250610ac191908101906131cb565b90505b610ad4858263ffffffff6125d416565b9450505b5050600101610760565b509695505050505050565b600480546040805163024ece8960e01b815290516000936060936001600160a01b03169263024ece8992818301928792829003018186803b158015610b3157600080fd5b505afa158015610b45573d6000803e3d6000fd5b505050506040513d6000823e601f3d908101601f19168201604052610b6d9190810190613149565b905060005b8151811015610cee57600454825160009182916001600160a01b03909116906354dea00a90869086908110610ba357fe5b60200260200101516040518263ffffffff1660e01b8152600401610bc79190613428565b604080518083038186803b158015610bde57600080fd5b505afa158015610bf2573d6000803e3d6000fd5b505050506040513d601f19601f82011682018060405250610c169190810190613374565b915091506000848481518110610c2857fe5b60200260200101516001600160a01b03166370a08231306040518263ffffffff1660e01b8152600401610c5b9190613428565b60206040518083038186803b158015610c7357600080fd5b505afa158015610c87573d6000803e3d6000fd5b505050506040513d601f19601f82011682018060405250610cab91908101906131cb565b9050610cdd610cd084610cc4848663ffffffff6127e116565b9063ffffffff61281b16565b879063ffffffff61285d16565b95505060019092019150610b729050565b505090565b60035415610d1c5760405162461bcd60e51b8152600401610d1390613898565b60405180910390fd5b6001600355610d2a81612882565b50565b6000546001600160a01b031690565b6002546001600160a01b031690565b600080826001600160a01b0316638e15f4736040518163ffffffff1660e01b8152600401604080518083038186803b158015610d8657600080fd5b505afa158015610d9a573d6000803e3d6000fd5b505050506040513d601f19601f82011682018060405250610dbe9190810190613374565b9150506000610e37846001600160a01b031663acaec6026040518163ffffffff1660e01b815260040160206040518083038186803b158015610dff57600080fd5b505afa158015610e13573d6000803e3d6000fd5b505050506040513d601f19601f820116820180604052506100b191908101906130f5565b9050610e49818363ffffffff612a3b16565b949350505050565b600480546040805163024ece8960e01b8152905160609384936001600160a01b03169263024ece899281830192600092829003018186803b158015610e9557600080fd5b505afa158015610ea9573d6000803e3d6000fd5b505050506040513d6000823e601f3d908101601f19168201604052610ed19190810190613149565b905060608151604051908082528060200260200182016040528015610f00578160200160208202803883390190505b50905060608251604051908082528060200260200182016040528015610f30578160200160208202803883390190505b50905060608351604051908082528060200260200182016040528015610f60578160200160208202803883390190505b50905060005b845181101561100157848181518110610f7b57fe5b6020026020010151848281518110610f8f57fe5b60200260200101906001600160a01b031690816001600160a01b03168152505087838281518110610fbc57fe5b60200260200101906001600160a01b031690816001600160a01b03168152505086828281518110610fe957fe5b91151560209283029190910190910152600101610f66565b506009546008546040805163fbfa77cf60e01b815290516060936001600160a01b039081169363dc383cab9391169163fbfa77cf91600480820192602092909190829003018186803b15801561105657600080fd5b505afa15801561106a573d6000803e3d6000fd5b505050506040513d601f19601f8201168201806040525061108e91908101906130f5565b6007546040516001600160e01b031960e085901b1681526110c292916001600160a01b031690899089908990600401613456565b60006040518083038186803b1580156110da57600080fd5b505afa1580156110ee573d6000803e3d6000fd5b505050506040513d6000823e601f3d908101601f19168201604052611116919081019061317c565b905060608551604051908082528060200260200182016040528015611145578160200160208202803883390190505b50905060005b865181101561118a5782816009028151811061116357fe5b602002602001015182828151811061117757fe5b602090810291909101015260010161114b565b50955050505050505b92915050565b60006111a3612ee8565b826001600160a01b031663acaec6026040518163ffffffff1660e01b815260040160206040518083038186803b1580156111dc57600080fd5b505afa1580156111f0573d6000803e3d6000fd5b505050506040513d601f19601f8201168201806040525061121491908101906130f5565b6001600160a01b03166101c0820181905261122e906106b9565b60608201526101c081015161124290610d4b565b6040808301829052606083015191909103602083015260048054825163024ece8960e01b815292516001600160a01b039091169263024ece899281810192600092909190829003018186803b15801561129a57600080fd5b505afa1580156112ae573d6000803e3d6000fd5b505050506040513d6000823e601f3d908101601f191682016040526112d69190810190613149565b61022082015260055460408051632d422c2f60e11b815290516001600160a01b0390921691635a84585e91600480820192602092909190829003018186803b15801561132157600080fd5b505afa158015611335573d6000803e3d6000fd5b505050506040513d601f19601f8201168201806040525061135991908101906131cb565b61010082015260048054600754604051630a5c74e560e41b81526001600160a01b039283169363a5c74e509361139193169101613428565b60206040518083038186803b1580156113a957600080fd5b505afa1580156113bd573d6000803e3d6000fd5b505050506040513d601f19601f820116820180604052506113e191908101906131af565b15156001146113f257600d54611478565b600760009054906101000a90046001600160a01b03166001600160a01b031663baba68de6040518163ffffffff1660e01b815260040160206040518083038186803b15801561144057600080fd5b505afa158015611454573d6000803e3d6000fd5b505050506040513d601f19601f8201168201806040525061147891908101906131cb565b6101208201819052600b54108015906114985750600c5481610120015110155b6114b45760405162461bcd60e51b8152600401610d1390613796565b6114bc610aed565b816101600181815250506000836001600160a01b0316638e15f4736040518163ffffffff1660e01b8152600401604080518083038186803b15801561150057600080fd5b505afa158015611514573d6000803e3d6000fd5b505050506040513d601f19601f820116820180604052506115389190810190613374565b60e084018190526101c084015190925061155491506001610e51565b6102608301526060820151600013611dd3576115738260200151612a9f565b60c08301526040820151600012156117645760005b826102600151518110156117585782610220015181815181106115a757fe5b60209081029190910101516001600160a01b03168352604080516002808252606082019092529081602001602082028038833950505061020084018190526101c084015181519091906000906115f957fe5b60200260200101906001600160a01b031690816001600160a01b031681525050826102200151818151811061162a57fe5b602002602001015183610200015160018151811061164457fe5b6001600160a01b0392831660209182029290920101526008546102008501516101c08601516102608701518051939094169363f637b0e3938690811061168657fe5b6020026020010151876102600151868151811061169f57fe5b60200260200101516001600560009054906101000a90046001600160a01b03166116ce8b60e001516000612ab5565b6116f38c61026001518b815181106116e257fe5b60200260200101516012601e612b18565b600e546040518a63ffffffff1660e01b815260040161171a99989796959493929190613601565b600060405180830381600087803b15801561173457600080fd5b505af1158015611748573d6000803e3d6000fd5b5050600190920191506115889050565b50606082015160c08301525b60c082015115611dce5760e082015160c08301516117879163ffffffff6127e116565b61014083018190526101208301516117a5919063ffffffff61281b16565b6101808301526101408201516101208301516101008401516117cc9163ffffffff6127e116565b1115611dce5760005b82610220015151811015611dcc5761018083015115611dc45782610220015181815181106117ff57fe5b6020908102919091018101516001600160a01b039081168552600854604080516303e21fa960e61b81529051919092169263f887ea409260048082019391829003018186803b15801561185157600080fd5b505afa158015611865573d6000803e3d6000fd5b505050506040513d601f19601f8201168201806040525061188991908101906130f5565b6001600160a01b039081166101a0850152600454610220850151805191909216916354dea00a91849081106118ba57fe5b60200260200101516040518263ffffffff1660e01b81526004016118de9190613428565b604080518083038186803b1580156118f557600080fd5b505afa158015611909573d6000803e3d6000fd5b505050506040513d601f19601f8201168201806040525061192d9190810190613374565b60a08501819052608085019190915215611dc4576000611a028461018001516119fd8660800151610cc48860a0015189600001516001600160a01b03166370a08231600560009054906101000a90046001600160a01b03166040518263ffffffff1660e01b81526004016119a19190613428565b60206040518083038186803b1580156119b957600080fd5b505afa1580156119cd573d6000803e3d6000fd5b505050506040513d601f19601f820116820180604052506119f191908101906131cb565b9063ffffffff6127e116565b612b77565b9050600084600001516001600160a01b031663dd62ed3e30876101a001516040518363ffffffff1660e01b8152600401611a3d92919061343c565b60206040518083038186803b158015611a5557600080fd5b505afa158015611a69573d6000803e3d6000fd5b505050506040513d601f19601f82011682018060405250611a8d91908101906131cb565b1115611ab8576101a08401518451611ab8916001600160a01b0390911690600063ffffffff612b8d16565b611af8846101a00151611ae08660a00151610cc48860800151866127e190919063ffffffff16565b86516001600160a01b0316919063ffffffff612b8d16565b60408051600180825281830190925290602080830190803883395050506101e0850152610220840151805183908110611b2d57fe5b6020026020010151846101e00151600081518110611b4757fe5b6001600160a01b039290921660209283029190910182015260408051600180825281830190925291828101908038833950505061024085018190528051829190600090611b9057fe5b6020026020010181815250508361018001518461016001511015611ca457600480546040516309f52cb960e01b81526001600160a01b03909116916309f52cb991611bdd918a9101613428565b60206040518083038186803b158015611bf557600080fd5b505afa158015611c09573d6000803e3d6000fd5b505050506040513d601f19601f82011682018060405250611c2d91908101906130f5565b6007546101e086015161024087015160405163333732bb60e11b81526001600160a01b039485169463666e657694611c719430949290911692889290600401613501565b600060405180830381600087803b158015611c8b57600080fd5b505af1158015611c9f573d6000803e3d6000fd5b505050505b611cc38460a00151610cc48660800151846127e190919063ffffffff16565b9050600860009054906101000a90046001600160a01b03166001600160a01b0316631e9f724b856101e00151866101c00151846000611d11878b61012001518c60a001518d60800151612c53565b6000611d228c60e001516000612ab5565b600e546040518963ffffffff1660e01b8152600401611d489897969594939291906135ab565b600060405180830381600087803b158015611d6257600080fd5b505af1158015611d76573d6000803e3d6000fd5b50505050611dae611d9c8560a00151610cc48760800151856127e190919063ffffffff16565b6101808601519063ffffffff61273416565b6101808501525060006080840181905260a08401525b6001016117d5565b505b6125cd565b6000826060015112156125cd57611ded8260200151612a9f565b60c0830152604082015160001315611f175760005b82610260015151811015611f035760085461022084015180516001600160a01b039092169163c1ba65b9919084908110611e3857fe5b6020026020010151856101c001518661026001518581518110611e5757fe5b60200260200101518761026001518681518110611e7057fe5b60200260200101516000600560009054906101000a90046001600160a01b0316611e9f8b60e001516001612ab5565b600e546040518963ffffffff1660e01b8152600401611ec5989796959493929190613546565b600060405180830381600087803b158015611edf57600080fd5b505af1158015611ef3573d6000803e3d6000fd5b505060019092019150611e029050565b50611f118260600151612a9f565b60c08301525b60c0820151156125cd5760e082015160c0830151611f3a9163ffffffff6127e116565b6101408301819052610120830151611f58919063ffffffff61281b16565b610180830152610140820151610120830151610100840151611f7f9163ffffffff6127e116565b11156125cd5760005b826102200151518110156125cb57610180830151156125c3578261022001518181518110611fb257fe5b6020908102919091018101516001600160a01b039081168552600854604080516303e21fa960e61b81529051919092169263f887ea409260048082019391829003018186803b15801561200457600080fd5b505afa158015612018573d6000803e3d6000fd5b505050506040513d601f19601f8201168201806040525061203c91908101906130f5565b6001600160a01b039081166101a0850152600454610220850151805191909216916354dea00a918490811061206d57fe5b60200260200101516040518263ffffffff1660e01b81526004016120919190613428565b604080518083038186803b1580156120a857600080fd5b505afa1580156120bc573d6000803e3d6000fd5b505050506040513d601f19601f820116820180604052506120e09190810190613374565b60a085018190526080850191909152156125c35760006121548461018001516119fd8660800151610cc48860a0015189600001516001600160a01b03166370a08231600560009054906101000a90046001600160a01b03166040518263ffffffff1660e01b81526004016119a19190613428565b9050600084600001516001600160a01b031663dd62ed3e30876101a001516040518363ffffffff1660e01b815260040161218f92919061343c565b60206040518083038186803b1580156121a757600080fd5b505afa1580156121bb573d6000803e3d6000fd5b505050506040513d601f19601f820116820180604052506121df91908101906131cb565b111561220a576101a0840151845161220a916001600160a01b0390911690600063ffffffff612b8d16565b612232846101a00151611ae08660a00151610cc48860800151866127e190919063ffffffff16565b60408051600180825281830190925290602080830190803883395050506101e08501526040805160028082526060808301845292602083019080388339019050509050846102200151838151811061228657fe5b6020026020010151856101e001516000815181106122a057fe5b60200260200101906001600160a01b031690816001600160a01b03168152505084610220015183815181106122d157fe5b6020026020010151816000815181106122e657fe5b60200260200101906001600160a01b031690816001600160a01b031681525050846101c001518160018151811061231957fe5b6001600160a01b03929092166020928302919091018201526040805160018082528183019092529182810190803883395050506102408601819052805183919060009061236257fe5b602002602001018181525050846101800151856101600151101561247657600480546040516309f52cb960e01b81526001600160a01b03909116916309f52cb9916123af918b9101613428565b60206040518083038186803b1580156123c757600080fd5b505afa1580156123db573d6000803e3d6000fd5b505050506040513d601f19601f820116820180604052506123ff91908101906130f5565b6007546101e087015161024088015160405163333732bb60e11b81526001600160a01b039485169463666e6576946124439430949290911692899290600401613501565b600060405180830381600087803b15801561245d57600080fd5b505af1158015612471573d6000803e3d6000fd5b505050505b6124958560a00151610cc48760800151856127e190919063ffffffff16565b9150600860009054906101000a90046001600160a01b03166001600160a01b0316631e9f724b82876101c00151856124f66124ed8b60800151610cc48d60a001516119f18f60e001518d61281b90919063ffffffff16565b601e6012612b18565b61250f888c61012001518d60a001518e60800151612c53565b60016125208d60e001516001612ab5565b600e546040518963ffffffff1660e01b81526004016125469897969594939291906135ab565b600060405180830381600087803b15801561256057600080fd5b505af1158015612574573d6000803e3d6000fd5b505050506125ac61259a8660a00151610cc48860800151866127e190919063ffffffff16565b6101808701519063ffffffff61273416565b610180860152505060006080840181905260a08401525b600101611f88565b505b5050919050565b60008282018183128015906125e95750838112155b806125fe57506000831280156125fe57508381125b61261a5760405162461bcd60e51b8152600401610d1390613720565b9392505050565b60008183038183128015906126365750838113155b8061264b575060008312801561264b57508381135b61261a5760405162461bcd60e51b8152600401610d139061390e565b60008282121561269e5761269b61268e600a612689868663ffffffff61262116565b612c79565b859063ffffffff61277616565b93505b828213156126ce576126cb6126be600a612689858763ffffffff61262116565b859063ffffffff612a3b16565b93505b509192915050565b60405161272f90849063a9059cbb60e01b906126f89086908690602401613592565b60408051601f198184030181529190526020810180516001600160e01b03166001600160e01b031990931692909217909152612cf5565b505050565b600061261a83836040518060400160405280601e81526020017f536166654d6174683a207375627472616374696f6e206f766572666c6f770000815250612de0565b60008261278557506000611193565b826000191480156127995750600160ff1b82145b156127b65760405162461bcd60e51b8152600401610d13906138c7565b828202828482816127c357fe5b051461261a5760405162461bcd60e51b8152600401610d13906138c7565b6000826127f057506000611193565b828202828482816127fd57fe5b041461261a5760405162461bcd60e51b8152600401610d1390613857565b600061261a83836040518060400160405280601a81526020017f536166654d6174683a206469766973696f6e206279207a65726f000000000000815250612e0c565b60008282018381101561261a5760405162461bcd60e51b8152600401610d13906136e9565b604051630110ceef60e21b81526001600160a01b038216906304433bbc906128ac906004016137c5565b60206040518083038186803b1580156128c457600080fd5b505afa1580156128d8573d6000803e3d6000fd5b505050506040513d601f19601f820116820180604052506128fc91908101906130f5565b600580546001600160a01b0319166001600160a01b03928316179055604051630110ceef60e21b8152908216906304433bbc9061293b906004016136bf565b60206040518083038186803b15801561295357600080fd5b505afa158015612967573d6000803e3d6000fd5b505050506040513d601f19601f8201168201806040525061298b91908101906130f5565b600480546001600160a01b0319166001600160a01b03928316178155604051630110ceef60e21b8152918316916304433bbc916129c8910161382e565b60206040518083038186803b1580156129e057600080fd5b505afa1580156129f4573d6000803e3d6000fd5b505050506040513d601f19601f82011682018060405250612a1891908101906130f5565b600680546001600160a01b0319166001600160a01b039290921691909117905550565b600081612a5a5760405162461bcd60e51b8152600401610d139061399c565b81600019148015612a6e5750600160ff1b83145b15612a8b5760405162461bcd60e51b8152600401610d13906137ed565b6000828481612a9657fe5b05949350505050565b6000808212612aae5781611193565b5060000390565b60008115612aee57612ae76124ed612ada6103e8610cc487600363ffffffff6127e116565b859063ffffffff61285d16565b9050611193565b612ae76124ed612b0b6103e8610cc487600363ffffffff6127e116565b859063ffffffff61273416565b600082821015612b4a57612b47612b3a600a612689868663ffffffff61273416565b859063ffffffff6127e116565b93505b828211156126ce576126cb612b6a600a612689858763ffffffff61273416565b859063ffffffff61281b16565b6000818310612b86578161261a565b5090919050565b801580612c155750604051636eb1769f60e11b81526001600160a01b0384169063dd62ed3e90612bc3903090869060040161343c565b60206040518083038186803b158015612bdb57600080fd5b505afa158015612bef573d6000803e3d6000fd5b505050506040513d601f19601f82011682018060405250612c1391908101906131cb565b155b612c315760405162461bcd60e51b8152600401610d13906139d1565b60405161272f90849063095ea7b360e01b906126f89086908690602401613592565b6000612c706124ed83610cc4866119f18a8a63ffffffff6127e116565b95945050505050565b600081612c8857506001611193565b8160011415612c98575081611193565b6000612caf8461268985600263ffffffff61281b16565b9050612cc1818063ffffffff6127e116565b9050612cd483600263ffffffff612e4316565b60011415612ae757612cec818563ffffffff6127e116565b90509050611193565b612d07826001600160a01b0316612e85565b612d235760405162461bcd60e51b8152600401610d1390613a27565b60006060836001600160a01b031683604051612d3f919061340c565b6000604051808303816000865af19150503d8060008114612d7c576040519150601f19603f3d011682016040523d82523d6000602084013e612d81565b606091505b509150915081612da35760405162461bcd60e51b8152600401610d1390613761565b805115612dda5780806020019051612dbe91908101906131af565b612dda5760405162461bcd60e51b8152600401610d1390613952565b50505050565b60008184841115612e045760405162461bcd60e51b8152600401610d13919061368c565b505050900390565b60008183612e2d5760405162461bcd60e51b8152600401610d13919061368c565b506000838581612e3957fe5b0495945050505050565b600061261a83836040518060400160405280601881526020017f536166654d6174683a206d6f64756c6f206279207a65726f0000000000000000815250612e8b565b3b151590565b60008183612eac5760405162461bcd60e51b8152600401610d13919061368c565b50828481612eb657fe5b06949350505050565b604080516080810190915260008082526020820190815260006020820181905260409091015290565b60405180610280016040528060006001600160a01b0316815260200160008152602001600081526020016000815260200160008152602001600081526020016000815260200160008152602001600081526020016000815260200160008152602001600081526020016000815260200160006001600160a01b0316815260200160006001600160a01b0316815260200160608152602001606081526020016060815260200160608152602001606081525090565b600082601f830112612fac578081fd5b8151612fbf612fba82613ad8565b613ab1565b818152915060208083019084810181840286018201871015612fe057600080fd5b60005b84811015613008578151612ff681613b24565b84529282019290820190600101612fe3565b505050505092915050565b600082601f830112613023578081fd5b8151613031612fba82613ad8565b81815291506020808301908481018184028601820187101561305257600080fd5b60005b8481101561300857815184529282019290820190600101613055565b600082601f830112613081578081fd5b815167ffffffffffffffff811115613097578182fd5b6130aa601f8201601f1916602001613ab1565b91508082528360208285010111156130c157600080fd5b6130d2816020840160208601613af8565b5092915050565b6000602082840312156130ea578081fd5b813561261a81613b24565b600060208284031215613106578081fd5b815161261a81613b24565b60008060408385031215613123578081fd5b823561312e81613b24565b9150602083013561313e81613b39565b809150509250929050565b60006020828403121561315a578081fd5b815167ffffffffffffffff811115613170578182fd5b610e4984828501612f9c565b60006020828403121561318d578081fd5b815167ffffffffffffffff8111156131a3578182fd5b610e4984828501613013565b6000602082840312156131c0578081fd5b815161261a81613b39565b6000602082840312156131dc578081fd5b5051919050565b600080600080600080600060e0888a0312156131fd578283fd5b875167ffffffffffffffff80821115613214578485fd5b6132208b838c01613071565b985060208a0151915080821115613235578485fd5b6132418b838c01612f9c565b975060408a0151915080821115613256578485fd5b6132628b838c01613013565b965060608a0151915080821115613277578485fd5b6132838b838c01613013565b955060808a0151915080821115613298578485fd5b6132a48b838c01613013565b945060a08a01519150808211156132b9578384fd5b6132c58b838c01613013565b935060c08a01519150808211156132da578283fd5b506132e78a828b01612f9c565b91505092959891949750929550565b600060808284031215613307578081fd5b6133116080613ab1565b825161331c81613b24565b815260208301516002811061332f578283fd5b602082015260408301516001600160781b038116811461334d578283fd5b6040820152606083015163ffffffff81168114613368578283fd5b60608201529392505050565b60008060408385031215613386578182fd5b505080516020909101519092909150565b6000815180845260208401935060208301825b828110156133d15781516001600160a01b03168652602095860195909101906001016133aa565b5093949350505050565b6000815180845260208401935060208301825b828110156133d15781518652602095860195909101906001016133ee565b6000825161341e818460208701613af8565b9190910192915050565b6001600160a01b0391909116815260200190565b6001600160a01b0392831681529116602082015260400190565b6001600160a01b0386811682528516602082015260a06040820181905260009061348290830186613397565b82810360608401526134948186613397565b838103608085015284518082526020918201925090850190835b818110156134ce57825115158452602093840193909201916001016134ae565b50919998505050505050505050565b6001600160a01b039384168152919092166020820152604081019190915260600190565b6001600160a01b038681168252851660208201526040810184905260a06060820181905260009061353490830185613397565b828103608084015261059d81856133db565b6001600160a01b039889168152968816602088015260408701959095526060860193909352901515608085015290931660a083015260c082019290925260e08101919091526101000190565b6001600160a01b03929092168252602082015260400190565b60006101008083526135bf8184018c613397565b6001600160a01b039a909a1660208401525050604081019690965260608601949094526080850192909252151560a084015260c083015260e090910152919050565b60006101208083526136158184018d613397565b6001600160a01b039b8c166020850152604084019a909a525050606081019690965293151560808601529190951660a084015260c083019490945260e08201939093526101000191909152919050565b60006020825261261a60208301846133db565b901515815260200190565b90815260200190565b60006020825282518060208401526136ab816040850160208701613af8565b601f01601f19169190910160400192915050565b60208082526010908201526f50726f746f636f6c53657474696e677360801b604082015260600190565b6020808252601b908201527f536166654d6174683a206164646974696f6e206f766572666c6f770000000000604082015260600190565b60208082526021908201527f5369676e6564536166654d6174683a206164646974696f6e206f766572666c6f6040820152607760f81b606082015260800190565b6020808252818101527f5361666545524332303a206c6f772d6c6576656c2063616c6c206661696c6564604082015260600190565b6020808252601590820152746c65766572616765206f7574206f662072616e676560581b604082015260600190565b6020808252600e908201526d21b932b234ba283937bb34b232b960911b604082015260600190565b60208082526021908201527f5369676e6564536166654d6174683a206469766973696f6e206f766572666c6f6040820152607760f81b606082015260800190565b6020808252600f908201526e4f7074696f6e7345786368616e676560881b604082015260600190565b60208082526021908201527f536166654d6174683a206d756c7469706c69636174696f6e206f766572666c6f6040820152607760f81b606082015260800190565b6020808252601590820152741a5b9a5d1a585b1a5e985d1a5bdb881b1bd8dad959605a1b604082015260600190565b60208082526027908201527f5369676e6564536166654d6174683a206d756c7469706c69636174696f6e206f604082015266766572666c6f7760c81b606082015260800190565b60208082526024908201527f5369676e6564536166654d6174683a207375627472616374696f6e206f766572604082015263666c6f7760e01b606082015260800190565b6020808252602a908201527f5361666545524332303a204552433230206f7065726174696f6e20646964206e6040820152691bdd081cdd58d8d9595960b21b606082015260800190565b6020808252818101527f5369676e6564536166654d6174683a206469766973696f6e206279207a65726f604082015260600190565b60208082526036908201527f5361666545524332303a20617070726f76652066726f6d206e6f6e2d7a65726f60408201527520746f206e6f6e2d7a65726f20616c6c6f77616e636560501b606082015260800190565b6020808252601f908201527f5361666545524332303a2063616c6c20746f206e6f6e2d636f6e747261637400604082015260600190565b82516001600160a01b03168152602083015160a082019060028110613a7f57fe5b60208301526040848101516001600160781b03169083015260609384015163ffffffff16938201939093526080015290565b60405181810167ffffffffffffffff81118282101715613ad057600080fd5b604052919050565b600067ffffffffffffffff821115613aee578081fd5b5060209081020190565b60005b83811015613b13578181015183820152602001613afb565b83811115612dda5750506000910152565b6001600160a01b0381168114610d2a57600080fd5b8015158114610d2a57600080fdfea2646970667358221220eaa256b8d6414e74108bc1e0b8adaa20fc3dc75559297eb2d4e33f7aee184f3764736f6c63430006000033a264697066735822122085441f9b11cff9eab5755a3bf660f9be23f927ee18cb90fb66679f78ae11f00a64736f6c63430006000033"
}