{
  "contractName": "OptionsExchange",
  "abi": [
    {
      "inputs": [],
      "stateMutability": "nonpayable",
      "type": "constructor"
    },
    {
      "anonymous": false,
      "inputs": [
        {
          "indexed": true,
          "internalType": "address",
          "name": "owner",
          "type": "address"
        },
        {
          "indexed": true,
          "internalType": "address",
          "name": "spender",
          "type": "address"
        },
        {
          "indexed": false,
          "internalType": "uint256",
          "name": "value",
          "type": "uint256"
        }
      ],
      "name": "Approval",
      "type": "event"
    },
    {
      "anonymous": false,
      "inputs": [
        {
          "indexed": true,
          "internalType": "address",
          "name": "feed",
          "type": "address"
        },
        {
          "indexed": true,
          "internalType": "address",
          "name": "sender",
          "type": "address"
        }
      ],
      "name": "CreateDexFeed",
      "type": "event"
    },
    {
      "anonymous": false,
      "inputs": [
        {
          "indexed": true,
          "internalType": "address",
          "name": "token",
          "type": "address"
        },
        {
          "indexed": true,
          "internalType": "address",
          "name": "sender",
          "type": "address"
        }
      ],
      "name": "CreatePool",
      "type": "event"
    },
    {
      "anonymous": false,
      "inputs": [
        {
          "indexed": true,
          "internalType": "address",
          "name": "token",
          "type": "address"
        },
        {
          "indexed": true,
          "internalType": "address",
          "name": "sender",
          "type": "address"
        }
      ],
      "name": "CreateSymbol",
      "type": "event"
    },
    {
      "anonymous": false,
      "inputs": [
        {
          "indexed": true,
          "internalType": "address",
          "name": "from",
          "type": "address"
        },
        {
          "indexed": true,
          "internalType": "address",
          "name": "to",
          "type": "address"
        },
        {
          "indexed": false,
          "internalType": "uint256",
          "name": "value",
          "type": "uint256"
        }
      ],
      "name": "Transfer",
      "type": "event"
    },
    {
      "anonymous": false,
      "inputs": [
        {
          "indexed": true,
          "internalType": "address",
          "name": "from",
          "type": "address"
        },
        {
          "indexed": false,
          "internalType": "uint256",
          "name": "value",
          "type": "uint256"
        }
      ],
      "name": "WithdrawTokens",
      "type": "event"
    },
    {
      "anonymous": false,
      "inputs": [
        {
          "indexed": true,
          "internalType": "address",
          "name": "token",
          "type": "address"
        },
        {
          "indexed": true,
          "internalType": "address",
          "name": "issuer",
          "type": "address"
        },
        {
          "indexed": true,
          "internalType": "address",
          "name": "onwer",
          "type": "address"
        },
        {
          "indexed": false,
          "internalType": "uint256",
          "name": "volume",
          "type": "uint256"
        }
      ],
      "name": "WriteOptions",
      "type": "event"
    },
    {
      "inputs": [],
      "name": "DOMAIN_SEPARATOR",
      "outputs": [
        {
          "internalType": "bytes32",
          "name": "",
          "type": "bytes32"
        }
      ],
      "stateMutability": "view",
      "type": "function"
    },
    {
      "inputs": [],
      "name": "PERMIT_TYPEHASH",
      "outputs": [
        {
          "internalType": "bytes32",
          "name": "",
          "type": "bytes32"
        }
      ],
      "stateMutability": "view",
      "type": "function"
    },
    {
      "inputs": [
        {
          "internalType": "address",
          "name": "owner",
          "type": "address"
        },
        {
          "internalType": "address",
          "name": "spender",
          "type": "address"
        }
      ],
      "name": "allowance",
      "outputs": [
        {
          "internalType": "uint256",
          "name": "",
          "type": "uint256"
        }
      ],
      "stateMutability": "view",
      "type": "function"
    },
    {
      "inputs": [
        {
          "internalType": "address",
          "name": "spender",
          "type": "address"
        },
        {
          "internalType": "uint256",
          "name": "value",
          "type": "uint256"
        }
      ],
      "name": "approve",
      "outputs": [
        {
          "internalType": "bool",
          "name": "",
          "type": "bool"
        }
      ],
      "stateMutability": "nonpayable",
      "type": "function"
    },
    {
      "inputs": [
        {
          "internalType": "address",
          "name": "",
          "type": "address"
        }
      ],
      "name": "collateral",
      "outputs": [
        {
          "internalType": "uint256",
          "name": "",
          "type": "uint256"
        }
      ],
      "stateMutability": "view",
      "type": "function"
    },
    {
      "inputs": [],
      "name": "decimals",
      "outputs": [
        {
          "internalType": "uint8",
          "name": "",
          "type": "uint8"
        }
      ],
      "stateMutability": "view",
      "type": "function"
    },
    {
      "inputs": [],
      "name": "getImplementation",
      "outputs": [
        {
          "internalType": "address",
          "name": "",
          "type": "address"
        }
      ],
      "stateMutability": "view",
      "type": "function"
    },
    {
      "inputs": [],
      "name": "getOwner",
      "outputs": [
        {
          "internalType": "address",
          "name": "",
          "type": "address"
        }
      ],
      "stateMutability": "view",
      "type": "function"
    },
    {
      "inputs": [
        {
          "internalType": "contract Deployer",
          "name": "deployer",
          "type": "address"
        }
      ],
      "name": "initializeAndLock",
      "outputs": [],
      "stateMutability": "nonpayable",
      "type": "function"
    },
    {
      "inputs": [
        {
          "internalType": "address",
          "name": "",
          "type": "address"
        }
      ],
      "name": "nonces",
      "outputs": [
        {
          "internalType": "uint256",
          "name": "",
          "type": "uint256"
        }
      ],
      "stateMutability": "view",
      "type": "function"
    },
    {
      "inputs": [
        {
          "internalType": "address",
          "name": "owner",
          "type": "address"
        },
        {
          "internalType": "address",
          "name": "spender",
          "type": "address"
        },
        {
          "internalType": "uint256",
          "name": "value",
          "type": "uint256"
        },
        {
          "internalType": "uint256",
          "name": "deadline",
          "type": "uint256"
        },
        {
          "internalType": "uint8",
          "name": "v",
          "type": "uint8"
        },
        {
          "internalType": "bytes32",
          "name": "r",
          "type": "bytes32"
        },
        {
          "internalType": "bytes32",
          "name": "s",
          "type": "bytes32"
        }
      ],
      "name": "permit",
      "outputs": [],
      "stateMutability": "nonpayable",
      "type": "function"
    },
    {
      "inputs": [
        {
          "internalType": "uint256",
          "name": "",
          "type": "uint256"
        }
      ],
      "name": "poolSymbols",
      "outputs": [
        {
          "internalType": "string",
          "name": "",
          "type": "string"
        }
      ],
      "stateMutability": "view",
      "type": "function"
    },
    {
      "inputs": [],
      "name": "volumeBase",
      "outputs": [
        {
          "internalType": "uint256",
          "name": "",
          "type": "uint256"
        }
      ],
      "stateMutability": "view",
      "type": "function"
    },
    {
      "inputs": [],
      "name": "name",
      "outputs": [
        {
          "internalType": "string",
          "name": "",
          "type": "string"
        }
      ],
      "stateMutability": "view",
      "type": "function"
    },
    {
      "inputs": [],
      "name": "symbol",
      "outputs": [
        {
          "internalType": "string",
          "name": "",
          "type": "string"
        }
      ],
      "stateMutability": "view",
      "type": "function"
    },
    {
      "inputs": [],
      "name": "totalSupply",
      "outputs": [
        {
          "internalType": "uint256",
          "name": "",
          "type": "uint256"
        }
      ],
      "stateMutability": "view",
      "type": "function"
    },
    {
      "inputs": [
        {
          "internalType": "address",
          "name": "to",
          "type": "address"
        },
        {
          "internalType": "address",
          "name": "token",
          "type": "address"
        },
        {
          "internalType": "uint256",
          "name": "value",
          "type": "uint256"
        }
      ],
      "name": "depositTokens",
      "outputs": [],
      "stateMutability": "nonpayable",
      "type": "function"
    },
    {
      "inputs": [
        {
          "internalType": "address",
          "name": "to",
          "type": "address"
        },
        {
          "internalType": "address",
          "name": "token",
          "type": "address"
        },
        {
          "internalType": "uint256",
          "name": "value",
          "type": "uint256"
        },
        {
          "internalType": "uint256",
          "name": "deadline",
          "type": "uint256"
        },
        {
          "internalType": "uint8",
          "name": "v",
          "type": "uint8"
        },
        {
          "internalType": "bytes32",
          "name": "r",
          "type": "bytes32"
        },
        {
          "internalType": "bytes32",
          "name": "s",
          "type": "bytes32"
        }
      ],
      "name": "depositTokens",
      "outputs": [],
      "stateMutability": "nonpayable",
      "type": "function"
    },
    {
      "inputs": [
        {
          "internalType": "address",
          "name": "owner",
          "type": "address"
        }
      ],
      "name": "balanceOf",
      "outputs": [
        {
          "internalType": "uint256",
          "name": "",
          "type": "uint256"
        }
      ],
      "stateMutability": "view",
      "type": "function"
    },
    {
      "inputs": [
        {
          "internalType": "address",
          "name": "to",
          "type": "address"
        },
        {
          "internalType": "uint256",
          "name": "value",
          "type": "uint256"
        }
      ],
      "name": "transfer",
      "outputs": [
        {
          "internalType": "bool",
          "name": "",
          "type": "bool"
        }
      ],
      "stateMutability": "nonpayable",
      "type": "function"
    },
    {
      "inputs": [
        {
          "internalType": "address",
          "name": "from",
          "type": "address"
        },
        {
          "internalType": "address",
          "name": "to",
          "type": "address"
        },
        {
          "internalType": "uint256",
          "name": "value",
          "type": "uint256"
        }
      ],
      "name": "transferFrom",
      "outputs": [
        {
          "internalType": "bool",
          "name": "",
          "type": "bool"
        }
      ],
      "stateMutability": "nonpayable",
      "type": "function"
    },
    {
      "inputs": [
        {
          "internalType": "address",
          "name": "to",
          "type": "address"
        },
        {
          "internalType": "uint256",
          "name": "value",
          "type": "uint256"
        }
      ],
      "name": "transferBalance",
      "outputs": [],
      "stateMutability": "nonpayable",
      "type": "function"
    },
    {
      "inputs": [
        {
          "internalType": "address",
          "name": "from",
          "type": "address"
        },
        {
          "internalType": "address",
          "name": "to",
          "type": "address"
        },
        {
          "internalType": "uint256",
          "name": "value",
          "type": "uint256"
        }
      ],
      "name": "transferBalance",
      "outputs": [],
      "stateMutability": "nonpayable",
      "type": "function"
    },
    {
      "inputs": [
        {
          "internalType": "address",
          "name": "owner",
          "type": "address"
        },
        {
          "internalType": "address",
          "name": "_tk",
          "type": "address"
        }
      ],
      "name": "underlyingBalance",
      "outputs": [
        {
          "internalType": "uint256",
          "name": "",
          "type": "uint256"
        }
      ],
      "stateMutability": "view",
      "type": "function"
    },
    {
      "inputs": [
        {
          "internalType": "uint256",
          "name": "value",
          "type": "uint256"
        }
      ],
      "name": "withdrawTokens",
      "outputs": [],
      "stateMutability": "nonpayable",
      "type": "function"
    },
    {
      "inputs": [
        {
          "internalType": "address[]",
          "name": "tokensInOrder",
          "type": "address[]"
        },
        {
          "internalType": "uint256[]",
          "name": "amountsOutInOrder",
          "type": "uint256[]"
        }
      ],
      "name": "withdrawTokens",
      "outputs": [],
      "stateMutability": "nonpayable",
      "type": "function"
    },
    {
      "inputs": [
        {
          "internalType": "address",
          "name": "udlFeed",
          "type": "address"
        },
        {
          "internalType": "enum IOptionsExchange.OptionType",
          "name": "optType",
          "type": "uint8"
        },
        {
          "internalType": "uint256",
          "name": "strike",
          "type": "uint256"
        },
        {
          "internalType": "uint256",
          "name": "maturity",
          "type": "uint256"
        }
      ],
      "name": "createSymbol",
      "outputs": [
        {
          "internalType": "address",
          "name": "tk",
          "type": "address"
        }
      ],
      "stateMutability": "nonpayable",
      "type": "function"
    },
    {
      "inputs": [
        {
          "internalType": "string",
          "name": "nameSuffix",
          "type": "string"
        },
        {
          "internalType": "string",
          "name": "symbolSuffix",
          "type": "string"
        }
      ],
      "name": "createPool",
      "outputs": [
        {
          "internalType": "address",
          "name": "pool",
          "type": "address"
        }
      ],
      "stateMutability": "nonpayable",
      "type": "function"
    },
    {
      "inputs": [],
      "name": "totalPoolSymbols",
      "outputs": [
        {
          "internalType": "uint256",
          "name": "",
          "type": "uint256"
        }
      ],
      "stateMutability": "view",
      "type": "function"
    },
    {
      "inputs": [
        {
          "internalType": "string",
          "name": "poolSymbol",
          "type": "string"
        }
      ],
      "name": "getPoolAddress",
      "outputs": [
        {
          "internalType": "address",
          "name": "",
          "type": "address"
        }
      ],
      "stateMutability": "view",
      "type": "function"
    },
    {
      "inputs": [
        {
          "internalType": "address",
          "name": "underlying",
          "type": "address"
        },
        {
          "internalType": "address",
          "name": "stable",
          "type": "address"
        },
        {
          "internalType": "address",
          "name": "dexTokenPair",
          "type": "address"
        }
      ],
      "name": "createDexFeed",
      "outputs": [
        {
          "internalType": "address",
          "name": "",
          "type": "address"
        }
      ],
      "stateMutability": "nonpayable",
      "type": "function"
    },
    {
      "inputs": [
        {
          "internalType": "address",
          "name": "dexTokenPair",
          "type": "address"
        }
      ],
      "name": "getDexFeedAddress",
      "outputs": [
        {
          "internalType": "address",
          "name": "",
          "type": "address"
        }
      ],
      "stateMutability": "view",
      "type": "function"
    },
    {
      "inputs": [
        {
          "components": [
            {
              "internalType": "string[]",
              "name": "symbols",
              "type": "string[]"
            },
            {
              "internalType": "uint256[]",
              "name": "volume",
              "type": "uint256[]"
            },
            {
              "internalType": "bool[]",
              "name": "isShort",
              "type": "bool[]"
            },
            {
              "internalType": "bool[]",
              "name": "isCovered",
              "type": "bool[]"
            },
            {
              "internalType": "address[]",
              "name": "poolAddrs",
              "type": "address[]"
            },
            {
              "internalType": "address[]",
              "name": "paymentTokens",
              "type": "address[]"
            }
          ],
          "internalType": "struct IOptionsExchange.OpenExposureInputs",
          "name": "oEi",
          "type": "tuple"
        },
        {
          "internalType": "address",
          "name": "to",
          "type": "address"
        }
      ],
      "name": "openExposure",
      "outputs": [],
      "stateMutability": "nonpayable",
      "type": "function"
    },
    {
      "inputs": [
        {
          "internalType": "string",
          "name": "symbol",
          "type": "string"
        },
        {
          "internalType": "address",
          "name": "from",
          "type": "address"
        },
        {
          "internalType": "address",
          "name": "to",
          "type": "address"
        },
        {
          "internalType": "uint256",
          "name": "value",
          "type": "uint256"
        }
      ],
      "name": "transferOwnership",
      "outputs": [],
      "stateMutability": "nonpayable",
      "type": "function"
    },
    {
      "inputs": [
        {
          "internalType": "address",
          "name": "owner",
          "type": "address"
        },
        {
          "internalType": "uint256",
          "name": "udl",
          "type": "uint256"
        },
        {
          "internalType": "uint256",
          "name": "coll",
          "type": "uint256"
        }
      ],
      "name": "release",
      "outputs": [],
      "stateMutability": "nonpayable",
      "type": "function"
    },
    {
      "inputs": [
        {
          "internalType": "address",
          "name": "owner",
          "type": "address"
        },
        {
          "internalType": "address",
          "name": "_tk",
          "type": "address"
        }
      ],
      "name": "cleanUp",
      "outputs": [],
      "stateMutability": "nonpayable",
      "type": "function"
    },
    {
      "inputs": [
        {
          "internalType": "address",
          "name": "owner",
          "type": "address"
        }
      ],
      "name": "calcSurplus",
      "outputs": [
        {
          "internalType": "uint256",
          "name": "",
          "type": "uint256"
        }
      ],
      "stateMutability": "view",
      "type": "function"
    },
    {
      "inputs": [
        {
          "internalType": "address",
          "name": "owner",
          "type": "address"
        }
      ],
      "name": "setCollateral",
      "outputs": [],
      "stateMutability": "nonpayable",
      "type": "function"
    },
    {
      "inputs": [
        {
          "internalType": "address",
          "name": "owner",
          "type": "address"
        },
        {
          "internalType": "bool",
          "name": "is_regular",
          "type": "bool"
        }
      ],
      "name": "calcCollateral",
      "outputs": [
        {
          "internalType": "uint256",
          "name": "",
          "type": "uint256"
        }
      ],
      "stateMutability": "view",
      "type": "function"
    },
    {
      "inputs": [
        {
          "internalType": "address",
          "name": "udlFeed",
          "type": "address"
        },
        {
          "internalType": "uint256",
          "name": "volume",
          "type": "uint256"
        },
        {
          "internalType": "enum IOptionsExchange.OptionType",
          "name": "optType",
          "type": "uint8"
        },
        {
          "internalType": "uint256",
          "name": "strike",
          "type": "uint256"
        },
        {
          "internalType": "uint256",
          "name": "maturity",
          "type": "uint256"
        }
      ],
      "name": "calcCollateral",
      "outputs": [
        {
          "internalType": "uint256",
          "name": "",
          "type": "uint256"
        }
      ],
      "stateMutability": "view",
      "type": "function"
    },
    {
      "inputs": [
        {
          "internalType": "address",
          "name": "owner",
          "type": "address"
        }
      ],
      "name": "calcExpectedPayout",
      "outputs": [
        {
          "internalType": "int256",
          "name": "payout",
          "type": "int256"
        }
      ],
      "stateMutability": "view",
      "type": "function"
    },
    {
      "inputs": [
        {
          "internalType": "address",
          "name": "_tk",
          "type": "address"
        }
      ],
      "name": "calcIntrinsicValue",
      "outputs": [
        {
          "internalType": "int256",
          "name": "",
          "type": "int256"
        }
      ],
      "stateMutability": "view",
      "type": "function"
    },
    {
      "inputs": [
        {
          "internalType": "address",
          "name": "udlFeed",
          "type": "address"
        },
        {
          "internalType": "enum IOptionsExchange.OptionType",
          "name": "optType",
          "type": "uint8"
        },
        {
          "internalType": "uint256",
          "name": "strike",
          "type": "uint256"
        },
        {
          "internalType": "uint256",
          "name": "maturity",
          "type": "uint256"
        }
      ],
      "name": "calcIntrinsicValue",
      "outputs": [
        {
          "internalType": "int256",
          "name": "",
          "type": "int256"
        }
      ],
      "stateMutability": "view",
      "type": "function"
    },
    {
      "inputs": [
        {
          "internalType": "string",
          "name": "symbol",
          "type": "string"
        }
      ],
      "name": "getUnderlyingPrice",
      "outputs": [
        {
          "internalType": "int256",
          "name": "answer",
          "type": "int256"
        }
      ],
      "stateMutability": "view",
      "type": "function"
    },
    {
      "inputs": [
        {
          "internalType": "string",
          "name": "symbol",
          "type": "string"
        }
      ],
      "name": "resolveToken",
      "outputs": [
        {
          "internalType": "address",
          "name": "",
          "type": "address"
        }
      ],
      "stateMutability": "view",
      "type": "function"
    },
    {
      "inputs": [
        {
          "internalType": "address",
          "name": "udlFeed",
          "type": "address"
        }
      ],
      "name": "getExchangeFeeds",
      "outputs": [
        {
          "components": [
            {
              "internalType": "uint120",
              "name": "lowerVol",
              "type": "uint120"
            },
            {
              "internalType": "uint120",
              "name": "upperVol",
              "type": "uint120"
            }
          ],
          "internalType": "struct IOptionsExchange.FeedData",
          "name": "",
          "type": "tuple"
        }
      ],
      "stateMutability": "view",
      "type": "function"
    },
    {
      "inputs": [
        {
          "internalType": "address",
          "name": "tkAddr",
          "type": "address"
        }
      ],
      "name": "getOptionData",
      "outputs": [
        {
          "components": [
            {
              "internalType": "address",
              "name": "udlFeed",
              "type": "address"
            },
            {
              "internalType": "enum IOptionsExchange.OptionType",
              "name": "_type",
              "type": "uint8"
            },
            {
              "internalType": "uint120",
              "name": "strike",
              "type": "uint120"
            },
            {
              "internalType": "uint32",
              "name": "maturity",
              "type": "uint32"
            }
          ],
          "internalType": "struct IOptionsExchange.OptionData",
          "name": "",
          "type": "tuple"
        }
      ],
      "stateMutability": "view",
      "type": "function"
    },
    {
      "inputs": [
        {
          "internalType": "address",
          "name": "owner",
          "type": "address"
        }
      ],
      "name": "getBook",
      "outputs": [
        {
          "internalType": "string",
          "name": "symbols",
          "type": "string"
        },
        {
          "internalType": "address[]",
          "name": "tokens",
          "type": "address[]"
        },
        {
          "internalType": "uint256[]",
          "name": "holding",
          "type": "uint256[]"
        },
        {
          "internalType": "uint256[]",
          "name": "written",
          "type": "uint256[]"
        },
        {
          "internalType": "uint256[]",
          "name": "uncovered",
          "type": "uint256[]"
        },
        {
          "internalType": "int256[]",
          "name": "iv",
          "type": "int256[]"
        },
        {
          "internalType": "address[]",
          "name": "underlying",
          "type": "address[]"
        }
      ],
      "stateMutability": "view",
      "type": "function"
    },
    {
      "inputs": [
        {
          "components": [
            {
              "internalType": "address",
              "name": "udlFeed",
              "type": "address"
            },
            {
              "internalType": "enum IOptionsExchange.OptionType",
              "name": "_type",
              "type": "uint8"
            },
            {
              "internalType": "uint120",
              "name": "strike",
              "type": "uint120"
            },
            {
              "internalType": "uint32",
              "name": "maturity",
              "type": "uint32"
            }
          ],
          "internalType": "struct IOptionsExchange.OptionData",
          "name": "opt",
          "type": "tuple"
        }
      ],
      "name": "getOptionSymbol",
      "outputs": [
        {
          "internalType": "string",
          "name": "symbol",
          "type": "string"
        }
      ],
      "stateMutability": "view",
      "type": "function"
    },
    {
      "inputs": [
        {
          "internalType": "address",
          "name": "udlFeed",
          "type": "address"
        },
        {
          "internalType": "enum IOptionsExchange.OptionType",
          "name": "optType",
          "type": "uint8"
        },
        {
          "internalType": "uint256",
          "name": "strike",
          "type": "uint256"
        },
        {
          "internalType": "uint256",
          "name": "maturity",
          "type": "uint256"
        }
      ],
      "name": "getOptionSymbol",
      "outputs": [
        {
          "internalType": "string",
          "name": "symbol",
          "type": "string"
        }
      ],
      "stateMutability": "view",
      "type": "function"
    }
  ],
  "bytecode": "0x60806040523480156200001157600080fd5b50604080518082018252601781527f44654669204f7074696f6e732044414f20446f6c6c61720000000000000000006020820152905146906200005490620000d8565b604080519182900382208451602080870191909120848401845260018552603160f81b948201949094529151620000b49391927fc89efdaa54c0f20c7adf612882df0950f5a951637e0307cdcb4c672f298b8bc691869130910162000142565b6040516020818303038152906040528051906020012060038190555050506200016e565b7f454950373132446f6d61696e28737472696e67206e616d652c737472696e672081527f76657273696f6e2c75696e7432353620636861696e49642c6164647265737320602082015271766572696679696e67436f6e74726163742960701b604082015260520190565b9485526020850193909352604084019190915260608301526001600160a01b0316608082015260a00190565b616198806200017e6000396000f3fe608060405234801561001057600080fd5b50600436106102d65760003560e01c80638973288c11610182578063bd13a803116100e9578063dbdd6959116100a2578063ef38eaf11161007c578063ef38eaf114610630578063f041b17d14610656578063f297be6614610676578063fc5eb0df14610689576102d6565b8063dbdd6959146105f7578063dd62ed3e1461060a578063edb5fd4f1461061d576102d6565b8063bd13a80314610583578063d505accf14610596578063d55250c7146105a9578063d68818c2146105c9578063d9537cdf146105d1578063daa74181146105e4576102d6565b8063a606b94a1161013b578063a606b94a1461051c578063a9059cbb1461052f578063aaf10f4214610542578063ad10ccaf1461054a578063b434e9d61461055d578063b733263314610570576102d6565b80638973288c146104c057806389e14608146104d35780638c922b63146104e657806395d89b41146104f9578063a53b004114610501578063a5fdc5de14610509576102d6565b80634fdf602c116102415780636d7f2895116101fa5780637ecebe00116101d45780637ecebe001461047f57806383a7e7e114610492578063886abef5146104a5578063893d20e8146104b8576102d6565b80636d7f28951461044657806370a082311461045957806376043b371461046c576102d6565b80634fdf602c146103c7578063504f5322146103da57806356a6d9ef146103fa5780635c1bfb321461040d5780635ea81a321461042057806368d4f79d14610433576102d6565b806330adf81f1161029357806330adf81f14610369578063313ce56714610371578063315a095d146103865780633644e5151461039957806339dc5ef2146103a1578063439fa088146103b4576102d6565b806302c23074146102db57806306fdde0314610304578063095ea7b31461031957806316be637a1461033957806318160ddd1461034e57806323b872dd14610356575b600080fd5b6102ee6102e9366004614db5565b61069c565b6040516102fb91906158bb565b60405180910390f35b61030c610722565b6040516102fb919061593d565b61032c610327366004614f94565b61075a565b6040516102fb91906158b0565b61034c610347366004615121565b61076e565b005b6102ee610a40565b61032c610364366004614e6f565b610ac2565b6102ee610c0c565b610379610c30565b6040516102fb9190616074565b61034c610394366004615403565b610c35565b6102ee610d05565b61034c6103af366004614e6f565b610d0b565b61034c6103c2366004614eaf565b610d9b565b6102ee6103d5366004614f1f565b610e19565b6103ed6103e8366004614f4c565b610e9c565b6040516102fb91906156b9565b61034c610408366004614f94565b611366565b61034c61041b366004614db5565b6113d9565b6103ed61042e36600461518f565b61140a565b6102ee610441366004614db5565b6115fa565b6102ee6104543660046150e1565b611799565b6102ee610467366004614db5565b6119c8565b61030c61047a366004615403565b6119f9565b6102ee61048d366004614db5565b611a9f565b6102ee6104a0366004614f4c565b611ab1565b61034c6104b3366004614db5565b611bd0565b6103ed611c6f565b6103ed6104ce366004614e25565b611c7e565b6103ed6104e1366004614db5565b611d9f565b6103ed6104f43660046150e1565b611dbd565b61030c611e0a565b6102ee611e2e565b6102ee610517366004614db5565b611e34565b61034c61052a366004614e6f565b611e46565b61032c61053d366004614f94565b611f80565b6103ed612004565b61030c610558366004615388565b612013565b6102ee61056b366004614fbf565b612040565b61034c61057e366004614ded565b612162565b61034c610591366004615044565b612292565b61034c6105a4366004614eaf565b6123aa565b6105bc6105b7366004614db5565b61251a565b6040516102fb9190615fc5565b6102ee612564565b6102ee6105df366004614db5565b61256a565b6103ed6105f23660046150e1565b6126a4565b61034c610605366004615259565b6126d9565b6102ee610618366004614ded565b612c06565b61030c61062b366004614f4c565b612c31565b61064361063e366004614db5565b612d33565b6040516102fb979695949392919061597a565b610669610664366004614db5565b613328565b6040516102fb9190615fe8565b61034c610684366004615010565b6133b4565b6102ee610697366004614ded565b6136c6565b600d5460405162b08c1d60e21b81526000916001600160a01b0316906302c23074906106cc9085906004016156b9565b60206040518083038186803b1580156106e457600080fd5b505afa1580156106f8573d6000803e3d6000fd5b505050506040513d601f19601f8201168201806040525061071c91908101906150c9565b92915050565b60408051808201909152601781527f44654669204f7074696f6e732044414f20446f6c6c617200000000000000000060208201525b90565b60006107673384846136f9565b9392505050565b336001600160a01b03166015868660405161078a9291906155d3565b908152604051908190036020019020546001600160a01b0316146107c95760405162461bcd60e51b81526004016107c090615f57565b60405180910390fd5b60405163d0acc58f60e01b81523390819063d0acc58f906107ee9087906004016156b9565b60206040518083038186803b15801561080657600080fd5b505afa15801561081a573d6000803e3d6000fd5b505050506040513d601f19601f8201168201806040525061083e91908101906150c9565b1580156108c457506040516370a0823160e01b81526001600160a01b038216906370a08231906108729087906004016156b9565b60206040518083038186803b15801561088a57600080fd5b505afa15801561089e573d6000803e3d6000fd5b505050506040513d601f19601f820116820180604052506108c291908101906150c9565b155b156108ed576001600160a01b03841660009081526013602052604090206108eb903361374b565b505b60405163d0acc58f60e01b81526001600160a01b0382169063d0acc58f906109199086906004016156b9565b60206040518083038186803b15801561093157600080fd5b505afa158015610945573d6000803e3d6000fd5b505050506040513d601f19601f8201168201806040525061096991908101906150c9565b1580156109f157506040516370a0823160e01b815282906001600160a01b038316906370a082319061099f9087906004016156b9565b60206040518083038186803b1580156109b757600080fd5b505afa1580156109cb573d6000803e3d6000fd5b505050506040513d601f19601f820116820180604052506109ef91908101906150c9565b145b15610a2f576001600160a01b03831660009081526013602090815260408220805460018101825590835291200180546001600160a01b031916331790555b610a3884613831565b505050505050565b600b54604080516312b5834960e01b815290516000926001600160a01b0316916312b58349916004808301926020929190829003018186803b158015610a8557600080fd5b505afa158015610a99573d6000803e3d6000fd5b505050506040513d601f19601f82011682018060405250610abd91908101906150c9565b905090565b6001600160a01b0383166000908152600160209081526040808320338452909152812054828110610b2657610afd818463ffffffff6138e516565b6001600160a01b0386166000908152600160209081526040808320338452909152902055610b87565b600b546040516311f3bc9760e11b81526001600160a01b03909116906323e7792e90610b569033906004016156b9565b60006040518083038186803b158015610b6e57600080fd5b505afa158015610b82573d6000803e3d6000fd5b505050505b600b546040516353035ca560e11b81526001600160a01b039091169063a606b94a90610bbb908890889088906004016156e7565b600060405180830381600087803b158015610bd557600080fd5b505af1158015610be9573d6000803e3d6000fd5b50505050610bf685613831565b610c01858585613927565b506001949350505050565b7f6e71edae12b1b97f4d1f60370fef10105fa2faae0126114a169c64845d6126c981565b601290565b610c3e3361256a565b811115610c5d5760405162461bcd60e51b81526004016107c090615b36565b600b546040516306b091f960e01b81526001600160a01b03909116906306b091f990610c8f903390859060040161574c565b600060405180830381600087803b158015610ca957600080fd5b505af1158015610cbd573d6000803e3d6000fd5b50505050336001600160a01b03167f680f2e4f4032ebf1774e8cdbaddcb1b617a5a606411c8ca96257ada338d3833c82604051610cfa91906158bb565b60405180910390a250565b60035481565b600b548290610d2f906001600160a01b03808416913391168563ffffffff61397716565b600b546040516334ef2a2160e21b81526001600160a01b039091169063d3bca88490610d63908790879087906004016156e7565b600060405180830381600087803b158015610d7d57600080fd5b505af1158015610d91573d6000803e3d6000fd5b5050505050505050565b60405163d505accf60e01b81526001600160a01b0387169063d505accf90610dd390339030908a908a908a908a908a9060040161570b565b600060405180830381600087803b158015610ded57600080fd5b505af1158015610e01573d6000803e3d6000fd5b50505050610e10878787610d0b565b50505050505050565b600d546040516313f7d80b60e21b81526000916001600160a01b031690634fdf602c90610e4c9086908690600401615849565b60206040518083038186803b158015610e6457600080fd5b505afa158015610e78573d6000803e3d6000fd5b505050506040513d601f19601f8201168201806040525061076791908101906150c9565b600a546040516310fda6df60e31b815260009182916001600160a01b03909116906387ed36f890610ed19089906004016156b9565b60206040518083038186803b158015610ee957600080fd5b505afa158015610efd573d6000803e3d6000fd5b505050506040513d601f19601f82011682018060405250610f2191908101906150c9565b13610f3e5760405162461bcd60e51b81526004016107c090615b0c565b610f46614a33565b6060610f54878787876139d2565b9150915060006001600160a01b0316601582604051610f73919061557a565b908152604051908190036020019020546001600160a01b031614610fa95760405162461bcd60e51b81526004016107c090615cd8565b600e546040516384b47b0f60e01b81526001600160a01b03909116906384b47b0f90610fdb9084908b90600401615950565b602060405180830381600087803b158015610ff557600080fd5b505af1158015611009573d6000803e3d6000fd5b505050506040513d601f19601f8201168201806040525061102d9190810190614dd1565b925082601582604051611040919061557a565b908152604080516020928190038301902080546001600160a01b03199081166001600160a01b03958616179091558684166000908152601184529190912085518154909216919093161780835590840151849291829060ff60a01b1916600160a01b8360018111156110ae57fe5b02179055506040828101516001909201805460609094015163ffffffff16600160781b0263ffffffff60781b196001600160781b039094166001600160781b03199095169490941792909216929092179055600a54815163b8c3af7b60e01b8152915189926000926001600160a01b038086169363990c11d893929091169163b8c3af7b916004808301926020929190829003018186803b15801561115257600080fd5b505afa158015611166573d6000803e3d6000fd5b505050506040513d601f19601f8201168201806040525061118a91908101906150c9565b6040518263ffffffff1660e01b81526004016111a691906158bb565b60206040518083038186803b1580156111be57600080fd5b505afa1580156111d2573d6000803e3d6000fd5b505050506040513d601f19601f820116820180604052506111f691908101906150c9565b604080518082019182905263d2cc49a160e01b909152909150806112846001600160a01b03851663d2cc49a161122f86604486016158bb565b60206040518083038186803b15801561124757600080fd5b505afa15801561125b573d6000803e3d6000fd5b505050506040513d601f19601f8201168201806040525061127f91908101906150c9565b613a45565b6001600160781b031681526020016112c1846001600160a01b031663c26802c9856040518263ffffffff1660e01b815260040161122f91906158bb565b6001600160781b039081169091526001600160a01b03808c1660009081526012602090815260408083208651815497909301518616600160781b026effffffffffffffffffffffffffffff60781b19939096166001600160781b031990971696909617919091169390931790935590513392918816917f1e778eb413620d03df0615026f51cf388a81c6fabda25b38998bf20fbd0d764691a350505050949350505050565b600b546040516353035ca560e11b81526001600160a01b039091169063a606b94a9061139a903390869086906004016156e7565b600060405180830381600087803b1580156113b457600080fd5b505af11580156113c8573d6000803e3d6000fd5b505050506113d533613831565b5050565b600854156113f95760405162461bcd60e51b81526004016107c090615dc1565b600160085561140781613a6e565b50565b6000806001600160a01b0316601484846040516114289291906155d3565b908152604051908190036020019020546001600160a01b03161461145e5760405162461bcd60e51b81526004016107c090615cd8565b600f54604051630cc715c560e11b81526001600160a01b039091169063198e2b8a90611494908890889088908890600401615916565b602060405180830381600087803b1580156114ae57600080fd5b505af11580156114c2573d6000803e3d6000fd5b505050506040513d601f19601f820116820180604052506114e69190810190614dd1565b905080601484846040516114fb9291906155d3565b90815260405190819003602001812080546001600160a01b039384166001600160a01b0319909116179055600b5463a3ccb2b960e01b82529091169063a3ccb2b99061154b9084906004016156b9565b600060405180830381600087803b15801561156557600080fd5b505af1158015611579573d6000803e3d6000fd5b5050601880546001810182556000919091526115bb92507fb13d2d76d1f4b7be834882e410b3e3a8afaf69f83600ae24db354391d2378d2e0190508484614a5c565b5060405133906001600160a01b038316907fdbd2a1ea6808362e6adbec4db4969cbc11e3b0b28fb6c74cb342defaaf1daada90600090a3949350505050565b6000611604614a33565b6001600160a01b0383811660009081526011602090815260409182902082516080810190935280549384168352919290830190600160a01b900460ff16600181111561164c57fe5b600181111561165757fe5b8152600191909101546001600160781b0381166020830152600160781b900463ffffffff16604091820152600a54825191516309f52cb960e01b81529293506001600160a01b0316916309f52cb9916116b2916004016156b9565b60206040518083038186803b1580156116ca57600080fd5b505afa1580156116de573d6000803e3d6000fd5b505050506040513d601f19601f820116820180604052506117029190810190614dd1565b6001600160a01b0384811660009081526011602052604090819020905163284bb5fb60e01b8152929091169163284bb5fb9161174091600401616011565b60206040518083038186803b15801561175857600080fd5b505afa15801561176c573d6000803e3d6000fd5b505050506040513d601f19601f8201168201806040525061179091908101906150c9565b9150505b919050565b600080601584846040516117ae9291906155d3565b908152604051908190036020019020546001600160a01b03169050806117e65760405162461bcd60e51b81526004016107c090615d98565b6001600160a01b0380821660009081526011602090815260409182902054600a5483516306a2fd8160e11b81529351918516941692630d45fb02926004808301939192829003018186803b15801561183d57600080fd5b505afa158015611851573d6000803e3d6000fd5b505050506040513d601f19601f8201168201806040525061187591908101906150c9565b6001600160a01b038316600090815260116020526040902060010154600160781b900463ffffffff16111561191d57806001600160a01b0316638e15f4736040518163ffffffff1660e01b8152600401604080518083038186803b1580156118dc57600080fd5b505afa1580156118f0573d6000803e3d6000fd5b505050506040513d601f19601f82011682018060405250611914919081019061541b565b93506119c09050565b6001600160a01b0382811660009081526011602052604090819020600101549051630e75722360e41b81529183169163e75722309161196d91600160781b90910463ffffffff1690600401616063565b604080518083038186803b15801561198457600080fd5b505afa158015611998573d6000803e3d6000fd5b505050506040513d601f19601f820116820180604052506119bc919081019061541b565b9350505b505092915050565b600b546040516370a0823160e01b81526000916001600160a01b0316906370a08231906106cc9085906004016156b9565b60188181548110611a0657fe5b600091825260209182902001805460408051601f6002600019610100600187161502019094169390930492830185900485028101850190915281815293509091830182828015611a975780601f10611a6c57610100808354040283529160200191611a97565b820191906000526020600020905b815481529060010190602001808311611a7a57829003601f168201915b505050505081565b60026020526000908152604090205481565b6000611abb614a33565b611ac7868686866139d2565b50600a5481516040516309f52cb960e01b81529293506001600160a01b03909116916309f52cb991611afb916004016156b9565b60206040518083038186803b158015611b1357600080fd5b505afa158015611b27573d6000803e3d6000fd5b505050506040513d601f19601f82011682018060405250611b4b9190810190614dd1565b6001600160a01b031663284bb5fb826040518263ffffffff1660e01b8152600401611b769190615fe8565b60206040518083038186803b158015611b8e57600080fd5b505afa158015611ba2573d6000803e3d6000fd5b505050506040513d601f19601f82011682018060405250611bc691908101906150c9565b9695505050505050565b600d546040516313f7d80b60e21b81526001600160a01b0390911690634fdf602c90611c03908490600190600401615849565b60206040518083038186803b158015611c1b57600080fd5b505afa158015611c2f573d6000803e3d6000fd5b505050506040513d601f19601f82011682018060405250611c5391908101906150c9565b6001600160a01b03909116600090815260106020526040902055565b6005546001600160a01b031690565b6001600160a01b0381811660009081526016602052604081205490911615611cb85760405162461bcd60e51b81526004016107c090615cd8565b600c54604051639c041ebd60e01b81526000916001600160a01b031690639c041ebd90611ced90889088908890600401615826565b602060405180830381600087803b158015611d0757600080fd5b505af1158015611d1b573d6000803e3d6000fd5b505050506040513d601f19601f82011682018060405250611d3f9190810190614dd1565b6001600160a01b0384811660009081526016602052604080822080546001600160a01b03191693851693841790555192935033927f5dce6b26092c717caa7e9598260ca1f0d8e850800e10c58127f3e80d6414f3ec9190a3949350505050565b6001600160a01b039081166000908152601660205260409020541690565b60008060158484604051611dd29291906155d3565b908152604051908190036020019020546001600160a01b03169050806107675760405162461bcd60e51b81526004016107c090615d98565b60408051808201909152600a8152691113d11d8c8b5113d11160b21b602082015290565b60175490565b60106020526000908152604090205481565b6001600160a01b0383166000908152600160209081526040808320338452909152902054818110611eaa57611e81818363ffffffff6138e516565b6001600160a01b0385166000908152600160209081526040808320338452909152902055611f0b565b600b546040516311f3bc9760e11b81526001600160a01b03909116906323e7792e90611eda9033906004016156b9565b60006040518083038186803b158015611ef257600080fd5b505afa158015611f06573d6000803e3d6000fd5b505050505b600b546040516353035ca560e11b81526001600160a01b039091169063a606b94a90611f3f908790879087906004016156e7565b600060405180830381600087803b158015611f5957600080fd5b505af1158015611f6d573d6000803e3d6000fd5b50505050611f7a84613831565b50505050565b600b546040516353035ca560e11b81526000916001600160a01b03169063a606b94a90611fb5903390879087906004016156e7565b600060405180830381600087803b158015611fcf57600080fd5b505af1158015611fe3573d6000803e3d6000fd5b50505050611ff033613831565b611ffb338484613927565b50600192915050565b6007546001600160a01b031690565b606061071c8260000151836020015184604001516001600160781b0316856060015163ffffffff16612c31565b600061204a614a33565b612056878686866139d2565b50600a5481516040516309f52cb960e01b81529293506001600160a01b03909116916309f52cb99161208a916004016156b9565b60206040518083038186803b1580156120a257600080fd5b505afa1580156120b6573d6000803e3d6000fd5b505050506040513d601f19601f820116820180604052506120da9190810190614dd1565b6001600160a01b0316633470793282886040518363ffffffff1660e01b8152600401612107929190615ff6565b60206040518083038186803b15801561211f57600080fd5b505afa158015612133573d6000803e3d6000fd5b505050506040513d601f19601f8201168201806040525061215791908101906150c9565b979650505050505050565b6040516370a0823160e01b815281906001600160a01b038216906370a08231906121909086906004016156b9565b60206040518083038186803b1580156121a857600080fd5b505afa1580156121bc573d6000803e3d6000fd5b505050506040513d601f19601f820116820180604052506121e091908101906150c9565b158015612266575060405163d0acc58f60e01b81526001600160a01b0382169063d0acc58f906122149086906004016156b9565b60206040518083038186803b15801561222c57600080fd5b505afa158015612240573d6000803e3d6000fd5b505050506040513d601f19601f8201168201806040525061226491908101906150c9565b155b1561228d576001600160a01b0383166000908152601360205260409020611f7a908361374b565b505050565b6000805b848110156122cd576122c38484838181106122ad57fe5b9050602002013583613de290919063ffffffff16565b9150600101612296565b506122d73361256a565b8111156122f65760405162461bcd60e51b81526004016107c090615b36565b600b54604051630c5a495d60e41b81526001600160a01b039091169063c5a495d09061233090339085908a908a908a908a90600401615765565b600060405180830381600087803b15801561234a57600080fd5b505af115801561235e573d6000803e3d6000fd5b50505050336001600160a01b03167f680f2e4f4032ebf1774e8cdbaddcb1b617a5a606411c8ca96257ada338d3833c8260405161239b91906158bb565b60405180910390a25050505050565b428410156123ca5760405162461bcd60e51b81526004016107c090615e64565b6003546001600160a01b0388166000908152600260209081526040808320805460018101909155905192939261242b927f6e71edae12b1b97f4d1f60370fef10105fa2faae0126114a169c64845d6126c9928d928d928d92918d91016158c4565b6040516020818303038152906040528051906020012060405160200161245292919061569e565b60405160208183030381529060405280519060200120905060006001828686866040516000815260200160405260405161248f94939291906158f8565b6020604051602081039080840390855afa1580156124b1573d6000803e3d6000fd5b5050604051601f1901519150506001600160a01b038116158015906124e75750886001600160a01b0316816001600160a01b0316145b6125035760405162461bcd60e51b81526004016107c090615ae1565b61250e8989896136f9565b50505050505050505050565b612522614ad6565b506001600160a01b03166000908152601260209081526040918290208251808401909352546001600160781b038082168452600160781b909104169082015290565b60185490565b600d546040516313f7d80b60e21b815260009182916001600160a01b0390911690634fdf602c906125a2908690600190600401615849565b60206040518083038186803b1580156125ba57600080fd5b505afa1580156125ce573d6000803e3d6000fd5b505050506040513d601f19601f820116820180604052506125f291908101906150c9565b600b546040516370a0823160e01b81529192506000916001600160a01b03909116906370a08231906126289087906004016156b9565b60206040518083038186803b15801561264057600080fd5b505afa158015612654573d6000803e3d6000fd5b505050506040513d601f19601f8201168201806040525061267891908101906150c9565b905081811061269a57612691818363ffffffff6138e516565b92505050611794565b5060009392505050565b6000601483836040516126b89291906155d3565b908152604051908190036020019020546001600160a01b0316905092915050565b6126e1614aed565b60005b835151811015612b36576126f9818386613e07565b80516040519193506000916015916127109161557a565b908152604051908190036020019020546001600160a01b031614156127475760405162461bcd60e51b81526004016107c090615df0565b81516040516015916127589161557a565b90815260405190819003602001902054608083015180516001600160a01b03909216918390811061278557fe5b6001600160a01b0390921660209283029190910190910152606082015160408501518051839081106127b357fe5b602002602001015115156001151514156129d8576020830151156129d3576127e983600001518460400151856020015187613ea2565b825160405163552c6a8760e01b81526000916001600160a01b0384169163552c6a879161281a918590600401615a34565b604080518083038186803b15801561283157600080fd5b505afa158015612845573d6000803e3d6000fd5b505050506040513d601f19601f82011682018060405250612869919081019061541b565b50905060008460800151848151811061287e57fe5b602002602001015190506000816001600160a01b031663dd62ed3e33866040518363ffffffff1660e01b81526004016128b89291906156cd565b60206040518083038186803b1580156128d057600080fd5b505afa1580156128e4573d6000803e3d6000fd5b505050506040513d601f19601f8201168201806040525061290891908101906150c9565b1115612929576129296001600160a01b03821684600063ffffffff61435316565b602085015161294a906001600160a01b03831690859063ffffffff61435316565b84516020860151604051629009dd60e31b81526001600160a01b038616926304804ee89261297d92879190600401615a58565b600060405180830381600087803b15801561299757600080fd5b505af11580156129ab573d6000803e3d6000fd5b5050505084602001518560a0015185815181106129c457fe5b60200260200101818152505050505b612b2d565b602083015115612b2d57825160405163552c6a8760e01b81526000916001600160a01b0384169163552c6a8791612a1491600190600401615a34565b604080518083038186803b158015612a2b57600080fd5b505afa158015612a3f573d6000803e3d6000fd5b505050506040513d601f19601f82011682018060405250612a63919081019061541b565b509050816001600160a01b031663ad56d52e85600001518387602001518a60a001518881518110612a9057fe5b60200260200101516040518563ffffffff1660e01b8152600401612ab79493929190615a7d565b602060405180830381600087803b158015612ad157600080fd5b505af1158015612ae5573d6000803e3d6000fd5b505050506040513d601f19601f82011682018060405250612b099190810190614dd1565b5083602001518460c001518481518110612b1f57fe5b602002602001018181525050505b506001016126e4565b50600d54608082015160a083015160c08401516040516308f814c760e11b8152612bea946001600160a01b0316936311f0298e93612b7e939192909190600190600401615864565b60206040518083038186803b158015612b9657600080fd5b505afa158015612baa573d6000803e3d6000fd5b505050506040513d601f19601f82011682018060405250612bce91908101906150c9565b336000908152601060205260409020549063ffffffff613de216565b3360008181526010602052604090209190915561228d90613831565b6001600160a01b03918216600090815260016020908152604080832093909416825291909152205490565b6060846001600160a01b03166395d89b416040518163ffffffff1660e01b815260040160006040518083038186803b158015612c6c57600080fd5b505afa158015612c80573d6000803e3d6000fd5b505050506040513d6000823e601f3d908101601f19168201604052612ca891908101906151ec565b6000856001811115612cb657fe5b14612cda57604051806040016040528060018152602001600560fc1b815250612cf5565b604051806040016040528060018152602001604360f81b8152505b612cfe85614419565b612d0785614419565b604051602001612d1a9493929190615614565b6040516020818303038152906040529050949350505050565b606080606080606080606060136000896001600160a01b03166001600160a01b03168152602001908152602001600020805480602002602001604051908101604052809291908181526020018280548015612db757602002820191906000526020600020905b81546001600160a01b03168152600190910190602001808311612d99575b505050505095508551604051908082528060200260200182016040528015612de9578160200160208202803883390190505b5094508551604051908082528060200260200182016040528015612e17578160200160208202803883390190505b5093508551604051908082528060200260200182016040528015612e45578160200160208202803883390190505b5092508551604051908082528060200260200182016040528015612e73578160200160208202803883390190505b5091508551604051908082528060200260200182016040528015612ea1578160200160208202803883390190505b50905060005b865181101561331c576000878281518110612ebe57fe5b60200260200101519050612ed0614a33565b601160008a8581518110612ee057fe5b6020908102919091018101516001600160a01b03908116835282820193909352604091820160002082516080810190935280549384168352919290830190600160a01b900460ff166001811115612f3357fe5b6001811115612f3e57fe5b8152600191909101546001600160781b0381166020830152600160781b900463ffffffff16604090910152905082612f8057612f7981612013565b9950612fad565b89612f8a82612013565b604051602001612f9b9291906155e3565b60405160208183030381529060405299505b6040516370a0823160e01b81526001600160a01b038316906370a0823190612fd9908e906004016156b9565b60206040518083038186803b158015612ff157600080fd5b505afa158015613005573d6000803e3d6000fd5b505050506040513d601f19601f8201168201806040525061302991908101906150c9565b88848151811061303557fe5b602090810291909101015260405163d0acc58f60e01b81526001600160a01b0383169063d0acc58f9061306c908e906004016156b9565b60206040518083038186803b15801561308457600080fd5b505afa158015613098573d6000803e3d6000fd5b505050506040513d601f19601f820116820180604052506130bc91908101906150c9565b8784815181106130c857fe5b602090810291909101015260405163a4bd56c760e01b81526001600160a01b0383169063a4bd56c7906130ff908e906004016156b9565b60206040518083038186803b15801561311757600080fd5b505afa15801561312b573d6000803e3d6000fd5b505050506040513d601f19601f8201168201806040525061314f91908101906150c9565b86848151811061315b57fe5b6020908102919091010152600a5481516040516309f52cb960e01b81526001600160a01b03909216916309f52cb991613196916004016156b9565b60206040518083038186803b1580156131ae57600080fd5b505afa1580156131c2573d6000803e3d6000fd5b505050506040513d601f19601f820116820180604052506131e69190810190614dd1565b6001600160a01b031663284bb5fb826040518263ffffffff1660e01b81526004016132119190615fe8565b60206040518083038186803b15801561322957600080fd5b505afa15801561323d573d6000803e3d6000fd5b505050506040513d601f19601f8201168201806040525061326191908101906150c9565b85848151811061326d57fe5b60200260200101818152505080600001516001600160a01b031663acaec6026040518163ffffffff1660e01b815260040160206040518083038186803b1580156132b657600080fd5b505afa1580156132ca573d6000803e3d6000fd5b505050506040513d601f19601f820116820180604052506132ee9190810190614dd1565b8484815181106132fa57fe5b6001600160a01b03909216602092830291909101909101525050600101612ea7565b50919395979092949650565b613330614a33565b6001600160a01b0382811660009081526011602090815260409182902082516080810190935280549384168352919290830190600160a01b900460ff16600181111561337857fe5b600181111561338357fe5b8152600191909101546001600160781b0381166020830152600160781b900463ffffffff1660409091015292915050565b6000339050336001600160a01b03166015826001600160a01b03166395d89b416040518163ffffffff1660e01b815260040160006040518083038186803b1580156133fe57600080fd5b505afa158015613412573d6000803e3d6000fd5b505050506040513d6000823e601f3d908101601f1916820160405261343a91908101906151ec565b604051613447919061557a565b908152604051908190036020019020546001600160a01b03161461347d5760405162461bcd60e51b81526004016107c090615d29565b613485614a33565b3360009081526011602090815260409182902082516080810190935280546001600160a01b03811684529091830190600160a01b900460ff1660018111156134c957fe5b60018111156134d457fe5b8152600191909101546001600160781b0381166020830152600160781b900463ffffffff1660409091015290508315613570576009548151604051637b7cdc5160e01b81526001600160a01b0390921691637b7cdc519161353d91899133918a906004016157fc565b600060405180830381600087803b15801561355757600080fd5b505af115801561356b573d6000803e3d6000fd5b505050505b82156136bf576001600160a01b038086166000908152601060205260409081902054600a54845192516309f52cb960e01b815291936136a493613697938693909216916309f52cb9916135c5916004016156b9565b60206040518083038186803b1580156135dd57600080fd5b505afa1580156135f1573d6000803e3d6000fd5b505050506040513d601f19601f820116820180604052506136159190810190614dd1565b6001600160a01b0316633470793286896040518363ffffffff1660e01b8152600401613642929190615ff6565b60206040518083038186803b15801561365a57600080fd5b505afa15801561366e573d6000803e3d6000fd5b505050506040513d601f19601f8201168201806040525061369291908101906150c9565b614426565b829063ffffffff6138e516565b6001600160a01b038716600090815260106020526040902055505b5050505050565b600954604051633de222bb60e21b81526000916001600160a01b03169063f7888aec90610e4c90869086906004016156cd565b60006001600160a01b03831661370e57600080fd5b6001600160a01b03808516600090815260016020908152604080832093871683529290522082905561374184848461443c565b5060019392505050565b6000805b835481101561269a57826001600160a01b031684828154811061376e57fe5b6000918252602090912001546001600160a01b031614156138295783548490600019810190811061379b57fe5b9060005260206000200160009054906101000a90046001600160a01b03168482815481106137c557fe5b9060005260206000200160006101000a8154816001600160a01b0302191690836001600160a01b03160217905550838054806137fd57fe5b600082815260209020810160001990810180546001600160a01b0319169055019055506001905061071c565b60010161374f565b6001600160a01b038082166000908152601060205260409081902054600b5491516370a0823160e01b8152909291909116906370a08231906138779085906004016156b9565b60206040518083038186803b15801561388f57600080fd5b505afa1580156138a3573d6000803e3d6000fd5b505050506040513d601f19601f820116820180604052506138c791908101906150c9565b10156114075760405162461bcd60e51b81526004016107c090615bfc565b600061076783836040518060400160405280601e81526020017f536166654d6174683a207375627472616374696f6e206f766572666c6f77000081525061447f565b816001600160a01b0316836001600160a01b03167fddf252ad1be2c89b69c2b068fc378daa952ba7f163c4a11628f55a4df523b3ef8360405161396a91906158bb565b60405180910390a3505050565b604051611f7a9085906323b872dd60e01b9061399b908790879087906024016156e7565b60408051601f198184030181529190526020810180516001600160e01b03166001600160e01b0319909316929092179091526144ab565b6139da614a33565b60606040518060800160405280876001600160a01b03168152602001866001811115613a0257fe5b8152602001613a1086613a45565b6001600160781b03168152602001613a2785614590565b63ffffffff1690529150613a3a82612013565b905094509492505050565b6000600160781b8210613a6a5760405162461bcd60e51b81526004016107c090615c33565b5090565b604051630110ceef60e21b81526001600160a01b038216906304433bbc90613a9890600401615d01565b60206040518083038186803b158015613ab057600080fd5b505afa158015613ac4573d6000803e3d6000fd5b505050506040513d601f19601f82011682018060405250613ae89190810190614dd1565b600b80546001600160a01b0319166001600160a01b03928316179055604051630110ceef60e21b8152908216906304433bbc90613b2790600401615b64565b60206040518083038186803b158015613b3f57600080fd5b505afa158015613b53573d6000803e3d6000fd5b505050506040513d601f19601f82011682018060405250613b779190810190614dd1565b600a80546001600160a01b0319166001600160a01b03928316179055604051630110ceef60e21b8152908216906304433bbc90613bb690600401615ab5565b60206040518083038186803b158015613bce57600080fd5b505afa158015613be2573d6000803e3d6000fd5b505050506040513d601f19601f82011682018060405250613c069190810190614dd1565b600e80546001600160a01b0319166001600160a01b03928316179055604051630110ceef60e21b8152908216906304433bbc90613c4590600401615bc5565b60206040518083038186803b158015613c5d57600080fd5b505afa158015613c71573d6000803e3d6000fd5b505050506040513d601f19601f82011682018060405250613c959190810190614dd1565b600f80546001600160a01b0319166001600160a01b03928316179055604051630110ceef60e21b8152908216906304433bbc90613cd490600401615e8c565b60206040518083038186803b158015613cec57600080fd5b505afa158015613d00573d6000803e3d6000fd5b505050506040513d601f19601f82011682018060405250613d249190810190614dd1565b600d80546001600160a01b0319166001600160a01b03928316179055604051630110ceef60e21b8152908216906304433bbc90613d6390600401615c7a565b60206040518083038186803b158015613d7b57600080fd5b505afa158015613d8f573d6000803e3d6000fd5b505050506040513d601f19601f82011682018060405250613db39190810190614dd1565b600980546001600160a01b0319166001600160a01b039290921691909117905550670de0b6b3a7640000601755565b6000828201838110156107675760405162461bcd60e51b81526004016107c090615b8e565b613e0f614aed565b8151805185908110613e1d57fe5b6020026020010151836000018190525081602001518481518110613e3d57fe5b602002602001015183602001818152505081606001518481518110613e5e57fe5b6020908102919091010151151560408401526080820151805185908110613e8157fe5b60209081029190910101516001600160a01b03166060840152509092915050565b6000601585604051613eb4919061557a565b9081526040519081900360200181205463d0acc58f60e01b82526001600160a01b031691508190819063d0acc58f90613ef19033906004016156b9565b60206040518083038186803b158015613f0957600080fd5b505afa158015613f1d573d6000803e3d6000fd5b505050506040513d601f19601f82011682018060405250613f4191908101906150c9565b158015613fc757506040516370a0823160e01b81526001600160a01b038216906370a0823190613f759033906004016156b9565b60206040518083038186803b158015613f8d57600080fd5b505afa158015613fa1573d6000803e3d6000fd5b505050506040513d601f19601f82011682018060405250613fc591908101906150c9565b155b15614005573360009081526013602090815260408220805460018101825590835291200180546001600160a01b0319166001600160a01b0384161790555b336001600160a01b03841614801590614097575060405163d0acc58f60e01b81526001600160a01b0382169063d0acc58f906140459086906004016156b9565b60206040518083038186803b15801561405d57600080fd5b505afa158015614071573d6000803e3d6000fd5b505050506040513d601f19601f8201168201806040525061409591908101906150c9565b155b801561411c57506040516370a0823160e01b81526001600160a01b038216906370a08231906140ca9086906004016156b9565b60206040518083038186803b1580156140e257600080fd5b505afa1580156140f6573d6000803e3d6000fd5b505050506040513d601f19601f8201168201806040525061411a91908101906150c9565b155b15614160576001600160a01b0383811660009081526013602090815260408220805460018101825590835291200180546001600160a01b0319169184169190911790555b604051635b09ccc960e11b81526001600160a01b0382169063b613999290614190903390879089906004016156e7565b600060405180830381600087803b1580156141aa57600080fd5b505af11580156141be573d6000803e3d6000fd5b50505050841515600114156142f6576001600160a01b038083166000908152601160209081526040808320548151635657630160e11b815291519394169263acaec60292600480840193919291829003018186803b15801561421f57600080fd5b505afa158015614233573d6000803e3d6000fd5b505050506040513d601f19601f820116820180604052506142579190810190614dd1565b60095490915061428e9033906001600160a01b031661427684896145b6565b6001600160a01b03851692919063ffffffff61397716565b6009546040516307750c9f60e41b81526001600160a01b0390911690637750c9f0906142c290339087908a906004016156e7565b600060405180830381600087803b1580156142dc57600080fd5b505af11580156142f0573d6000803e3d6000fd5b50505050505b826001600160a01b0316336001600160a01b0316836001600160a01b03167f84aa5b93ad2c470d4e48853ea55b71721d342628a481c8c40e3ebc6e728d4be58760405161434391906158bb565b60405180910390a4505050505050565b8015806143db5750604051636eb1769f60e11b81526001600160a01b0384169063dd62ed3e9061438990309086906004016156cd565b60206040518083038186803b1580156143a157600080fd5b505afa1580156143b5573d6000803e3d6000fd5b505050506040513d601f19601f820116820180604052506143d991908101906150c9565b155b6143f75760405162461bcd60e51b81526004016107c090615f01565b60405161228d90849063095ea7b360e01b9061399b908690869060240161574c565b606061071c826001614649565b60008183106144355781610767565b5090919050565b816001600160a01b0316836001600160a01b03167f8c5be1e5ebec7d5bd14f71427d1e84f3dd0314c0f7b2291e5b200ac8c7c3b9258360405161396a91906158bb565b600081848411156144a35760405162461bcd60e51b81526004016107c0919061593d565b505050900390565b6144bd826001600160a01b0316614818565b6144d95760405162461bcd60e51b81526004016107c090615f8e565b60006060836001600160a01b0316836040516144f5919061557a565b6000604051808303816000865af19150503d8060008114614532576040519150601f19603f3d011682016040523d82523d6000602084013e614537565b606091505b5091509150816145595760405162461bcd60e51b81526004016107c090615ca3565b805115611f7a578080602001905161457491908101906150ad565b611f7a5760405162461bcd60e51b81526004016107c090615eb7565b60006401000000008210613a6a5760405162461bcd60e51b81526004016107c090615e1e565b600080601290506000846001600160a01b031663313ce5676040518163ffffffff1660e01b815260040160206040518083038186803b1580156145f857600080fd5b505afa15801561460c573d6000803e3d6000fd5b505050506040513d601f19601f82011682018060405250614630919081019061543e565b60ff16905061464084828461481e565b95945050505050565b60608261466e57506040805180820190915260018152600360fc1b602082015261071c565b60408051606480825260a082019092526060908260208201818038833901905050905060005b85156146da578151600a808804976001840193919006916030830160f81b91859181106146bd57fe5b60200101906001600160f81b031916908160001a90535050614694565b6000851561472e5760005b8281101561472c578381815181106146f957fe5b6020910101516001600160f81b031916600360fc1b141561471f57600190910190614724565b61472c565b6001016146e5565b505b60006002821161473f576000614741565b815b830390506060816040519080825280601f01601f191660200182016040528015614772576020820181803883390190505b50905060005b828110156147c757856001828703038151811061479157fe5b602001015160f81c60f81b8282815181106147a857fe5b60200101906001600160f81b031916908160001a905350600101614778565b508096508780156147d85750600283115b1561480c57806147e9846000614649565b6040516020016147fa929190615596565b60405160208183030381529060405296505b50505050505092915050565b3b151590565b60008282101561485557614852614845600a614840868663ffffffff6138e516565b61488d565b859063ffffffff61490a16565b93505b8282111561488557614882614875600a614840858763ffffffff6138e516565b859063ffffffff61494416565b93505b509192915050565b60008161489c5750600161071c565b81600114156148ac57508161071c565b60006148c38461484085600263ffffffff61494416565b90506148d5818063ffffffff61490a16565b90506148e883600263ffffffff61498616565b6001141561490357614900818563ffffffff61490a16565b90505b905061071c565b6000826149195750600061071c565b8282028284828161492657fe5b04146107675760405162461bcd60e51b81526004016107c090615d57565b600061076783836040518060400160405280601a81526020017f536166654d6174683a206469766973696f6e206279207a65726f0000000000008152506149c8565b600061076783836040518060400160405280601881526020017f536166654d6174683a206d6f64756c6f206279207a65726f00000000000000008152506149ff565b600081836149e95760405162461bcd60e51b81526004016107c0919061593d565b5060008385816149f557fe5b0495945050505050565b60008183614a205760405162461bcd60e51b81526004016107c0919061593d565b50828481614a2a57fe5b06949350505050565b604080516080810190915260008082526020820190815260006020820181905260409091015290565b828054600181600116156101000203166002900490600052602060002090601f016020900481019282601f10614a9d5782800160ff19823516178555614aca565b82800160010185558215614aca579182015b82811115614aca578235825591602001919060010190614aaf565b50613a6a929150614b35565b604080518082019091526000808252602082015290565b6040518060e00160405280606081526020016000815260200160001515815260200160006001600160a01b031681526020016060815260200160608152602001606081525090565b61075791905b80821115613a6a5760008155600101614b3b565b803561071c81616123565b60008083601f840112614b6b578182fd5b50813567ffffffffffffffff811115614b82578182fd5b6020830191508360208083028501011115614b9c57600080fd5b9250929050565b600082601f830112614bb3578081fd5b8135614bc6614bc1826160a9565b616082565b818152915060208083019084810181840286018201871015614be757600080fd5b60005b84811015614c0f578135614bfd81616123565b84529282019290820190600101614bea565b505050505092915050565b600082601f830112614c2a578081fd5b8135614c38614bc1826160a9565b818152915060208083019084810181840286018201871015614c5957600080fd5b60005b84811015614c0f578135614c6f81616138565b84529282019290820190600101614c5c565b600082601f830112614c91578081fd5b8135614c9f614bc1826160a9565b818152915060208083019084810160005b84811015614c0f578135870188603f820112614ccb57600080fd5b83810135614cdb614bc1826160c9565b8181528a6040838501011115614cf057600080fd5b81604084018783013760009181018601919091528552509282019290820190600101614cb0565b600082601f830112614d27578081fd5b8135614d35614bc1826160a9565b818152915060208083019084810181840286018201871015614d5657600080fd5b60005b84811015614c0f57813584529282019290820190600101614d59565b60008083601f840112614d86578182fd5b50813567ffffffffffffffff811115614d9d578182fd5b602083019150836020828501011115614b9c57600080fd5b600060208284031215614dc6578081fd5b813561076781616123565b600060208284031215614de2578081fd5b815161076781616123565b60008060408385031215614dff578081fd5b8235614e0a81616123565b91506020830135614e1a81616123565b809150509250929050565b600080600060608486031215614e39578081fd5b8335614e4481616123565b92506020840135614e5481616123565b91506040840135614e6481616123565b809150509250925092565b600080600060608486031215614e83578081fd5b8335614e8e81616123565b92506020840135614e9e81616123565b929592945050506040919091013590565b600080600080600080600060e0888a031215614ec9578485fd5b8735614ed481616123565b96506020880135614ee481616123565b955060408801359450606088013593506080880135614f0281616153565b9699959850939692959460a0840135945060c09093013592915050565b60008060408385031215614f31578182fd5b8235614f3c81616123565b91506020830135614e1a81616138565b60008060008060808587031215614f61578182fd5b8435614f6c81616123565b9350602085013560028110614f7f578283fd5b93969395505050506040820135916060013590565b60008060408385031215614fa6578182fd5b8235614fb181616123565b946020939093013593505050565b600080600080600060a08688031215614fd6578283fd5b8535614fe181616123565b9450602086013593506040860135614ff881616146565b94979396509394606081013594506080013592915050565b600080600060608486031215615024578081fd5b833561502f81616123565b95602085013595506040909401359392505050565b60008060008060408587031215615059578182fd5b843567ffffffffffffffff80821115615070578384fd5b61507c88838901614b5a565b90965094506020870135915080821115615094578384fd5b506150a187828801614b5a565b95989497509550505050565b6000602082840312156150be578081fd5b815161076781616138565b6000602082840312156150da578081fd5b5051919050565b600080602083850312156150f3578182fd5b823567ffffffffffffffff811115615109578283fd5b61511585828601614d75565b90969095509350505050565b600080600080600060808688031215615138578283fd5b853567ffffffffffffffff81111561514e578384fd5b61515a88828901614d75565b909650945050602086013561516e81616123565b9250604086013561517e81616123565b949793965091946060013592915050565b600080600080604085870312156151a4578182fd5b843567ffffffffffffffff808211156151bb578384fd5b6151c788838901614d75565b909650945060208701359150808211156151df578384fd5b506150a187828801614d75565b6000602082840312156151fd578081fd5b815167ffffffffffffffff811115615213578182fd5b80830184601f820112615224578283fd5b80519150615234614bc1836160c9565b828152856020848401011115615248578384fd5b6146408360208301602085016160ed565b6000806040838503121561526b578182fd5b823567ffffffffffffffff80821115615282578384fd5b81850160c08188031215615294578485fd5b61529e60c0616082565b92508035828111156152ae578586fd5b6152ba88828401614c81565b8452506020810135828111156152ce578586fd5b6152da88828401614d17565b6020850152506040810135828111156152f1578586fd5b6152fd88828401614c1a565b604085015250606081013582811115615314578586fd5b61532088828401614c1a565b606085015250608081013582811115615337578586fd5b61534388828401614ba3565b60808501525060a08101358281111561535a578586fd5b61536688828401614ba3565b60a08501525050508092505061537f8460208501614b4f565b90509250929050565b600060808284031215615399578081fd5b6153a36080616082565b82356153ae81616123565b815260208301356153be81616146565b602082015260408301356001600160781b03811681146153dc578283fd5b6040820152606083013563ffffffff811681146153f7578283fd5b60608201529392505050565b600060208284031215615414578081fd5b5035919050565b6000806040838503121561542d578182fd5b505080516020909101519092909150565b60006020828403121561544f578081fd5b815161076781616153565b6001600160a01b0316815260200190565b6000815180845260208401935060208301825b828110156154a55781516001600160a01b031686526020958601959091019060010161547e565b5093949350505050565b6000815180845260208401935060208301825b828110156154a55781518652602095860195909101906001016154c2565b60008284528282602086013780602084860101526020601f19601f85011685010190509392505050565b600081518084526155228160208601602086016160ed565b601f01601f19169290920160200192915050565b80516001600160a01b03168252602081015161555181616119565b60208301526040818101516001600160781b03169083015260609081015163ffffffff16910152565b6000825161558c8184602087016160ed565b9190910192915050565b600083516155a88184602088016160ed565b808301606560f81b8152845191506155c78260018301602088016160ed565b01600101949350505050565b6000828483379101908152919050565b600083516155f58184602088016160ed565b600560f91b9083019081528351906155c78260018301602088016160ed565b60008551615626818460208a016160ed565b602d60f81b908301818152604560f81b6001820152865161564e816002840160208b016160ed565b8082018360028201528751925061566c836003830160208b016160ed565b8281019150508260038201528551925061568d8360048301602089016160ed565b909101600401979650505050505050565b61190160f01b81526002810192909252602282015260420190565b6001600160a01b0391909116815260200190565b6001600160a01b0392831681529116602082015260400190565b6001600160a01b039384168152919092166020820152604081019190915260600190565b6001600160a01b0397881681529590961660208601526040850193909352606084019190915260ff16608083015260a082015260c081019190915260e00190565b6001600160a01b03929092168252602082015260400190565b6001600160a01b038716815260208101869052608060408201819052810184905260008560a08301825b878110156157be5782356157a281616123565b6157ac838261545a565b6020949094019392505060010161578f565b5083810360608501528481526001600160fb1b038511156157dd578283fd5b6020850291508186602083013701602001908152979650505050505050565b6001600160a01b039485168152928416602084015292166040820152606081019190915260800190565b6001600160a01b0393841681529183166020830152909116604082015260600190565b6001600160a01b039290921682521515602082015260400190565b600060808252615877608083018761546b565b828103602084015261588981876154af565b838103604085015261589b81876154af565b92505050821515606083015295945050505050565b901515815260200190565b90815260200190565b9586526001600160a01b0394851660208701529290931660408501526060840152608083019190915260a082015260c00190565b93845260ff9290921660208401526040830152606082015260800190565b60006040825261592a6040830186886154e0565b82810360208401526121578185876154e0565b600060208252610767602083018461550a565b600060408252615963604083018561550a565b905060018060a01b03831660208301529392505050565b600060e0825261598d60e083018a61550a565b828103602084015261599f818a61546b565b83810360408501526159b1818a6154af565b91505082810360608401526159c681886154af565b83810360808501526159d881886154af565b84810360a08601528651808252602080890194509091019150835b81811015615a115783518352602093840193909201916001016159f3565b505083810360c0850152615a25818661546b565b9b9a5050505050505050505050565b600060408252615a47604083018561550a565b905082151560208301529392505050565b600060608252615a6b606083018661550a565b60208301949094525060400152919050565b600060808252615a90608083018761550a565b60208301959095525060408101929092526001600160a01b0316606090910152919050565b6020808252601290820152714f7074696f6e546f6b656e466163746f727960701b604082015260600190565b602080825260119082015270696e76616c6964207369676e617475726560781b604082015260600190565b60208082526010908201526f19995959081b9bdd08185b1b1bddd95960821b604082015260600190565b602080825260149082015273696e73756666696369656e7420737572706c757360601b604082015260600190565b60208082526010908201526f50726f746f636f6c53657474696e677360801b604082015260600190565b6020808252601b908201527f536166654d6174683a206164646974696f6e206f766572666c6f770000000000604082015260600190565b6020808252601a908201527f4c696e6561724c6971756964697479506f6f6c466163746f7279000000000000604082015260600190565b60208082526017908201527f696e73756666696369656e7420636f6c6c61746572616c000000000000000000604082015260600190565b60208082526027908201527f53616665436173743a2076616c756520646f65736e27742066697420696e20316040820152663230206269747360c81b606082015260800190565b6020808252600f908201526e155b99195c9b1e5a5b99d5985d5b1d608a1b604082015260600190565b6020808252818101527f5361666545524332303a206c6f772d6c6576656c2063616c6c206661696c6564604082015260600190565b6020808252600f908201526e185b1c9958591e4818dc99585d1959608a1b604082015260600190565b6020808252600e908201526d21b932b234ba283937bb34b232b960911b604082015260600190565b602080825260149082015273756e617574686f72697a65642072656c6561736560601b604082015260600190565b60208082526021908201527f536166654d6174683a206d756c7469706c69636174696f6e206f766572666c6f6040820152607760f81b606082015260800190565b6020808252600f908201526e1d1bdad95b881b9bdd08199bdd5b99608a1b604082015260600190565b6020808252601590820152741a5b9a5d1a585b1a5e985d1a5bdb881b1bd8dad959605a1b604082015260600190565b60208082526014908201527373796d626f6c206e6f7420617661696c61626c6560601b604082015260600190565b60208082526026908201527f53616665436173743a2076616c756520646f65736e27742066697420696e203360408201526532206269747360d01b606082015260800190565b6020808252600e908201526d1c195c9b5a5d08195e1c1a5c995960921b604082015260600190565b60208082526011908201527021b7b63630ba32b930b626b0b730b3b2b960791b604082015260600190565b6020808252602a908201527f5361666545524332303a204552433230206f7065726174696f6e20646964206e6040820152691bdd081cdd58d8d9595960b21b606082015260800190565b60208082526036908201527f5361666545524332303a20617070726f76652066726f6d206e6f6e2d7a65726f60408201527520746f206e6f6e2d7a65726f20616c6c6f77616e636560501b606082015260800190565b6020808252601f908201527f756e617574686f72697a6564206f776e657273686970207472616e7366657200604082015260600190565b6020808252601f908201527f5361666545524332303a2063616c6c20746f206e6f6e2d636f6e747261637400604082015260600190565b81516001600160781b039081168252602092830151169181019190915260400190565b6080810161071c8284615536565b60a081016160048285615536565b8260808301529392505050565b81546001600160a01b0381168252608082019060a081901c60ff1661603581616119565b602084015250600192909201546001600160781b038116604083015260781c63ffffffff1660609091015290565b63ffffffff91909116815260200190565b60ff91909116815260200190565b60405181810167ffffffffffffffff811182821017156160a157600080fd5b604052919050565b600067ffffffffffffffff8211156160bf578081fd5b5060209081020190565b600067ffffffffffffffff8211156160df578081fd5b50601f01601f191660200190565b60005b838110156161085781810151838201526020016160f0565b83811115611f7a5750506000910152565b6002811061140757fe5b6001600160a01b038116811461140757600080fd5b801515811461140757600080fd5b6002811061140757600080fd5b60ff8116811461140757600080fdfea26469706673582212201eb0d3e8cf16060a5f0604f02db67fd0482223d48f58e383b43e3560929fa41f64736f6c63430006000033",
  "source": "pragma solidity >=0.6.0;\n\nimport \"../deployment/Deployer.sol\";\nimport \"../deployment/ManagedContract.sol\";\nimport \"../governance/ProtocolSettings.sol\";\nimport \"../utils/ERC20.sol\";\nimport \"../interfaces/TimeProvider.sol\";\nimport \"../interfaces/UnderlyingFeed.sol\";\nimport \"../utils/Arrays.sol\";\nimport \"../utils/MoreMath.sol\";\nimport \"../utils/SafeCast.sol\";\nimport \"../utils/SafeERC20.sol\";\nimport \"../utils/SafeMath.sol\";\nimport \"../utils/SignedSafeMath.sol\";\nimport \"./CreditProvider.sol\";\nimport \"./OptionToken.sol\";\nimport \"./OptionTokenFactory.sol\";\nimport \"./UnderlyingVault.sol\";\n\ncontract OptionsExchange is ManagedContract {\n\n    using SafeCast for uint;\n    using SafeERC20 for IERC20;\n    using SafeMath for uint;\n    using SignedSafeMath for int;\n    \n    enum OptionType { CALL, PUT }\n    \n    struct OptionData {\n        address udlFeed;\n        OptionType _type;\n        uint120 strike;\n        uint32 maturity;\n    }\n\n    struct FeedData {\n        uint120 lowerVol;\n        uint120 upperVol;\n    }\n    \n    TimeProvider private time;\n    ProtocolSettings private settings;\n    CreditProvider private creditProvider;\n    OptionTokenFactory private factory;\n    UnderlyingVault private vault;\n\n    mapping(address => uint) public collateral;\n    mapping(address => OptionData) private options;\n    mapping(address => FeedData) private feeds;\n    mapping(address => address[]) private book;\n    mapping(string => address) private tokenAddress;\n    mapping(address => mapping(address => uint)) private allowed;\n    \n    uint public volumeBase;\n    uint private timeBase;\n    uint private sqrtTimeBase;\n\n    event WithdrawTokens(address indexed from, uint value);\n\n    event CreateSymbol(address indexed token, address indexed sender);\n\n    event Approval(address indexed owner, address indexed spender, uint value);\n\n    event WriteOptions(\n        address indexed token,\n        address indexed issuer,\n        address indexed onwer,\n        uint volume\n    );\n\n    event LiquidateEarly(\n        address indexed token,\n        address indexed sender,\n        address indexed onwer,\n        uint volume\n    );\n\n    event LiquidateExpired(\n        address indexed token,\n        address indexed sender,\n        address indexed onwer,\n        uint volume\n    );\n\n    function initialize(Deployer deployer) override internal {\n\n        time = TimeProvider(deployer.getContractAddress(\"TimeProvider\"));\n        creditProvider = CreditProvider(deployer.getContractAddress(\"CreditProvider\"));\n        settings = ProtocolSettings(deployer.getContractAddress(\"ProtocolSettings\"));\n        factory = OptionTokenFactory(deployer.getContractAddress(\"OptionTokenFactory\"));\n        vault = UnderlyingVault(deployer.getContractAddress(\"UnderlyingVault\"));\n\n        volumeBase = 1e18;\n        timeBase = 1e18;\n        sqrtTimeBase = 1e9;\n    }\n\n    function depositTokens(\n        address to,\n        address token,\n        uint value,\n        uint deadline,\n        uint8 v,\n        bytes32 r,\n        bytes32 s\n    )\n        external\n    {\n        IERC20Permit(token).permit(msg.sender, address(this), value, deadline, v, r, s);\n        depositTokens(to, token, value);\n    }\n\n    function depositTokens(address to, address token, uint value) public {\n\n        IERC20 t = IERC20(token);\n        t.safeTransferFrom(msg.sender, address(creditProvider), value);\n        creditProvider.addBalance(to, token, value);\n    }\n\n    function balanceOf(address owner) external view returns (uint) {\n\n        return creditProvider.balanceOf(owner);\n    }\n\n    function allowance(address owner, address spender) external view returns (uint) {\n\n        return allowed[owner][spender];\n    }\n\n    function approve(address spender, uint value) external returns (bool) {\n\n        require(spender != address(0));\n        allowed[msg.sender][spender] = value;\n        emit Approval(msg.sender, spender, value);\n        return true;\n    }\n\n    function transferBalance(\n        address from, \n        address to, \n        uint value\n    )\n        external\n    {\n        uint allw = allowed[from][msg.sender];\n        if (allw >= value) {\n            allowed[from][msg.sender] = allw.sub(value);\n        } else {\n            creditProvider.ensureCaller(msg.sender);\n        }\n        creditProvider.transferBalance(from, to, value);\n        ensureFunds(from);\n    }\n\n    function transferBalance(address to, uint value) public {\n\n        creditProvider.transferBalance(msg.sender, to, value);\n        ensureFunds(msg.sender);\n    }\n\n    function underlyingBalance(address owner, address _tk) external view returns (uint) {\n\n        return vault.balanceOf(owner, _tk);\n    }\n    \n    function withdrawTokens(uint value) external {\n        \n        require(value <= calcSurplus(msg.sender), \"insufficient surplus\");\n        creditProvider.withdrawTokens(msg.sender, value);\n        emit WithdrawTokens(msg.sender, value);\n    }\n\n    function createSymbol(\n        address udlFeed,\n        OptionType optType,\n        uint strike, \n        uint maturity\n    )\n        public\n        returns (address tk)\n    {\n        ensureFeedIsAlowed(udlFeed);\n\n        (OptionData memory opt, string memory symbol) =\n            createOptionInMemory(udlFeed, optType, strike, maturity);\n\n        require(tokenAddress[symbol] == address(0), \"already created\");\n\n        tk = factory.create(symbol, udlFeed);\n        tokenAddress[symbol] = tk;\n        options[tk] = opt;\n        prefetchFeedData(udlFeed);\n\n        emit CreateSymbol(tk, msg.sender);\n    }\n\n    function getOptionSymbol(\n        address udlFeed,\n        OptionType optType,\n        uint strike, \n        uint maturity\n    )\n        public\n        view\n        returns (string memory symbol)\n    {    \n        symbol = string(abi.encodePacked(\n            UnderlyingFeed(udlFeed).symbol(),\n            \"-\",\n            \"E\",\n            optType == OptionType.CALL ? \"C\" : \"P\",\n            \"-\",\n            MoreMath.toString(strike),\n            \"-\",\n            MoreMath.toString(maturity)\n        ));\n    }\n\n    function writeOptions(\n        address udlFeed,\n        uint volume,\n        OptionType optType,\n        uint strike, \n        uint maturity,\n        address to\n    )\n        external \n        returns (address _tk)\n    {\n        (OptionData memory opt, string memory symbol) =\n            createOptionInMemory(udlFeed, optType, strike, maturity);\n        (_tk) = writeOptionsInternal(opt, symbol, volume, to);\n        ensureFunds(msg.sender);\n    }\n\n    function writeCovered(\n        address udlFeed,\n        uint volume,\n        uint strike, \n        uint maturity,\n        address to\n    )\n        external \n        returns (address _tk)\n    {\n        (OptionData memory opt, string memory symbol) =\n            createOptionInMemory(udlFeed, OptionType.CALL, strike, maturity);\n        _tk = tokenAddress[symbol];\n\n        if (_tk == address(0)) {\n            _tk = createSymbol(opt.udlFeed, OptionType.CALL, strike, maturity);\n        }\n        \n        address underlying = getUnderlyingAddr(opt);\n        require(underlying != address(0), \"underlying token not set\");\n        IERC20(underlying).safeTransferFrom(msg.sender, address(vault), volume);\n        vault.lock(msg.sender, _tk, volume);\n\n        writeOptionsInternal(opt, symbol, volume, to);\n        ensureFunds(msg.sender);\n    }\n    \n    function transferOwnership(\n        string calldata symbol,\n        address from,\n        address to,\n        uint value\n    )\n        external\n    {\n        require(tokenAddress[symbol] == msg.sender, \"unauthorized ownership transfer\");\n        \n        OptionToken tk = OptionToken(msg.sender);\n        \n        if (tk.writtenVolume(from) == 0 && tk.balanceOf(from) == 0) {\n            Arrays.removeItem(book[from], msg.sender);\n        }\n\n        if (tk.writtenVolume(to) == 0 && tk.balanceOf(to) == value) {\n            book[to].push(msg.sender);\n        }\n\n        ensureFunds(from);\n    }\n\n    function release(address owner, uint udl, uint coll) public {\n\n        OptionToken tk = OptionToken(msg.sender);\n        require(tokenAddress[tk.symbol()] == msg.sender, \"unauthorized release\");\n\n        OptionData memory opt = options[msg.sender];\n\n        if (udl > 0) {\n            vault.release(owner,  msg.sender, opt.udlFeed, udl);\n        }\n        \n        if (coll > 0) {\n            uint c = collateral[owner];\n            collateral[owner] = c.sub(\n                MoreMath.min(c, calcCollateral(opt, coll))\n            );\n        }\n    }\n\n    function cleanUp(address owner, address _tk) public {\n\n        OptionToken tk = OptionToken(_tk);\n\n        if (tk.balanceOf(owner) == 0 && tk.writtenVolume(owner) == 0) {\n            Arrays.removeItem(book[owner], _tk);\n        }\n    }\n\n    function liquidateExpired(address _tk, address[] calldata owners) external {\n\n        OptionData memory opt = options[_tk];\n        OptionToken tk = OptionToken(_tk);\n        require(getUdlNow(opt) >= opt.maturity, \"option not expired\");\n        uint iv = uint(calcIntrinsicValue(opt));\n\n        for (uint i = 0; i < owners.length; i++) {\n            liquidateOptions(owners[i], opt, tk, true, iv);\n        }\n    }\n\n    function liquidateOptions(address _tk, address owner) public returns (uint value) {\n        \n        OptionData memory opt = options[_tk];\n        require(opt.udlFeed != address(0), \"token not found\");\n\n        OptionToken tk = OptionToken(_tk);\n        require(tk.writtenVolume(owner) > 0, \"invalid token\");\n\n        bool isExpired = getUdlNow(opt) >= opt.maturity;\n        uint iv = uint(calcIntrinsicValue(opt));\n        \n        value = liquidateOptions(owner, opt, tk, isExpired, iv);\n    }\n\n    function calcDebt(address owner) external view returns (uint debt) {\n\n        debt = creditProvider.calcDebt(owner);\n    }\n    \n    function calcSurplus(address owner) public view returns (uint) {\n        \n        uint coll = calcCollateral(owner);\n        uint bal = creditProvider.balanceOf(owner);\n        if (bal >= coll) {\n            return bal.sub(coll);\n        }\n        return 0;\n    }\n\n    function setCollateral(address owner) external {\n\n        collateral[owner] = calcCollateral(owner);\n    }\n    \n    function calcCollateral(address owner) public view returns (uint) {\n        \n        int coll;\n        address[] memory _book = book[owner];\n\n        for (uint i = 0; i < _book.length; i++) {\n\n            address _tk = _book[i];\n            OptionToken tk = OptionToken(_tk);\n            OptionData memory opt = options[_tk];\n\n            uint written = tk.uncoveredVolume(owner);\n            uint holding = tk.balanceOf(owner);\n\n            coll = coll.add(\n                calcIntrinsicValue(opt).mul(\n                    int(written).sub(int(holding))\n                )\n            ).add(int(calcCollateral(feeds[opt.udlFeed].upperVol, written, opt)));\n        }\n\n        coll = coll.div(int(volumeBase));\n\n        if (coll < 0)\n            return 0;\n        return uint(coll);\n    }\n\n    function calcCollateral(\n        address udlFeed,\n        uint volume,\n        OptionType optType,\n        uint strike, \n        uint maturity\n    )\n        public\n        view\n        returns (uint)\n    {\n        (OptionData memory opt,) = createOptionInMemory(udlFeed, optType, strike, maturity);\n        return calcCollateral(opt, volume);\n    }\n\n    function calcExpectedPayout(address owner) external view returns (int payout) {\n\n        address[] memory _book = book[owner];\n\n        for (uint i = 0; i < _book.length; i++) {\n\n            OptionToken tk = OptionToken(_book[i]);\n            OptionData memory opt = options[_book[i]];\n\n            uint written = tk.writtenVolume(owner);\n            uint holding = tk.balanceOf(owner);\n\n            payout = payout.add(\n                calcIntrinsicValue(opt).mul(\n                    int(holding).sub(int(written))\n                )\n            );\n        }\n\n        payout = payout.div(int(volumeBase));\n    }\n    \n    function calcIntrinsicValue(address _tk) external view returns (int) {\n        \n        return calcIntrinsicValue(options[_tk]);\n    }\n\n    function calcIntrinsicValue(\n        address udlFeed,\n        OptionType optType,\n        uint strike, \n        uint maturity\n    )\n        external\n        view\n        returns (int)\n    {\n        (OptionData memory opt,) = createOptionInMemory(udlFeed, optType, strike, maturity);\n        return calcIntrinsicValue(opt);\n    }\n\n    function getUnderlyingPrice(string calldata symbol) external view returns (int) {\n        \n        address _ts = tokenAddress[symbol];\n        require(_ts != address(0), \"token not found\");\n        return getUdlPrice(options[_ts]);\n    }\n\n    function resolveToken(string memory symbol) public view returns (address) {\n        \n        address addr = tokenAddress[symbol];\n        require(addr != address(0), \"token not found\");\n        return addr;\n    }\n\n    function prefetchFeedData(address udlFeed) public {\n        \n        feeds[udlFeed] = getFeedData(udlFeed);\n    }\n\n    function getBook(address owner)\n        external view\n        returns (\n            string memory symbols,\n            address[] memory tokens,\n            uint[] memory holding,\n            uint[] memory written,\n            int[] memory iv\n        )\n    {\n        tokens = book[owner];\n        holding = new uint[](tokens.length);\n        written = new uint[](tokens.length);\n        iv = new int[](tokens.length);\n\n        for (uint i = 0; i < tokens.length; i++) {\n            OptionToken tk = OptionToken(tokens[i]);\n            OptionData memory opt = options[tokens[i]];\n            if (i == 0) {\n                symbols = getOptionSymbol(opt);\n            } else {\n                symbols = string(abi.encodePacked(symbols, \"\\n\", getOptionSymbol(opt)));\n            }\n            holding[i] = tk.balanceOf(owner);\n            written[i] = tk.writtenVolume(owner);\n            iv[i] = calcIntrinsicValue(opt);\n        }\n    }\n\n    function ensureFunds(address owner) private view {\n        \n        require(\n            creditProvider.balanceOf(owner) >= collateral[owner],\n            \"insufficient collateral\"\n        );\n    }\n\n    function createOptionInMemory(\n        address udlFeed,\n        OptionType optType,\n        uint strike, \n        uint maturity\n    )\n        private\n        view\n        returns (OptionData memory opt, string memory symbol)\n    {\n        opt = OptionData(udlFeed, optType, strike.toUint120(), maturity.toUint32());\n        symbol = getOptionSymbol(opt);\n    }\n\n    function writeOptionsInternal(\n        OptionData memory opt,\n        string memory symbol,\n        uint volume,\n        address to\n    )\n        private \n        returns (address _tk)\n    {\n        ensureFeedIsAlowed(opt.udlFeed);\n        require(volume > 0, \"invalid volume\");\n        require(opt.maturity > time.getNow(), \"invalid maturity\");\n\n        _tk = tokenAddress[symbol];\n        if (_tk == address(0)) {\n            _tk = createSymbol(opt.udlFeed, opt._type, opt.strike, opt.maturity);\n        }\n\n        OptionToken tk = OptionToken(_tk);\n        if (tk.writtenVolume(msg.sender) == 0 && tk.balanceOf(msg.sender) == 0) {\n            book[msg.sender].push(_tk);\n        }\n        if (msg.sender != to && tk.writtenVolume(to) == 0 && tk.balanceOf(to) == 0) {\n            book[to].push(_tk);\n        }\n        tk.issue(msg.sender, to, volume);\n\n        if (options[_tk].udlFeed == address(0)) {\n            options[_tk] = opt;\n        }\n        \n        uint v = MoreMath.min(volume, tk.uncoveredVolume(msg.sender));\n        if (v > 0) {\n            collateral[msg.sender] = collateral[msg.sender].add(\n                calcCollateral(opt, v)\n            );\n        }\n\n        emit WriteOptions(_tk, msg.sender, to, volume);\n    }\n\n    function liquidateOptions(\n        address owner,\n        OptionData memory opt,\n        OptionToken tk,\n        bool isExpired,\n        uint iv\n    )\n        private\n        returns (uint value)\n    {\n        uint written = isExpired ?\n            tk.writtenVolume(owner) :\n            tk.uncoveredVolume(owner);\n        iv = iv.mul(written);\n\n        if (isExpired) {\n            value = liquidateAfterMaturity(owner, tk, opt.udlFeed, written, iv);\n            emit LiquidateExpired(address(tk), msg.sender, owner, written);\n        } else {\n            require(written > 0, \"invalid volume\");\n            value = liquidateBeforeMaturity(owner, opt, tk, written, iv);\n        }\n    }\n\n    function liquidateAfterMaturity(\n        address owner,\n        OptionToken tk,\n        address feed,\n        uint written,\n        uint iv\n    )\n        private\n        returns (uint value)\n    {\n        if (iv > 0) {\n            value = iv.div(volumeBase);\n            vault.liquidate(owner, address(tk), feed, value);\n            creditProvider.processPayment(owner, address(tk), value);\n        }\n\n        vault.release(owner, address(tk), feed, uint(-1));\n\n        if (written > 0) {\n            tk.burn(owner, written);\n        }\n    }\n\n    function liquidateBeforeMaturity(\n        address owner,\n        OptionData memory opt,\n        OptionToken tk,\n        uint written,\n        uint iv\n    )\n        private\n        returns (uint value)\n    {\n        FeedData memory fd = feeds[opt.udlFeed];\n\n        uint volume = calcLiquidationVolume(owner, opt, fd, written);\n        value = calcLiquidationValue(opt, fd.lowerVol, written, volume, iv)\n            .div(volumeBase);\n        creditProvider.processPayment(owner, address(tk), value);\n\n        if (volume > 0) {\n            tk.burn(owner, volume);\n        }\n\n        emit LiquidateEarly(address(tk), msg.sender, owner, volume);\n    }\n\n    function calcLiquidationVolume(\n        address owner,\n        OptionData memory opt,\n        FeedData memory fd,\n        uint written\n    )\n        private\n        view\n        returns (uint volume)\n    {    \n        uint bal = creditProvider.balanceOf(owner);\n        uint coll = calcCollateral(owner);\n        require(coll > bal, \"unfit for liquidation\");\n\n        volume = coll.sub(bal).mul(volumeBase).mul(written).div(\n            calcCollateral(\n                uint(fd.upperVol).sub(uint(fd.lowerVol)),\n                written,\n                opt\n            )\n        );\n\n        volume = MoreMath.min(volume, written);\n    }\n\n    function calcLiquidationValue(\n        OptionData memory opt,\n        uint vol,\n        uint written,\n        uint volume,\n        uint iv\n    )\n        private\n        view\n        returns (uint value)\n    {    \n        value = calcCollateral(vol, written, opt).add(iv).mul(volume).div(written);\n    }\n\n    function getFeedData(address udlFeed) private view returns (FeedData memory fd) {\n        \n        UnderlyingFeed feed = UnderlyingFeed(udlFeed);\n\n        uint vol = feed.getDailyVolatility(settings.getVolatilityPeriod());\n\n        fd = FeedData(\n            feed.calcLowerVolatility(uint(vol)).toUint120(),\n            feed.calcUpperVolatility(uint(vol)).toUint120()\n        );\n    }\n\n    function getOptionSymbol(OptionData memory opt) private view returns (string memory symbol) {    \n\n        symbol = getOptionSymbol(\n            opt.udlFeed,\n            opt._type,\n            opt.strike,\n            opt.maturity\n        );\n    }\n\n    function calcCollateral(\n        OptionData memory opt,\n        uint volume\n    )\n        private\n        view\n        returns (uint)\n    {\n        FeedData memory fd = feeds[opt.udlFeed];\n        if (fd.lowerVol == 0 || fd.upperVol == 0) {\n            fd = getFeedData(opt.udlFeed);\n        }\n\n        int coll = calcIntrinsicValue(opt).mul(int(volume)).add(\n            int(calcCollateral(fd.upperVol, volume, opt))\n        ).div(int(volumeBase));\n\n        if (opt._type == OptionType.PUT) {\n            int max = int(uint(opt.strike).mul(volume).div(volumeBase));\n            coll = MoreMath.min(coll, max);\n        }\n\n        return coll > 0 ? uint(coll) : 0;\n    }\n    \n    function calcCollateral(uint vol, uint volume, OptionData memory opt) private view returns (uint) {\n        \n        return (vol.mul(volume).mul(\n            MoreMath.sqrt(daysToMaturity(opt)))\n        ).div(sqrtTimeBase);\n    }\n    \n    function calcIntrinsicValue(OptionData memory opt) private view returns (int value) {\n        \n        int udlPrice = getUdlPrice(opt);\n        int strike = int(opt.strike);\n\n        if (opt._type == OptionType.CALL) {\n            value = MoreMath.max(0, udlPrice.sub(strike));\n        } else if (opt._type == OptionType.PUT) {\n            value = MoreMath.max(0, strike.sub(udlPrice));\n        }\n    }\n    \n    function daysToMaturity(OptionData memory opt) private view returns (uint d) {\n        \n        uint _now = getUdlNow(opt);\n        if (opt.maturity > _now) {\n            d = (timeBase.mul(uint(opt.maturity).sub(uint(_now)))).div(1 days);\n        } else {\n            d = 0;\n        }\n    }\n\n    function getUdlPrice(OptionData memory opt) private view returns (int answer) {\n\n        if (opt.maturity > time.getNow()) {\n            (,answer) = UnderlyingFeed(opt.udlFeed).getLatestPrice();\n        } else {\n            (,answer) = UnderlyingFeed(opt.udlFeed).getPrice(opt.maturity);\n        }\n    }\n\n    function getUnderlyingAddr(OptionData memory opt) private view returns (address) {\n        \n        return UnderlyingFeed(opt.udlFeed).getUnderlyingAddr();\n    }\n\n    function getUdlNow(OptionData memory opt) private view returns (uint timestamp) {\n\n        (timestamp,) = UnderlyingFeed(opt.udlFeed).getLatestPrice();\n    }\n\n    function ensureFeedIsAlowed(address udlFeed) private view {\n        \n        require(settings.getUdlFeed(udlFeed) > 0, \"feed not allowed\");\n    }\n}\n",
  "sourcePath": "/Users/dev/Documents/coding/defioptions/DeFiOptions-contracts/contracts/finance/OptionsExchange.sol",
  "compiler": {
    "name": "solc",
    "version": "0.6.0+commit.26b70077.Emscripten.clang"
  },
  "schemaVersion": "3.3.3",
  "updatedAt": "2021-10-20T12:34:57.429Z",
  "devdoc": {
    "methods": {}
  },
  "userdoc": {
    "methods": {}
  }
}