{
  "contractName": "PoolManagementProposal",
  "abi": [
    {
      "anonymous": false,
      "inputs": [
        {
          "indexed": true,
          "internalType": "address",
          "name": "previousOwner",
          "type": "address"
        },
        {
          "indexed": true,
          "internalType": "address",
          "name": "newOwner",
          "type": "address"
        }
      ],
      "name": "OwnershipTransferred",
      "type": "event"
    },
    {
      "inputs": [],
      "name": "owner",
      "outputs": [
        {
          "internalType": "address",
          "name": "",
          "type": "address"
        }
      ],
      "stateMutability": "view",
      "type": "function"
    },
    {
      "inputs": [],
      "name": "renounceOwnership",
      "outputs": [],
      "stateMutability": "nonpayable",
      "type": "function"
    },
    {
      "inputs": [
        {
          "internalType": "address",
          "name": "newOwner",
          "type": "address"
        }
      ],
      "name": "transferOwnership",
      "outputs": [],
      "stateMutability": "nonpayable",
      "type": "function"
    },
    {
      "inputs": [
        {
          "internalType": "bytes[]",
          "name": "_executionBytes",
          "type": "bytes[]"
        }
      ],
      "name": "setexecutionBytes",
      "outputs": [],
      "stateMutability": "nonpayable",
      "type": "function"
    },
    {
      "inputs": [],
      "name": "getExecutionBytes",
      "outputs": [
        {
          "internalType": "bytes[]",
          "name": "",
          "type": "bytes[]"
        }
      ],
      "stateMutability": "view",
      "type": "function"
    },
    {
      "inputs": [],
      "name": "getName",
      "outputs": [
        {
          "internalType": "string",
          "name": "",
          "type": "string"
        }
      ],
      "stateMutability": "view",
      "type": "function"
    },
    {
      "inputs": [
        {
          "internalType": "contract IProtocolSettings",
          "name": "_settings",
          "type": "address"
        }
      ],
      "name": "execute",
      "outputs": [],
      "stateMutability": "nonpayable",
      "type": "function"
    },
    {
      "inputs": [
        {
          "internalType": "contract IERC20",
          "name": "pool",
          "type": "address"
        }
      ],
      "name": "executePool",
      "outputs": [],
      "stateMutability": "nonpayable",
      "type": "function"
    }
  ],
  "bytecode": "0x60806040526100266100186001600160e01b0361002b16565b6001600160e01b0361002f16565b61007f565b3390565b600080546001600160a01b038381166001600160a01b0319831681178455604051919092169283917f8be0079c531659141344cd1fd0a4f28419497f9722a3daafe3b4186f6b6457e09190a35050565b6108dc8061008e6000396000f3fe608060405234801561001057600080fd5b50600436106100885760003560e01c8063715018a61161005b578063715018a6146100e657806380452a77146100ee5780638da5cb5b14610103578063f2fde38b1461011857610088565b806317d7de7c1461008d5780632d79b26d146100ab5780634b64e492146100c05780636c8abe75146100d3575b600080fd5b61009561012b565b6040516100a291906107ae565b60405180910390f35b6100be6100b93660046105e5565b610163565b005b6100be6100ce3660046105c2565b610182565b6100be6100e13660046105c2565b610185565b6100be61023c565b6100f6610250565b6040516100a2919061074e565b61010b610328565b6040516100a2919061073a565b6100be6101263660046105c2565b610337565b60408051808201909152601981527f506f6f6c204d616e6167656d656e74204f7065726174696f6e0000000000000060208201525b90565b61016b61036e565b805161017e906001906020840190610401565b5050565b50565b6001546101ad5760405162461bcd60e51b81526004016101a490610807565b60405180910390fd5b60005b60015481101561017e576000826001600160a01b0316600183815481106101d357fe5b906000526020600020016040516101ea91906106cb565b6000604051808303816000865af19150503d8060008114610227576040519150601f19603f3d011682016040523d82523d6000602084013e61022c565b606091505b5050600190920191506101b09050565b61024461036e565b61024e60006103ad565b565b60606001805480602002602001604051908101604052809291908181526020016000905b8282101561031f5760008481526020908190208301805460408051601f600260001961010060018716150201909416939093049283018590048502810185019091528181529283018282801561030b5780601f106102e05761010080835404028352916020019161030b565b820191906000526020600020905b8154815290600101906020018083116102ee57829003601f168201915b505050505081526020019060010190610274565b50505050905090565b6000546001600160a01b031690565b61033f61036e565b6001600160a01b0381166103655760405162461bcd60e51b81526004016101a4906107c1565b610182816103ad565b6103766103fd565b6001600160a01b0316610387610328565b6001600160a01b03161461024e5760405162461bcd60e51b81526004016101a490610835565b600080546001600160a01b038381166001600160a01b0319831681178455604051919092169283917f8be0079c531659141344cd1fd0a4f28419497f9722a3daafe3b4186f6b6457e09190a35050565b3390565b82805482825590600052602060002090810192821561044e579160200282015b8281111561044e578251805161043e91849160209091019061045e565b5091602001919060010190610421565b5061045a9291506104d8565b5090565b828054600181600116156101000203166002900490600052602060002090601f016020900481019282601f1061049f57805160ff19168380011785556104cc565b828001600101855582156104cc579182015b828111156104cc5782518255916020019190600101906104b1565b5061045a9291506104fb565b61016091905b8082111561045a5760006104f28282610515565b506001016104de565b61016091905b8082111561045a5760008155600101610501565b50805460018160011615610100020316600290046000825580601f1061053b5750610182565b601f01602090049060005260206000209081019061018291906104fb565b600082601f830112610569578081fd5b813567ffffffffffffffff81111561057f578182fd5b610592601f8201601f191660200161086a565b91508082528360208285010111156105a957600080fd5b8060208401602084013760009082016020015292915050565b6000602082840312156105d3578081fd5b81356105de81610891565b9392505050565b600060208083850312156105f7578182fd5b823567ffffffffffffffff8082111561060e578384fd5b81850186601f82011261061f578485fd5b803592508183111561062f578485fd5b61063c848585020161086a565b8381528481019250818501865b85811015610672576106608a888435870101610559565b85529386019390860190600101610649565b509098975050505050505050565b60008151808452815b818110156106a557602081850181015186830182015201610689565b818111156106b65782602083870101525b50601f01601f19169290920160200192915050565b600080835460018116600081146106e9576001811461070057610730565b60ff198216855260028204607f1685019250610730565b6002820486855260208520855b828110156107295781548882015260019091019060200161070d565b5050850192505b5090949350505050565b6001600160a01b0391909116815260200190565b6000602080830181845280855180835260408601915060408482028701019250838701855b828110156107a157603f1988860301845261078f858351610680565b94509285019290850190600101610773565b5092979650505050505050565b6000602082526105de6020830184610680565b60208082526026908201527f4f776e61626c653a206e6577206f776e657220697320746865207a65726f206160408201526564647265737360d01b606082015260800190565b6020808252601490820152731b9bc8199d5b98dd1a5bdb9cc81d1bc818d85b1b60621b604082015260600190565b6020808252818101527f4f776e61626c653a2063616c6c6572206973206e6f7420746865206f776e6572604082015260600190565b60405181810167ffffffffffffffff8111828210171561088957600080fd5b604052919050565b6001600160a01b038116811461018257600080fdfea264697066735822122026e36851b56dfbc99e18266debf569df513d1b512492c1a3ac8a6e8c2a076db564736f6c63430006000033"
}