{
  "contractName": "PoolManagementProposal",
  "abi": [
    {
      "inputs": [
        {
          "internalType": "string[]",
          "name": "_executionBytes",
          "type": "string[]"
        }
      ],
      "name": "setexecutionBytes",
      "outputs": [],
      "stateMutability": "nonpayable",
      "type": "function"
    },
    {
      "inputs": [],
      "name": "getExecutionBytes",
      "outputs": [
        {
          "internalType": "string[]",
          "name": "",
          "type": "string[]"
        }
      ],
      "stateMutability": "view",
      "type": "function"
    },
    {
      "inputs": [],
      "name": "getName",
      "outputs": [
        {
          "internalType": "string",
          "name": "",
          "type": "string"
        }
      ],
      "stateMutability": "view",
      "type": "function"
    },
    {
      "inputs": [
        {
          "internalType": "contract IProtocolSettings",
          "name": "_settings",
          "type": "address"
        }
      ],
      "name": "execute",
      "outputs": [],
      "stateMutability": "nonpayable",
      "type": "function"
    },
    {
      "inputs": [
        {
          "internalType": "contract IERC20",
          "name": "pool",
          "type": "address"
        }
      ],
      "name": "executePool",
      "outputs": [],
      "stateMutability": "nonpayable",
      "type": "function"
    }
  ],
  "bytecode": "0x608060405234801561001057600080fd5b506106e5806100206000396000f3fe608060405234801561001057600080fd5b50600436106100575760003560e01c806317d7de7c1461005c5780634b64e4921461007a5780636c8abe751461008f57806380452a77146100a25780639da90a7b146100b7575b600080fd5b6100646100ca565b6040516100719190610632565b60405180910390f35b61008d6100883660046104f5565b610102565b005b61008d61009d3660046104f5565b610105565b6100aa6101b9565b60405161007191906105d2565b61008d6100c536600461040f565b610291565b60408051808201909152601981527f506f6f6c204d616e6167656d656e74204f7065726174696f6e0000000000000060208201525b90565b50565b60005461012d5760405162461bcd60e51b815260040161012490610645565b60405180910390fd5b60005b6000548110156101b557816001600160a01b03166000828154811061015157fe5b906000526020600020016040516101689190610563565b6000604051808303816000865af19150503d80600081146101a5576040519150601f19603f3d011682016040523d82523d6000602084013e6101aa565b606091505b505050600101610130565b5050565b60606000805480602002602001604051908101604052809291908181526020016000905b828210156102885760008481526020908190208301805460408051601f60026000196101006001871615020190941693909304928301859004850281018501909152818152928301828280156102745780601f1061024957610100808354040283529160200191610274565b820191906000526020600020905b81548152906001019060200180831161025757829003601f168201915b5050505050815260200190600101906101dd565b50505050905090565b8051600080548282558180526101b5927f290decd9548b62a8d60345a988386fc84ba6bc95484008f6362f93160ef3e56391820191602086018215610304579160200282015b8281111561030457825180516102f4918491602090910190610314565b50916020019190600101906102d7565b5061031092915061038e565b5090565b828054600181600116156101000203166002900490600052602060002090601f016020900481019282601f1061035557805160ff1916838001178555610382565b82800160010185558215610382579182015b82811115610382578251825591602001919060010190610367565b506103109291506103b1565b6100ff91905b808211156103105760006103a882826103cb565b50600101610394565b6100ff91905b8082111561031057600081556001016103b7565b50805460018160011615610100020316600290046000825580601f106103f15750610102565b601f01602090049060005260206000209081019061010291906103b1565b60006020808385031215610421578182fd5b823567ffffffffffffffff80821115610438578384fd5b81850186601f820112610449578485fd5b8035925081831115610459578485fd5b6104668485850201610673565b83815284810190828601875b868110156104e657813585018b603f82011261048c57898afd5b888101358781111561049c578a8bfd5b6104ae601f8201601f19168b01610673565b8181528d60408385010111156104c2578b8cfd5b81604084018c8301379081018a018b90528552509287019290870190600101610472565b50909998505050505050505050565b600060208284031215610506578081fd5b81356105118161069a565b9392505050565b60008151808452815b8181101561053d57602081850181015186830182015201610521565b8181111561054e5782602083870101525b50601f01601f19169290920160200192915050565b600080835460018116600081146105815760018114610598576105c8565b60ff198216855260028204607f16850192506105c8565b6002820486855260208520855b828110156105c1578154888201526001909101906020016105a5565b5050850192505b5090949350505050565b6000602080830181845280855180835260408601915060408482028701019250838701855b8281101561062557603f19888603018452610613858351610518565b945092850192908501906001016105f7565b5092979650505050505050565b6000602082526105116020830184610518565b6020808252601490820152731b9bc8199d5b98dd1a5bdb9cc81d1bc818d85b1b60621b604082015260600190565b60405181810167ffffffffffffffff8111828210171561069257600080fd5b604052919050565b6001600160a01b038116811461010257600080fdfea2646970667358221220a80e777f817c1a4c3704ad559421499caacb23364dece6f78fdcb240c22bf09864736f6c63430006000033"
}