{
  "contractName": "PoolManagementProposal",
  "abi": [
    {
      "anonymous": false,
      "inputs": [
        {
          "indexed": true,
          "internalType": "address",
          "name": "previousOwner",
          "type": "address"
        },
        {
          "indexed": true,
          "internalType": "address",
          "name": "newOwner",
          "type": "address"
        }
      ],
      "name": "OwnershipTransferred",
      "type": "event"
    },
    {
      "inputs": [],
      "name": "owner",
      "outputs": [
        {
          "internalType": "address",
          "name": "",
          "type": "address"
        }
      ],
      "stateMutability": "view",
      "type": "function"
    },
    {
      "inputs": [],
      "name": "renounceOwnership",
      "outputs": [],
      "stateMutability": "nonpayable",
      "type": "function"
    },
    {
      "inputs": [
        {
          "internalType": "address",
          "name": "newOwner",
          "type": "address"
        }
      ],
      "name": "transferOwnership",
      "outputs": [],
      "stateMutability": "nonpayable",
      "type": "function"
    },
    {
      "inputs": [
        {
          "internalType": "string[]",
          "name": "_executionBytes",
          "type": "string[]"
        }
      ],
      "name": "setexecutionBytes",
      "outputs": [],
      "stateMutability": "nonpayable",
      "type": "function"
    },
    {
      "inputs": [],
      "name": "getExecutionBytes",
      "outputs": [
        {
          "internalType": "string[]",
          "name": "",
          "type": "string[]"
        }
      ],
      "stateMutability": "view",
      "type": "function"
    },
    {
      "inputs": [],
      "name": "getName",
      "outputs": [
        {
          "internalType": "string",
          "name": "",
          "type": "string"
        }
      ],
      "stateMutability": "view",
      "type": "function"
    },
    {
      "inputs": [
        {
          "internalType": "contract IProtocolSettings",
          "name": "_settings",
          "type": "address"
        }
      ],
      "name": "execute",
      "outputs": [],
      "stateMutability": "nonpayable",
      "type": "function"
    },
    {
      "inputs": [
        {
          "internalType": "contract IERC20",
          "name": "pool",
          "type": "address"
        }
      ],
      "name": "executePool",
      "outputs": [],
      "stateMutability": "nonpayable",
      "type": "function"
    }
  ],
  "bytecode": "0x60806040526100266100186001600160e01b0361002b16565b6001600160e01b0361002f16565b61007f565b3390565b600080546001600160a01b038381166001600160a01b0319831681178455604051919092169283917f8be0079c531659141344cd1fd0a4f28419497f9722a3daafe3b4186f6b6457e09190a35050565b6108b78061008e6000396000f3fe608060405234801561001057600080fd5b50600436106100885760003560e01c806380452a771161005b57806380452a77146100db5780638da5cb5b146100f05780639da90a7b14610105578063f2fde38b1461011857610088565b806317d7de7c1461008d5780634b64e492146100ab5780636c8abe75146100c0578063715018a6146100d3575b600080fd5b61009561012b565b6040516100a29190610789565b60405180910390f35b6100be6100b9366004610552565b610163565b005b6100be6100ce366004610552565b610166565b6100be61021a565b6100e361022e565b6040516100a29190610729565b6100f8610306565b6040516100a29190610715565b6100be610113366004610575565b610315565b6100be610126366004610552565b610330565b60408051808201909152601981527f506f6f6c204d616e6167656d656e74204f7065726174696f6e0000000000000060208201525b90565b50565b60015461018e5760405162461bcd60e51b8152600401610185906107e2565b60405180910390fd5b60005b60015481101561021657816001600160a01b0316600182815481106101b257fe5b906000526020600020016040516101c991906106a6565b6000604051808303816000865af19150503d8060008114610206576040519150601f19603f3d011682016040523d82523d6000602084013e61020b565b606091505b505050600101610191565b5050565b610222610367565b61022c60006103a6565b565b60606001805480602002602001604051908101604052809291908181526020016000905b828210156102fd5760008481526020908190208301805460408051601f60026000196101006001871615020190941693909304928301859004850281018501909152818152928301828280156102e95780601f106102be576101008083540402835291602001916102e9565b820191906000526020600020905b8154815290600101906020018083116102cc57829003601f168201915b505050505081526020019060010190610252565b50505050905090565b6000546001600160a01b031690565b61031d610367565b80516102169060019060208401906103fa565b610338610367565b6001600160a01b03811661035e5760405162461bcd60e51b81526004016101859061079c565b610163816103a6565b61036f6103f6565b6001600160a01b0316610380610306565b6001600160a01b03161461022c5760405162461bcd60e51b815260040161018590610810565b600080546001600160a01b038381166001600160a01b0319831681178455604051919092169283917f8be0079c531659141344cd1fd0a4f28419497f9722a3daafe3b4186f6b6457e09190a35050565b3390565b828054828255906000526020600020908101928215610447579160200282015b828111156104475782518051610437918491602090910190610457565b509160200191906001019061041a565b506104539291506104d1565b5090565b828054600181600116156101000203166002900490600052602060002090601f016020900481019282601f1061049857805160ff19168380011785556104c5565b828001600101855582156104c5579182015b828111156104c55782518255916020019190600101906104aa565b506104539291506104f4565b61016091905b808211156104535760006104eb828261050e565b506001016104d7565b61016091905b8082111561045357600081556001016104fa565b50805460018160011615610100020316600290046000825580601f106105345750610163565b601f01602090049060005260206000209081019061016391906104f4565b600060208284031215610563578081fd5b813561056e8161086c565b9392505050565b60006020808385031215610587578182fd5b823567ffffffffffffffff8082111561059e578384fd5b81850186601f8201126105af578485fd5b80359250818311156105bf578485fd5b6105cc8485850201610845565b83815284810190828601875b8681101561064c57813585018b603f8201126105f257898afd5b8881013587811115610602578a8bfd5b610614601f8201601f19168b01610845565b8181528d6040838501011115610628578b8cfd5b81604084018c8301379081018a018b905285525092870192908701906001016105d8565b50909998505050505050505050565b60008151808452815b8181101561068057602081850181015186830182015201610664565b818111156106915782602083870101525b50601f01601f19169290920160200192915050565b600080835460018116600081146106c457600181146106db5761070b565b60ff198216855260028204607f168501925061070b565b6002820486855260208520855b82811015610704578154888201526001909101906020016106e8565b5050850192505b5090949350505050565b6001600160a01b0391909116815260200190565b6000602080830181845280855180835260408601915060408482028701019250838701855b8281101561077c57603f1988860301845261076a85835161065b565b9450928501929085019060010161074e565b5092979650505050505050565b60006020825261056e602083018461065b565b60208082526026908201527f4f776e61626c653a206e6577206f776e657220697320746865207a65726f206160408201526564647265737360d01b606082015260800190565b6020808252601490820152731b9bc8199d5b98dd1a5bdb9cc81d1bc818d85b1b60621b604082015260600190565b6020808252818101527f4f776e61626c653a2063616c6c6572206973206e6f7420746865206f776e6572604082015260600190565b60405181810167ffffffffffffffff8111828210171561086457600080fd5b604052919050565b6001600160a01b038116811461016357600080fdfea2646970667358221220d21fe351118782f1099ed2c263a3713ca45d3b8339d5556767c067dffd5e3b6364736f6c63430006000033"
}