{
  "contractName": "PoolManagementProposal",
  "abi": [
    {
      "anonymous": false,
      "inputs": [
        {
          "indexed": true,
          "internalType": "address",
          "name": "previousOwner",
          "type": "address"
        },
        {
          "indexed": true,
          "internalType": "address",
          "name": "newOwner",
          "type": "address"
        }
      ],
      "name": "OwnershipTransferred",
      "type": "event"
    },
    {
      "inputs": [],
      "name": "owner",
      "outputs": [
        {
          "internalType": "address",
          "name": "",
          "type": "address"
        }
      ],
      "stateMutability": "view",
      "type": "function"
    },
    {
      "inputs": [],
      "name": "renounceOwnership",
      "outputs": [],
      "stateMutability": "nonpayable",
      "type": "function"
    },
    {
      "inputs": [
        {
          "internalType": "address",
          "name": "newOwner",
          "type": "address"
        }
      ],
      "name": "transferOwnership",
      "outputs": [],
      "stateMutability": "nonpayable",
      "type": "function"
    },
    {
      "inputs": [
        {
          "internalType": "bytes[]",
          "name": "_executionBytes",
          "type": "bytes[]"
        }
      ],
      "name": "setExecutionBytes",
      "outputs": [],
      "stateMutability": "nonpayable",
      "type": "function"
    },
    {
      "inputs": [],
      "name": "getExecutionBytes",
      "outputs": [
        {
          "internalType": "bytes[]",
          "name": "",
          "type": "bytes[]"
        }
      ],
      "stateMutability": "view",
      "type": "function"
    },
    {
      "inputs": [],
      "name": "getName",
      "outputs": [
        {
          "internalType": "string",
          "name": "",
          "type": "string"
        }
      ],
      "stateMutability": "view",
      "type": "function"
    },
    {
      "inputs": [
        {
          "internalType": "contract IProtocolSettings",
          "name": "_settings",
          "type": "address"
        }
      ],
      "name": "execute",
      "outputs": [],
      "stateMutability": "nonpayable",
      "type": "function"
    },
    {
      "inputs": [
        {
          "internalType": "contract IERC20",
          "name": "pool",
          "type": "address"
        }
      ],
      "name": "executePool",
      "outputs": [],
      "stateMutability": "nonpayable",
      "type": "function"
    }
  ],
  "bytecode": "0x60806040526100266100186001600160e01b0361002b16565b6001600160e01b0361002f16565b61007f565b3390565b600080546001600160a01b038381166001600160a01b0319831681178455604051919092169283917f8be0079c531659141344cd1fd0a4f28419497f9722a3daafe3b4186f6b6457e09190a35050565b6109338061008e6000396000f3fe608060405234801561001057600080fd5b50600436106100885760003560e01c806380452a771161005b57806380452a77146100db5780638da5cb5b146100f05780639de76db814610105578063f2fde38b1461011857610088565b806317d7de7c1461008d5780634b64e492146100ab5780636c8abe75146100c0578063715018a6146100d3575b600080fd5b61009561012b565b6040516100a291906107ce565b60405180910390f35b6100be6100b93660046105e2565b610163565b005b6100be6100ce3660046105e2565b610166565b6100be610241565b6100e3610255565b6040516100a2919061076e565b6100f861032d565b6040516100a2919061075a565b6100be610113366004610605565b61033c565b6100be6101263660046105e2565b610357565b60408051808201909152601981527f506f6f6c204d616e6167656d656e74204f7065726174696f6e0000000000000060208201525b90565b50565b60015461018e5760405162461bcd60e51b81526004016101859061085e565b60405180910390fd5b60005b60015481101561023d576000826001600160a01b0316600183815481106101b457fe5b906000526020600020016040516101cb91906106eb565b6000604051808303816000865af19150503d8060008114610208576040519150601f19603f3d011682016040523d82523d6000602084013e61020d565b606091505b50909150506001811515146102345760405162461bcd60e51b815260040161018590610827565b50600101610191565b5050565b61024961038e565b61025360006103cd565b565b60606001805480602002602001604051908101604052809291908181526020016000905b828210156103245760008481526020908190208301805460408051601f60026000196101006001871615020190941693909304928301859004850281018501909152818152928301828280156103105780601f106102e557610100808354040283529160200191610310565b820191906000526020600020905b8154815290600101906020018083116102f357829003601f168201915b505050505081526020019060010190610279565b50505050905090565b6000546001600160a01b031690565b61034461038e565b805161023d906001906020840190610421565b61035f61038e565b6001600160a01b0381166103855760405162461bcd60e51b8152600401610185906107e1565b610163816103cd565b61039661041d565b6001600160a01b03166103a761032d565b6001600160a01b0316146102535760405162461bcd60e51b81526004016101859061088c565b600080546001600160a01b038381166001600160a01b0319831681178455604051919092169283917f8be0079c531659141344cd1fd0a4f28419497f9722a3daafe3b4186f6b6457e09190a35050565b3390565b82805482825590600052602060002090810192821561046e579160200282015b8281111561046e578251805161045e91849160209091019061047e565b5091602001919060010190610441565b5061047a9291506104f8565b5090565b828054600181600116156101000203166002900490600052602060002090601f016020900481019282601f106104bf57805160ff19168380011785556104ec565b828001600101855582156104ec579182015b828111156104ec5782518255916020019190600101906104d1565b5061047a92915061051b565b61016091905b8082111561047a5760006105128282610535565b506001016104fe565b61016091905b8082111561047a5760008155600101610521565b50805460018160011615610100020316600290046000825580601f1061055b5750610163565b601f016020900490600052602060002090810190610163919061051b565b600082601f830112610589578081fd5b813567ffffffffffffffff81111561059f578182fd5b6105b2601f8201601f19166020016108c1565b91508082528360208285010111156105c957600080fd5b8060208401602084013760009082016020015292915050565b6000602082840312156105f3578081fd5b81356105fe816108e8565b9392505050565b60006020808385031215610617578182fd5b823567ffffffffffffffff8082111561062e578384fd5b81850186601f82011261063f578485fd5b803592508183111561064f578485fd5b61065c84858502016108c1565b8381528481019250818501865b85811015610692576106808a888435870101610579565b85529386019390860190600101610669565b509098975050505050505050565b60008151808452815b818110156106c5576020818501810151868301820152016106a9565b818111156106d65782602083870101525b50601f01601f19169290920160200192915050565b60008083546001811660008114610709576001811461072057610750565b60ff198216855260028204607f1685019250610750565b6002820486855260208520855b828110156107495781548882015260019091019060200161072d565b5050850192505b5090949350505050565b6001600160a01b0391909116815260200190565b6000602080830181845280855180835260408601915060408482028701019250838701855b828110156107c157603f198886030184526107af8583516106a0565b94509285019290850190600101610793565b5092979650505050505050565b6000602082526105fe60208301846106a0565b60208082526026908201527f4f776e61626c653a206e6577206f776e657220697320746865207a65726f206160408201526564647265737360d01b606082015260800190565b6020808252601d908201527f6661696c656420746f2073756365737366756c6c792065786563757465000000604082015260600190565b6020808252601490820152731b9bc8199d5b98dd1a5bdb9cc81d1bc818d85b1b60621b604082015260600190565b6020808252818101527f4f776e61626c653a2063616c6c6572206973206e6f7420746865206f776e6572604082015260600190565b60405181810167ffffffffffffffff811182821017156108e057600080fd5b604052919050565b6001600160a01b038116811461016357600080fdfea264697066735822122094cc9034184532975476f196dc178c28ccc4daf6d3b0197987a729d5cd72756364736f6c63430006000033"
}