{
  "contractName": "ProposalWrapper",
  "abi": [
    {
      "inputs": [
        {
          "internalType": "address",
          "name": "_implementation",
          "type": "address"
        },
        {
          "internalType": "address",
          "name": "_govToken",
          "type": "address"
        },
        {
          "internalType": "address",
          "name": "_manager",
          "type": "address"
        },
        {
          "internalType": "address",
          "name": "_settings",
          "type": "address"
        },
        {
          "internalType": "enum ProposalWrapper.Quorum",
          "name": "_quorum",
          "type": "uint8"
        },
        {
          "internalType": "enum ProposalWrapper.VoteType",
          "name": "_voteType",
          "type": "uint8"
        },
        {
          "internalType": "uint256",
          "name": "_expiresAt",
          "type": "uint256"
        }
      ],
      "stateMutability": "nonpayable",
      "type": "constructor"
    },
    {
      "inputs": [],
      "name": "implementation",
      "outputs": [
        {
          "internalType": "address",
          "name": "",
          "type": "address"
        }
      ],
      "stateMutability": "view",
      "type": "function"
    },
    {
      "inputs": [],
      "name": "getId",
      "outputs": [
        {
          "internalType": "uint256",
          "name": "",
          "type": "uint256"
        }
      ],
      "stateMutability": "view",
      "type": "function"
    },
    {
      "inputs": [],
      "name": "getQuorum",
      "outputs": [
        {
          "internalType": "enum ProposalWrapper.Quorum",
          "name": "",
          "type": "uint8"
        }
      ],
      "stateMutability": "view",
      "type": "function"
    },
    {
      "inputs": [],
      "name": "getStatus",
      "outputs": [
        {
          "internalType": "enum ProposalWrapper.Status",
          "name": "",
          "type": "uint8"
        }
      ],
      "stateMutability": "view",
      "type": "function"
    },
    {
      "inputs": [],
      "name": "getVoteType",
      "outputs": [
        {
          "internalType": "enum ProposalWrapper.VoteType",
          "name": "",
          "type": "uint8"
        }
      ],
      "stateMutability": "view",
      "type": "function"
    },
    {
      "inputs": [],
      "name": "getGovernanceToken",
      "outputs": [
        {
          "internalType": "address",
          "name": "",
          "type": "address"
        }
      ],
      "stateMutability": "view",
      "type": "function"
    },
    {
      "inputs": [],
      "name": "isExecutionAllowed",
      "outputs": [
        {
          "internalType": "bool",
          "name": "",
          "type": "bool"
        }
      ],
      "stateMutability": "view",
      "type": "function"
    },
    {
      "inputs": [],
      "name": "isPoolSettingsAllowed",
      "outputs": [
        {
          "internalType": "bool",
          "name": "",
          "type": "bool"
        }
      ],
      "stateMutability": "view",
      "type": "function"
    },
    {
      "inputs": [],
      "name": "isProtocolSettingsAllowed",
      "outputs": [
        {
          "internalType": "bool",
          "name": "",
          "type": "bool"
        }
      ],
      "stateMutability": "view",
      "type": "function"
    },
    {
      "inputs": [],
      "name": "isActive",
      "outputs": [
        {
          "internalType": "bool",
          "name": "",
          "type": "bool"
        }
      ],
      "stateMutability": "view",
      "type": "function"
    },
    {
      "inputs": [],
      "name": "isClosed",
      "outputs": [
        {
          "internalType": "bool",
          "name": "",
          "type": "bool"
        }
      ],
      "stateMutability": "view",
      "type": "function"
    },
    {
      "inputs": [
        {
          "internalType": "uint256",
          "name": "_id",
          "type": "uint256"
        }
      ],
      "name": "open",
      "outputs": [],
      "stateMutability": "nonpayable",
      "type": "function"
    },
    {
      "inputs": [
        {
          "internalType": "bool",
          "name": "support",
          "type": "bool"
        }
      ],
      "name": "castVote",
      "outputs": [],
      "stateMutability": "nonpayable",
      "type": "function"
    },
    {
      "inputs": [],
      "name": "close",
      "outputs": [],
      "stateMutability": "nonpayable",
      "type": "function"
    },
    {
      "inputs": [
        {
          "internalType": "address",
          "name": "from",
          "type": "address"
        },
        {
          "internalType": "address",
          "name": "to",
          "type": "address"
        },
        {
          "internalType": "uint256",
          "name": "value",
          "type": "uint256"
        }
      ],
      "name": "update",
      "outputs": [],
      "stateMutability": "nonpayable",
      "type": "function"
    }
  ],
  "bytecode": "0x60806040523480156200001157600080fd5b506040516200186738038062001867833981810160405260e08110156200003757600080fd5b508051602082015160408301516060840151608085015160a086015160c090960151600580546001600160a01b038089166001600160a01b03199283161790925560018054838816908316179055600380549286169290911691909117905560098054969795969495939492939283919062ff0000191662010000836002811115620000bf57fe5b0217905550600060095462010000900460ff166002811115620000de57fe5b14156200015d57600080546001600160a01b0319166001600160a01b03881617905560028360028111156200010f57fe5b141562000157576040805162461bcd60e51b815260206004820152601160248201527063616e742062652071756164726174696360781b604482015290519081900360640190fd5b6200045a565b600160095462010000900460ff1660028111156200017757fe5b14156200027657600280546001600160a01b0319166001600160a01b038816178155836002811115620001a657fe5b14620001ed576040805162461bcd60e51b81526020600482015260116024820152706d7573742062652071756164726174696360781b604482015290519081900360640190fd5b600360009054906101000a90046001600160a01b03166001600160a01b0316630d45fb026040518163ffffffff1660e01b815260040160206040518083038186803b1580156200023c57600080fd5b505afa15801562000251573d6000803e3d6000fd5b505050506040513d60208110156200026857600080fd5b505181116200015757600080fd5b600260095462010000900460ff1660028111156200029057fe5b14156200040d57600080546001600160a01b0319166001600160a01b0388811691909117909155600354604080516306a2fd8160e11b815290519190921691630d45fb02916004808301926020929190829003018186803b158015620002f557600080fd5b505afa1580156200030a573d6000803e3d6000fd5b505050506040513d60208110156200032157600080fd5b505181118015620003c8575062015180620003c6600360009054906101000a90046001600160a01b03166001600160a01b0316630d45fb026040518163ffffffff1660e01b815260040160206040518083038186803b1580156200038457600080fd5b505afa15801562000399573d6000803e3d6000fd5b505050506040513d6020811015620003b057600080fd5b50518390620004b8602090811b620011c517901c565b115b62000157576040805162461bcd60e51b815260206004820152601060248201526f746f6f2073686f72742065787069727960801b604482015290519081900360640190fd5b6040805162461bcd60e51b815260206004820152601760248201527f766f74652074797065206e6f7420737065636966696564000000000000000000604482015290519081900360640190fd5b6009805484919060ff191660018360028111156200047457fe5b02179055506009805461ff0019169055600a555050600b80546001600160a81b0319166001600160a01b0394909416610100029390931790925550620005a4915050565b60006200050283836040518060400160405280601e81526020017f536166654d6174683a207375627472616374696f6e206f766572666c6f7700008152506200050960201b60201c565b9392505050565b600081848411156200059c5760405162461bcd60e51b81526004018080602001828103825283818151815260200191508051906020019080838360005b838110156200056057818101518382015260200162000546565b50505050905090810190601f1680156200058e5780820380516001836020036101000a031916815260200191505b509250505060405180910390fd5b505050900390565b6112b380620005b46000396000f3fe608060405234801561001057600080fd5b50600436106100f55760003560e01c8063690e7c0911610097578063bb8e8f4611610066578063bb8e8f4614610214578063c26c12eb1461021c578063c2b6b58c14610234578063c7b970fd1461023c576100f5565b8063690e7c091461019a5780637ace48e7146101b7578063879fa307146101d65780638ce516da146101de576100f5565b80634e69d560116100d35780634e69d560146101445780635c60da1b146101705780635d1ca631146101785780635e4d322914610192576100f5565b806322f3e2d4146100fa5780633f8a037d1461011657806343d726d61461013a575b600080fd5b610102610244565b604080519115158252519081900360200190f35b61011e610346565b604080516001600160a01b039092168252519081900360200190f35b610142610355565b005b61014c6108f0565b6040518082600381111561015c57fe5b60ff16815260200191505060405180910390f35b61011e6108fe565b61018061090d565b60408051918252519081900360200190f35b610102610913565b610142600480360360208110156101b057600080fd5b5035610959565b610142600480360360208110156101cd57600080fd5b50351515610a18565b610102610cdb565b610142600480360360608110156101f457600080fd5b506001600160a01b03813581169160208101359091169060400135610d25565b610102610d41565b610224610d6e565b6040518082600281111561015c57fe5b610102610d77565b610224610d80565b60008060095462010000900460ff16600281111561025e57fe5b141561031957600b5460ff1615801561028c57506001600954610100900460ff16600381111561028a57fe5b145b80156103125750600360009054906101000a90046001600160a01b03166001600160a01b0316630d45fb026040518163ffffffff1660e01b815260040160206040518083038186803b1580156102e157600080fd5b505afa1580156102f5573d6000803e3d6000fd5b505050506040513d602081101561030b57600080fd5b5051600a54115b9050610343565b600b5460ff1615801561031257506001600954610100900460ff16600381111561033f57fe5b1490505b90565b6000546001600160a01b031690565b61035d610d8f565b600260095460ff16600281111561037057fe5b14156106b5576000600160095462010000900460ff16600281111561039157fe5b141561041857600260009054906101000a90046001600160a01b03166001600160a01b03166318160ddd6040518163ffffffff1660e01b815260040160206040518083038186803b1580156103e557600080fd5b505afa1580156103f9573d6000803e3d6000fd5b505050506040513d602081101561040f57600080fd5b50519050610495565b600360009054906101000a90046001600160a01b03166001600160a01b0316632b112e496040518163ffffffff1660e01b815260040160206040518083038186803b15801561046657600080fd5b505afa15801561047a573d6000803e3d6000fd5b505050506040513d602081101561049057600080fd5b505190505b61049e81610dea565b6008546007546104b39163ffffffff610e4616565b101561058857600360009054906101000a90046001600160a01b03166001600160a01b0316630d45fb026040518163ffffffff1660e01b815260040160206040518083038186803b15801561050757600080fd5b505afa15801561051b573d6000803e3d6000fd5b505050506040513d602081101561053157600080fd5b5051600a5411610588576040805162461bcd60e51b815260206004820152601e60248201527f6e6f7420656e6f75676820766f746573206265666f7265206578706972790000604482015290519081900360640190fd5b600854600754111561069f576009805461ff001916610200179081905560019062010000900460ff1660028111156105bc57fe5b14156106305760055460025460408051636c8abe7560e01b81526001600160a01b03928316600482015290519190921691636c8abe7591602480830192600092919082900301818387803b15801561061357600080fd5b505af1158015610627573d6000803e3d6000fd5b5050505061069a565b600554600354604080516325b2724960e11b81526001600160a01b03928316600482015290519190921691634b64e49291602480830192600092919082900301818387803b15801561068157600080fd5b505af1158015610695573d6000803e3d6000fd5b505050505b6106af565b6009805461ff0019166103001790555b506108e1565b600080546040805163799be3df60e01b815290516001600160a01b039092169263799be3df92600480840193829003018186803b1580156106f557600080fd5b505afa158015610709573d6000803e3d6000fd5b505050506000600360009054906101000a90046001600160a01b03166001600160a01b0316632b112e496040518163ffffffff1660e01b815260040160206040518083038186803b15801561075d57600080fd5b505afa158015610771573d6000803e3d6000fd5b505050506040513d602081101561078757600080fd5b5051905060008060095460ff16600281111561079f57fe5b14156107bd576107b682600263ffffffff610ea916565b90506107f8565b600160095460ff1660028111156107d057fe5b14156100f5576107b660036107ec84600263ffffffff610eeb16565b9063ffffffff610ea916565b80600754111561087f576009805461ff001916610200179055600554600354604080516325b2724960e11b81526001600160a01b03928316600482015290519190921691634b64e49291602480830192600092919082900301818387803b15801561086257600080fd5b505af1158015610876573d6000803e3d6000fd5b505050506108de565b806008541061089c576009805461ff0019166103001790556108de565b6040805162461bcd60e51b81526020600482015260126024820152711c5d5bdc9d5b481b9bdd081c995858da195960721b604482015290519081900360640190fd5b50505b600b805460ff19166001179055565b600954610100900460ff1690565b6005546001600160a01b031681565b60065490565b6000600160095462010000900460ff16600281111561092e57fe5b14801561094557506000546001600160a01b031633145b80156109545750610954610d41565b905090565b6001546001600160a01b031633146109a9576040805162461bcd60e51b815260206004820152600e60248201526d34b73b30b634b21039b2b73232b960911b604482015290519081900360640190fd5b6000600954610100900460ff1660038111156109c157fe5b14610a04576040805162461bcd60e51b815260206004820152600e60248201526d696e76616c69642073746174757360901b604482015290519081900360640190fd5b6006556009805461ff001916610100179055565b610a20610d8f565b3360009081526004602052604090205415610a72576040805162461bcd60e51b815260206004820152600d60248201526c185b1c9958591e481d9bdd1959609a1b604482015290519081900360640190fd5b60008060095462010000900460ff166002811115610a8c57fe5b1415610b1057600054604080516308748d1960e31b815233600482015290516001600160a01b03909216916343a468c891602480820192602092909190829003018186803b158015610add57600080fd5b505afa158015610af1573d6000803e3d6000fd5b505050506040513d6020811015610b0757600080fd5b50519050610bf4565b600160095462010000900460ff166002811115610b2957fe5b1415610b7a57600254604080516370a0823160e01b815233600482015290516001600160a01b03909216916370a0823191602480820192602092909190829003018186803b158015610add57600080fd5b600054604080516308748d1960e31b815233600482015290516001600160a01b03909216916343a468c891602480820192602092909190829003018186803b158015610bc557600080fd5b505afa158015610bd9573d6000803e3d6000fd5b505050506040513d6020811015610bef57600080fd5b505190505b60008111610c0157600080fd5b8115610c705733600090815260046020526040812082905560095462010000900460ff166002811115610c3057fe5b14610c5557610c50610c4182610dea565b6007549063ffffffff610e4616565b610c68565b600754610c68908263ffffffff610e4616565b600755610cd7565b336000908152600460205260408120828203905560095462010000900460ff166002811115610c9b57fe5b14610cc057610cbb610cac82610dea565b6008549063ffffffff610e4616565b610cd3565b600854610cd3908263ffffffff610e4616565b6008555b5050565b60008060095462010000900460ff166002811115610cf557fe5b14806109455750600260095462010000900460ff166002811115610d1557fe5b1480156109545750610954610d41565b610d328382600003610f44565b610d3c8282610f44565b505050565b60006002600954610100900460ff166003811115610d5b57fe5b148015610954575050600b5460ff161590565b60095460ff1690565b600b5460ff1690565b60095462010000900460ff1690565b610d97610244565b610de8576040805162461bcd60e51b815260206004820152601a60248201527f50726f706f73616c57726170706572206e6f7420616374697665000000000000604482015290519081900360640190fd5b565b600080610e0f6001610e0385600263ffffffff610ea916565b9063ffffffff610e4616565b90508291505b81811015610e4057905080610e3960026107ec83610e03878263ffffffff610ea916565b9050610e15565b50919050565b600082820183811015610ea0576040805162461bcd60e51b815260206004820152601b60248201527f536166654d6174683a206164646974696f6e206f766572666c6f770000000000604482015290519081900360640190fd5b90505b92915050565b6000610ea083836040518060400160405280601a81526020017f536166654d6174683a206469766973696f6e206279207a65726f00000000000081525061110d565b600082610efa57506000610ea3565b82820282848281610f0757fe5b0414610ea05760405162461bcd60e51b815260040180806020018281038252602181526020018061125d6021913960400191505060405180910390fd5b6001600160a01b03821660009081526004602052604090205415801590610f6e5750610f6e610244565b15610cd7576001546001600160a01b03163314610fc3576040805162461bcd60e51b815260206004820152600e60248201526d34b73b30b634b21039b2b73232b960911b604482015290519081900360640190fd5b6000610fce826111af565b6001600160a01b03841660009081526004602052604081205491925090610ff4906111af565b905060008084136110145761100f828463ffffffff6111c516565b611024565b611024828463ffffffff610e4616565b6001600160a01b03861660009081526004602052604081205491925012156110ae57600060095462010000900460ff16600281111561105f57fe5b1461108d5761108861107083610dea565b61107c610c4184610dea565b9063ffffffff6111c516565b6110a6565b6110a68261107c83600754610e4690919063ffffffff16565b600755611106565b600060095462010000900460ff1660028111156110c757fe5b146110e9576110e46110d883610dea565b61107c610cac84610dea565b611102565b6111028261107c83600854610e4690919063ffffffff16565b6008555b5050505050565b600081836111995760405162461bcd60e51b81526004018080602001828103825283818151815260200191508051906020019080838360005b8381101561115e578181015183820152602001611146565b50505050905090810190601f16801561118b5780820380516001836020036101000a031916815260200191505b509250505060405180910390fd5b5060008385816111a557fe5b0495945050505050565b60008082126111be5781610ea3565b5060000390565b6000610ea083836040518060400160405280601e81526020017f536166654d6174683a207375627472616374696f6e206f766572666c6f770000815250600081848411156112545760405162461bcd60e51b815260206004820181815283516024840152835190928392604490910191908501908083836000831561115e578181015183820152602001611146565b50505090039056fe536166654d6174683a206d756c7469706c69636174696f6e206f766572666c6f77a26469706673582212209d4638331bcc2f1d1e99be6153fc7b1af354869927e60d05e1191e5dbf552b1764736f6c63430006000033"
}