{
  "contractName": "ProtocolSettingsProposal",
  "abi": [
    {
      "anonymous": false,
      "inputs": [
        {
          "indexed": true,
          "internalType": "address",
          "name": "previousOwner",
          "type": "address"
        },
        {
          "indexed": true,
          "internalType": "address",
          "name": "newOwner",
          "type": "address"
        }
      ],
      "name": "OwnershipTransferred",
      "type": "event"
    },
    {
      "inputs": [],
      "name": "owner",
      "outputs": [
        {
          "internalType": "address",
          "name": "",
          "type": "address"
        }
      ],
      "stateMutability": "view",
      "type": "function"
    },
    {
      "inputs": [],
      "name": "renounceOwnership",
      "outputs": [],
      "stateMutability": "nonpayable",
      "type": "function"
    },
    {
      "inputs": [
        {
          "internalType": "address",
          "name": "newOwner",
          "type": "address"
        }
      ],
      "name": "transferOwnership",
      "outputs": [],
      "stateMutability": "nonpayable",
      "type": "function"
    },
    {
      "inputs": [
        {
          "internalType": "bytes[]",
          "name": "_executionBytes",
          "type": "bytes[]"
        }
      ],
      "name": "setExecutionBytes",
      "outputs": [],
      "stateMutability": "nonpayable",
      "type": "function"
    },
    {
      "inputs": [],
      "name": "getExecutionBytes",
      "outputs": [
        {
          "internalType": "bytes[]",
          "name": "",
          "type": "bytes[]"
        }
      ],
      "stateMutability": "view",
      "type": "function"
    },
    {
      "inputs": [],
      "name": "getExecutionBytesSize",
      "outputs": [
        {
          "internalType": "uint256",
          "name": "",
          "type": "uint256"
        }
      ],
      "stateMutability": "view",
      "type": "function"
    },
    {
      "inputs": [],
      "name": "getName",
      "outputs": [
        {
          "internalType": "string",
          "name": "",
          "type": "string"
        }
      ],
      "stateMutability": "view",
      "type": "function"
    },
    {
      "inputs": [
        {
          "internalType": "contract IProtocolSettings",
          "name": "_settings",
          "type": "address"
        }
      ],
      "name": "execute",
      "outputs": [],
      "stateMutability": "nonpayable",
      "type": "function"
    },
    {
      "inputs": [
        {
          "internalType": "contract IERC20",
          "name": "pool",
          "type": "address"
        }
      ],
      "name": "executePool",
      "outputs": [],
      "stateMutability": "nonpayable",
      "type": "function"
    }
  ],
  "bytecode": "0x60806040526100266100186001600160e01b0361002b16565b6001600160e01b0361002f16565b61007f565b3390565b600080546001600160a01b038381166001600160a01b0319831681178455604051919092169283917f8be0079c531659141344cd1fd0a4f28419497f9722a3daafe3b4186f6b6457e09190a35050565b6109708061008e6000396000f3fe608060405234801561001057600080fd5b50600436106100935760003560e01c806380452a771161006657806380452a77146100e657806381a4e2eb146100fb5780638da5cb5b146101105780639de76db814610125578063f2fde38b1461013857610093565b806317d7de7c146100985780634b64e492146100b65780636c8abe75146100cb578063715018a6146100de575b600080fd5b6100a061014b565b6040516100ad91906107dd565b60405180910390f35b6100c96100c43660046105f1565b61016c565b005b6100c96100d93660046105f1565b610247565b6100c961024a565b6100ee61025e565b6040516100ad919061077d565b610103610336565b6040516100ad91906108d0565b61011861033c565b6040516100ad9190610769565b6100c9610133366004610614565b61034b565b6100c96101463660046105f1565b610366565b60606040518060600160405280602581526020016109166025913990505b90565b6001546101945760405162461bcd60e51b815260040161018b9061086d565b60405180910390fd5b60005b600154811015610243576000826001600160a01b0316600183815481106101ba57fe5b906000526020600020016040516101d191906106fa565b6000604051808303816000865af19150503d806000811461020e576040519150601f19603f3d011682016040523d82523d6000602084013e610213565b606091505b509091505060018115151461023a5760405162461bcd60e51b815260040161018b90610836565b50600101610197565b5050565b50565b61025261039d565b61025c60006103dc565b565b60606001805480602002602001604051908101604052809291908181526020016000905b8282101561032d5760008481526020908190208301805460408051601f60026000196101006001871615020190941693909304928301859004850281018501909152818152928301828280156103195780601f106102ee57610100808354040283529160200191610319565b820191906000526020600020905b8154815290600101906020018083116102fc57829003601f168201915b505050505081526020019060010190610282565b50505050905090565b60015490565b6000546001600160a01b031690565b61035361039d565b8051610243906001906020840190610430565b61036e61039d565b6001600160a01b0381166103945760405162461bcd60e51b815260040161018b906107f0565b610247816103dc565b6103a561042c565b6001600160a01b03166103b661033c565b6001600160a01b03161461025c5760405162461bcd60e51b815260040161018b9061089b565b600080546001600160a01b038381166001600160a01b0319831681178455604051919092169283917f8be0079c531659141344cd1fd0a4f28419497f9722a3daafe3b4186f6b6457e09190a35050565b3390565b82805482825590600052602060002090810192821561047d579160200282015b8281111561047d578251805161046d91849160209091019061048d565b5091602001919060010190610450565b50610489929150610507565b5090565b828054600181600116156101000203166002900490600052602060002090601f016020900481019282601f106104ce57805160ff19168380011785556104fb565b828001600101855582156104fb579182015b828111156104fb5782518255916020019190600101906104e0565b5061048992915061052a565b61016991905b808211156104895760006105218282610544565b5060010161050d565b61016991905b808211156104895760008155600101610530565b50805460018160011615610100020316600290046000825580601f1061056a5750610247565b601f016020900490600052602060002090810190610247919061052a565b600082601f830112610598578081fd5b813567ffffffffffffffff8111156105ae578182fd5b6105c1601f8201601f19166020016108d9565b91508082528360208285010111156105d857600080fd5b8060208401602084013760009082016020015292915050565b600060208284031215610602578081fd5b813561060d81610900565b9392505050565b60006020808385031215610626578182fd5b823567ffffffffffffffff8082111561063d578384fd5b81850186601f82011261064e578485fd5b803592508183111561065e578485fd5b61066b84858502016108d9565b8381528481019250818501865b858110156106a15761068f8a888435870101610588565b85529386019390860190600101610678565b509098975050505050505050565b60008151808452815b818110156106d4576020818501810151868301820152016106b8565b818111156106e55782602083870101525b50601f01601f19169290920160200192915050565b60008083546001811660008114610718576001811461072f5761075f565b60ff198216855260028204607f168501925061075f565b6002820486855260208520855b828110156107585781548882015260019091019060200161073c565b5050850192505b5090949350505050565b6001600160a01b0391909116815260200190565b6000602080830181845280855180835260408601915060408482028701019250838701855b828110156107d057603f198886030184526107be8583516106af565b945092850192908501906001016107a2565b5092979650505050505050565b60006020825261060d60208301846106af565b60208082526026908201527f4f776e61626c653a206e6577206f776e657220697320746865207a65726f206160408201526564647265737360d01b606082015260800190565b6020808252601d908201527f6661696c656420746f2073756365737366756c6c792065786563757465000000604082015260600190565b6020808252601490820152731b9bc8199d5b98dd1a5bdb9cc81d1bc818d85b1b60621b604082015260600190565b6020808252818101527f4f776e61626c653a2063616c6c6572206973206e6f7420746865206f776e6572604082015260600190565b90815260200190565b60405181810167ffffffffffffffff811182821017156108f857600080fd5b604052919050565b6001600160a01b038116811461024757600080fdfe50726f746f636f6c2053657474696e6773204d616e67656d656e74204f7065726174696f6ea2646970667358221220f9de0c92b7d2b1dfd4f5aa7cd2edcb6ea883197219ef42418b370bf2d0fb6fac64736f6c63430006000033"
}